:400000000040002011000000E1050000E105000080B500AF00F0E8FA80B500AF284B12221A6002F093FA274B181C02F0E1F8012002F09CFA0C2002F0EBF8234B234A1A60D9
:40004000234B8022D2051A60224B224A126802210A431A60204B214A1A60214B204A126808218A431A60FA23DB00181C02F01CF91C4B181C02F00EFA1B4BFE2212021A60F6
:400080001A4B1B4A1A601B4BFE2212021A60174B194A1A60194B802212061A60184B00221A60184B40221A60174B41221A60084B8022D2051A60024B00221A60BD4680BD25
:4000C00030001040001BB70004010B40060000800C020B4078002E407C002E406A2D00006CF02E40DC050000000301400000014040FF00800403014041FF008008010B40CD
:4001000000010B40140101401001014080B582B000AF72B63A4B00221A60FB1D00221A7023E0FB1D1A78131C5B009B185B00354A9B183B603B681A78597809020A43997827
:4001400009040A43DB781B061343191C3B681A795B791B0213439BB2081C191C00F0C8FAFB1D1A78FB1D01321A70FB1D1B78012BD7D9254A254B101C191C00F0C9FA244BE9
:400180008022D2021A60234B00221A60224B00221A60224B992212041A60214A204B1B78DBB202210B43DBB213701E4A1D4B1B78DBB23C218B43DBB214210B43DBB21370D2
:4001C000174A174B1B78DBB216210B43DBB21370154B01221A60154B8022D2021A60144B01221A60134B01221A60134B01221A60FFF712FF00F0CCFABD4602B080BDC04693
:400200006CF02E4034370100403701005037010014000B40000002400800044020500F4000700F4001700F40000204400802044018020440000404401804044010B5064CAC
:400240002378002B07D1054B002B02D0044800E000BF0123237010BDD004002000000000D035010008B5084B002B03D00748084900E000BF07480368002B00D108BD064B11
:40028000002BFBD09847F9E700000000D0350100D4040020C80000200000000080B500AF00F02EF802F080FE00F038F9104B1B78012B12D100F004F90E4B1B78002B04D043
:4002C0000C4B00221A7001F06BFB0B4B1B781A1C0123134001D000F027F8084B1B78002B05D0064B00221A70002000F053FBD9E7EC040020CC000020ED040020EE0400200E
:4003000080B500AF62B6074B181C00F0ABFA062001F090FE002001F0B1FC00F02DFFBD4680BDC0467D03000090B583B000AF124B1B88013B9AB2104B1A800F4B1B88002B95
:4003400017D10D4B05221A80002000F075FFC04600F0E2FF031EFBD101F062FCFC1D002001F07EFC031C2370FB1D1B78181C00F079F8BD4603B090BDCE00002080B584B0F5
:4003800000AF786039607B684C2B56D87B689A002C4BD3181B689F462B4B01221A704DE0294B01221A7049E0284B1B78042B03D1254B01221A7041E040E0234B01221A7032
:4003C0003CE0234A3B68111C1A1C0223081C111C1A1C02F0A8FD1F4B01221A702EE01D4B00221A701C4B00221A701C4B01221A7000F066F822E03B68FB60FB689B890F2BBC
:4004000007D1FB685B681A78134B1A70134B01221A700F4B1A785B781B021A4300231204120C1B0C1B041343181C0DF0E3FD05E03B681A780A4B1A7000E0C046BD4604B066
:4004400080BDC04600360100EE0400209C1E0020AC130020EC040020ED040020EF040020F004002080B586B000AF021CFB1D1A70114B1B78002B1BD10C23FB180E221A8102
:400480000C23FB18FA1D1A600C23FB1801229A800A4B0C22B9181A785B781B021A4300231204120C1B0C1B041343181C0DF04AFDBD4606B080BDC046F0040020AC1300205D
:4004C00080B584B000AF124B1B78002B1DD0104B00221A700F4B1A780C23FB181A700C23FB1800225A703B1C0F221A813B1C0C22BA181A603B1C02229A803A1C064B101C93
:4005000000211A1C00230EF0ADFABD4604B080BDEF040020ED040020AC13002080B582B000AFFB1D00221A702A4B1A782A4B1B789A4209D0FB1D01221A70274B1B78032B0F
:4005400002D1264B01221A60234B1A78214B1A70204B1B78032B10D0042B2ED0022B00D032E0FB1D1B78002B06D0FB1D00221A70002001F05FFD27E026E0184B1B685A1E14
:40058000164B1A60154B1B68002B15D1062001F051FD01F08DFD031E012B06D1002001F061FD0E4B05221A6006E0012001F05AFD0A4B14221A6007E006E0012001F052FD7D
:4005C000002001F037FDC046FB1D00221A70BD4602B080BDD00000209C1E0020D400002080B500AFFEE7C04680B586B000AF224B7B61224B3B61204B7B6135E03B691B687E
:40060000FB603B695B68BB603B699B683B6000237B600CE0FB681A68BB681A60BB680433BB60FB680433FB607B6804337B607A683B689A42EED13B69DB683B6000237B6030
:4006400008E0BB6800221A60BB680433BB607B6804337B607A683B689A42F2D13B6910333B617B69013B7B617B69002BC6D102F025FCFFF713FEFEE701000000BC3D010026
:4006800080B582B000AF154B144A126801218A431A6000237B600FE07B68032B04D8104B7A689200D35800E00E4B0F4A796889008B507B6801337B607B682F2BECD9FFF7EE
:4006C00025FD0A4B00221A60044B044A126801210A431A60BD4602B080BDC0460000104000000000E105000000000020C000002080B582B000AF786039607A683B68101C81
:4007000000211A1C02F018FCBD4602B080BDC04680B586B000AF7860396000233B6100237B612FE07B699B007A68D3181B68BB600F23FB18BA681A70BB68FF229343BB60FC
:4007400018E03B695B003A68D3181B781A1CBB68D318191C3B695B003A68D3185B780B703B6901333B610F23FB181A780F23FB18013A1A700F23FB181B78002BE1D17B6921
:4007800001337B617B69032BCCD9BD4606B080BD80B500AF064B03221A60064B03221A60054B00221A60012000F008F8BD4680BD3000304030003140000E3F4080B584B044
:4007C00000AF021CFB1D1A70154B1B68FB60FB1D1B78002B05D0FB68802212061343FB6003E0FB685B005B08FB600D4BFA681A600C4B1B68FB60FB1D1B78002B05D0FB68FD
:40080000982292051343FB6003E0FB68064A1340FB60044BFA681A60BD4604B080BDC04680033A4008010B40FFFFFFD980B500AF064B00221A70064B00221A70054B0022D6
:400840001A7000F009F8BD4680BDC046A71E0020A01E0020A61E002080B500AF00F0E4FBBD4680BDB0B594B004AF78603E23FB1800221A802823FA183E4B111C1A1C142339
:40088000081C111C1A1C02F04EFB3B4B1B78002B04D1FFF7CBFF384B01221A707B68002B5DD0364B7A681A603E23FB181B88002B29D11023FB181C22BA185A601023FB18C3
:4008C0002022BA181A601023FB1800221A812023FB181B221A802023FB181B225A802023FB1804221A711C23FB1800221A703E23FC181023FA180E23FB18101C191C02F077
:4009000027FC031C23803E23FB181B88002B2AD13E23FC181A481B49AE231A012823FD1805230093184B01936E23FF3302932B1C02F06CFB031C23803E23FB181B88002B60
:4009400011D1124B01221A703E23FC18104B181C102112220EF06EF8031C238003E03E23FB1801221A803E23FB181B88181CBD4610B0B0BDF0380100F1040020B01300204C
:40098000C90C0000B8130020004601009C1E00208839010090B585B000AF021CFB1D1A70FB1D1B78022B04D90E23FB1801221A804DE02A4B1B78042B44D1294B1B78DBB2E8
:4009C0001A1C042313403DD1FB1D1B78002B0DD1244B1E221A82234B5B68902252001A80204B5B68A02252005A8010E0FB1D1B78012B0CD11B4B96221A821A4B5B68C822DF
:400A0000D2001A80174B5B68FA2212015A80164BFA1D12781A700E23FC18124B181C0CF051F9031C23800E23FB181B88002B08D10B4B1B78DBB204221343DAB2084B1A706C
:400A400005E004E00E23FB180422FF321A800E23FB181B88181CBD4605B090BD9C1E0020A71E002028010020A61E002080B584B000AF78600A1CFB1C1A700023BB60BB6854
:400A8000002B20D07B689A79BB681A700F23FB1800221A7012E00F23FB181B780133BA68D3180F22BA18127879688A5C1A700F23FB181A780F23FB1801321A700F23FB1880
:400AC0001B78052BE7D9BD4604B080BD80B582B000AF78607B681B789AB27B6801331B789BB21B029BB213439BB2181CBD4602B080BDC04690B585B000AF78600F23FB1859
:400B000000221A707B689B890B22934237D17B681A1D7B680F217C18101C00211A1C40230DF0A0FF031C23700F23FB181B78002B1DD17B685B68181CFFF7C8FF031C1A1C26
:400B4000022313409BB2002B08D0104B1B68822251007A68081C111C984708E00B4B1B680622FF32111C7A68081C111C9847084B1B78DBB201229343DAB2054B1A700F236B
:400B8000FB181B78181CBD4605B090BDB0130020A71E002090B585B000AF78600F23FC187B68181CFFF7A6FF031C2370144B1B78DBB21A1C012313401FD10F23FB181B78EF
:400BC000002B16D00823FB1812229A707B689A890823FB181A800823FB180F22BA181278DA707B680822BA181868111C0DF06AF903E07B6818680DF0FDF9BD4605B090BD4B
:400C0000A71E002080B582B000AF7860BD4602B080BDC04680B500AF034B00225A70024B00221A70BD4680BDA41E002080B582B000AF7860BD4602B080BDC04680B500AFE6
:400C4000BD4680BD80B584B000AF78600E23FB1800221A707B689B79002B1CD10F23FB1800221A7012E00F23FB181B787A68D35C002B04D00E23FB1801221A700BE00F236C
:400C8000FB181A780F23FB1801321A700F23FB181B78052BE7D90E23FB181B78181CBD4604B080BD80B582B000AF021CBB1D1A80BD4602B080BDC04680B582B000AF78603A
:400CC000BD4602B080BDC04680B588B000AF021C3960FB1D1A70C34B1B78DBB201221343DAB2C04B1A70FB1D1B78712B00D95EE19A00BD4BD3181B689F461023FB180722FC
:400D00001A701023FB1800225A701023FB18181C04F046F81023FB1807221A701023FB1801225A701023FB18181C04F039F8AF4B1B68181CFFF786FF031E11D0AB4B1B68D9
:400D4000181C02F035F9A94B1B68181C0021FFF78DFEA64B1B68181C0121FFF787FE36E0A34B1B781A1C3F231A40A24B1B78191C3F230B409B011A439F4B1B78191C1F23B5
:400D80000B401B031A439D4B1B78191C7F230B405B041343BB61BB69DAB2994B1A70BB691B0ADAB2964B5A70BB691B0CDAB2944B9A70934B181C02F0FBF8914B181C002179
:400DC000FFF754FE8E4B181C0121FFF74FFE03200BF030FE0C23FB183F221A700C23FB1800225A700C23FB18181C0BF041FE854B04221A70DCE03B68181CFFF717FFD7E00C
:400E00003B681A78804B1A70D2E03B687B617B691B78002B18D17B695B78002B0BD17B4B0022DA80794B00229A80784B784A1A607B69764A5A606B4B1B78DBB20122934340
:400E4000DAB2684B1A70B3E0B2E0664B1B78DBB21A1C202313400ED16E4B1B78102B02D16C4B0522DA706C4B1A786A4B101C191C0BF0F0FE9CE09BE03B68181CFFF71CFF5F
:400E800096E03B68181CFFF717FF5E4B02221A708EE05C4B04221A708AE05A4B1B78022B34D0504B1B78DBB21A1C012313402DD04C4B1B78DBB21A1C042313400BD0514BA7
:400EC00003221A70474B1B78DBB204229343DAB2444B1A701AE0434B1B78DBB21A1C082313400BD0474B04221A703E4B1B78DBB208229343DAB23B4B1A7007E0414B1B782C
:400F0000032B03D13F4B04221A7051E050E03B681B88181CFFF7C6FE4AE03F4A3B68111C1A1C0223081C111C1A1C01F0FCFF364B00221A70384B1B785A339A00374BD318B8
:400F40000533374A111C1A1C0423081C111C1A1C01F0E9FFFFF772FE2AE0FFF75BFE27E03B685B88162B05D81E23FB183A6852881A8003E01E23FB1817221A803B681E220D
:400F8000BA1811881A8800231204120C1B0C1B041343181C0CF0A2FF0AE03B68181CFFF7F9FD05E03B68181CFFF72CFE00E0C0460C4B1B78DBB21A1C112313400FD0094B8A
:400FC0001B78DBB201229343DAB2064B1A70154B1B68FA1D11783A68081C111C9847BD4608B080BDA71E0020C83A0100440100207CF1FF0F7DF1FF0F7BF1FF0F78F1FF0FEF
:401000003C0100209C1E0020A01E0020F4040020981E0020BC010020A41E002000460100981E0020B013002080B500AFBD4680BD80B582B000AF00237B6007E07B68181CB8
:40104000002100F045FC7B6801337B607B68002BF4D000F009F8002000F0A4FB00F078F9BD4602B080BDC04680B582B000AF244B1B68DAB2234B1A70224B1B787B607B6817
:401080000F2293437B60204B1B78DBB21A1C0F2313407A6813437B607B68F02293437B60194B1B78DBB21A1CF02313407A6813437B60134B7A681A60144B154A1A60154BCA
:4010C000154A1A60154B1B687B607B680F2293437B607B68062213437B60104B7A681A60102001F0B9F90E4B1020191C01F026F91020032101F048F9BD4602B080BDC04682
:4011000000FF2840A81E002062F1FF0F0800284000020001040028400008A00100040240151D000080B582B000AF01F02DF800F0E3FF0020002100F0EFFF0020002101F0B2
:4011400033F8FF2000F0C2FF402001F007F8084B1B687B607B68074A13437B60044B7A681A60102001F064F9BD4602B080BDC046040028400010088080B500AF0C4B1B781B
:40118000002B04D1FFF754FF094B01221A70FFF7C9FF00F02BFE074B01221A70064B064A12688021C9030A431A60BD4680BDC04605050020FC0400200400284080B584B05B
:4011C00000AF021CFB1D1A70FB1D1A78FB1D01321A70FB1D1B78012B00D10BE0FB1D1B78074A101C191C00F0F5FA031CFB60FB68002BE9D0FB1D1B78181CBD4604B080BD9E
:401200000405002080B582B000AF7860084B00221A707B68DAB2074B1A70054B81221A707B68181C00F07CF9BD4602B080BDC046FE040020FF04002080B586B000AF786025
:401240002F4A7B68D3181A782E4B1A702E4A7B68D3181B787B617B69002B01D101237B61274A7B68D3181B781A1C7B69D318013BFB6000233B610BE0244A3B69D318197856
:40128000234A3B69D3180A1C1A703B6901333B613B69002BF0D000233B611CE0194B1B78DBB21A1E3B699A420BD83A69FB689A4207D8164A3B69101C191C012200F0ACFAC6
:4012C00006E0124A3B69101C191C002200F0A4FA3B6901333B613B69002BDFD0094B1B78DBB2002B08D10B4B41221A70054B1B78DBB2181C00F014F9BD4606B080BDC046AD
:40130000F43C0100FF040020F83C010004050020B01E0020FE04002080B500AF044B1B78DBB21A1C01231340181CBD4680BDC046FE04002080B582B000AF7860034B7A6831
:401340005200D35A181CBD4602B080BD0005002080B582B000AF00237B6006E07B68181C00F062F87B6801337B607B68002BF5D0BD4602B080BDC04690B587B000AF786088
:4013800002237B6100231322BA18191C0B1CDB185B18137000221223FB1892001A701123FC1800F02EFF031C23701D4B7A699200D3581B68FB601223FB181B780F229A4054
:4013C000131CDA43FB681340FB601223FB181B7804229A40131CFA681343FB60114B7A699200D3580F4A796989008A58126813217918097807208840011CC9430A401A6035
:40140000074B7A699200D358FA681A601123FB181B78181C00F0F9FEBD4607B090BDC046A03C0100BC3C010090B589B000AF786002237B6100221323FB1892001A70002356
:401440001222BA18191C0B1CDB185B1813700023FB612F4A7B68D3181B78BB612D4B7A699200D3582B4A796989008A5812681321791809780F208840011CC9430A401A602E
:40148000BB69022B01D10023BB61BB69012B01D00623FB611123FC1800F0B3FE031C23701D4B7A699200D3581B68FB601223FB181B7807229A40131CDA43FB681340FB6068
:4014C0001223FB181B78FA699A40131CFA681343FB60114B7A699200D358FA681A601123FB181B78181C00F090FE0C4B7A699200D3580A4A796989008A5812680021081CD7
:4015000001218140C9430A401A60BD4609B090BDC01E0020A03C0100BC3C0100D83C010090B589B000AF78601723FB1800221A701723FB181A785E4B9200D358BB615D4A00
:401540007B68101C191C00F045F9031C3B61BB69594A934209D83B69BA699A40131CBB61BB69FF2212041343BB6100F00DFE00F0C3FD524A7B68D3181B789BB2013B9BB28A
:40158000181C002100F0C8FD4D4A7B68D3181B789BB2013B9BB2181C002100F005FEFF2000F094FD402000F0D9FD464B1B78002B39D0102000F050FF434B1B68FB61FB69AD
:4015C00040221343FB61FB6980229343FB610F23FB183B497A688A1812781A700E23FB1836497A688A1812781A700F23FB181A78131C1B039B1A1B04181C0E23FB181B78E0
:401600001722BA1811782A4A89008A585343984203D2FB6980221343FB612B4BFA691A60102000F005FF102000F016FF274B1B68FB61FB69264A1340FB61264A7B68D3187C
:401640001B78191C244A7B68D3181B781B040B43FA691343FB611D4BFA691A601A4B1B68FB61FB691D4A1340FB61FB691C4A1343FB61102000F0DCFE7B68181CFFF77CFE51
:401680000D23FC1800F0BDFD031C23700E4BFA691A60002000F0ACFD124BBA691A600D23FB181B78181C00F0B0FDBD4609B090BDC8010020AC1E0020FFFFFEFFC41E002021
:4016C000B41E0020FD040020040028400800284000FF80FFB81E0020BC1E0020FF1FDFFF200020000C00284080B586B000AF7860234B1B6899B2234B7A685200D1520023C7
:401700007B61214B7A699200D358204A934214D81F4A7B68101C191C00F05CF8031C3B61184B7A685200D35A1A1C3B691A41131C99B2144B7A685200D1527B68181CFFF7B4
:4017400073FE102000F088FE124B1B68FB60FB68114A1340FB60FB68A02212021343FB600C4BFA681A600D4B0C4A12680C490A401A60102000F05CFEBD4606B080BDC046D7
:401780000C00284000050020C8010020FFFFFEFFAC1E002004002840FF1FDFFF0800284000FF80FF80B584B000AF78607B68032213407B60064B1B68FB607B685B02FA6875
:4017C0001343FB60024BFA681A60BD4604B080BD0400284080B584B000AF786039603B68DB08FB603B680722134001229A400B23FB181A707A68FB68D3181B780B22BA189C
:4018000012781340DBB2002B01D0012300E00023181CBD4604B080BD80B586B000AFF860B9607A60BB68DB087B61BB680722134001229A401323FB181A707B68002B0DD052
:40184000FA687B69D318F9687A698A1811781322BA1812780A43D2B21A700EE0FA687B69D318F9687A698A181278132179180978C943C9B20A40D2B21A70BD4606B080BD32
:4018800080B584B000AF78600023BB600023FB6015E07B68181CFFF7B5FCC046FFF73CFD031E012BFAD07B68181CFFF743FD031C1A1CBB689B18BB60FB680133FB60FB6895
:4018C000002BE6D0BB689BB2181CBD4604B080BD80B582B000AF786039603B68D9B2044A7B68D3180A1C1A70BD4602B080BDC046C01E002080B584B000AF78600F23FB18C3
:4019000015497A688A1812781A70144B7A685200D15A134B7A685200D152124A7B68D31800221A70104A7B68D31800221A700F23FB181B780F22BA1812780C49895C0C4A9F
:40194000D154064B7A685200D15A0A4B7A685200D152BD4604B080BD9C3C010000050020080500200C05002010050020D401002018050020D41E002080B582B000AF78602F
:401980007B68181CFFF73EFCC046FFF7C5FC031EFBD17B68181CFFF7ADFFBD4602B080BD80B582B000AF00237B6006E07B68181CFFF7E2FF7B6801337B607B68002BF5D0DE
:4019C000BD4602B080BDC04690B587B000AF78600F23FB187E497A688A1812781A700F23FB181A780E23FB187A498A5C1A701023FB18794A796849008A5A1A80774B1B78F4
:401A0000002B15D0764B7A685200D25A1023FC181023FB181B88181C111C00F05DF9031C23806F4B7A685200102179180988D1527B68DAB26B49684B081C111C1A1C00F02B
:401A400075FE694B7A685200D35A1022BA1812889A4212D3654A7B68D31800221A70624B7A685200D25A1223FB181021791809888A1A1A8001237B610CE05B4B7A685200AA
:401A8000D15A1223FB181022BA1812888A1A1A8000237B617B69002B2AD10F23FB181B78534AD35C9BB21222BA1812889A421FD94E4A7B68D3181A784E497B68CB181B7881
:401AC0009A4209D37B68181CFFF714FF474A7B68D31800221A7051E0444A7B68D3181B780133D9B2414A7B68D3180A1C1A7045E00E23FB181B789BB21222BA1812889A4256
:401B00000DD90F23FB181B78394AD35C9BB21222BA1812889A4231D27B69002B2ED1324B7A685200D35A1B02BB60334A7B68D3181B781A1CBB681343BB601023FB181B88B4
:401B4000BA68D318BB60284B7A685200D35A1A1CBB689B1ABB60BB681B0A99B2224B7A685200D152BB68D9B2234A7B68D3180A1C1A701E4A7B68D31800221A700E23FB182A
:401B80001B789BB21222BA1812889A4217D97B69002B14D01223FB181B88FF2B05D9174A7B68D318FF221A700EE01223FB181B88D9B2124A7B68D3180A1C1A7004E00F4A9E
:401BC0007B68D31800221A70BD4607B090BDC0469C3C0100C81E002000050020CD010020D41E0020F41E002008050020CC1E0020D01E0020CC0100200C0500201005002090
:401C000080B582B000AF78607B68181C00F068F97B68181CFFF7D8FEBD4602B080BDC04680B582B000AF00237B6011E00B4A7B68101C191CFFF7CEFD031C3B603B68002B8C
:401C400003D07B68181CFFF7DBFF7B6801337B607B68002BEAD0BD4602B080BD0405002080B582B000AF7860034A7B68D3181B78181CBD4602B080BD1005002080B584B075
:401C800000AF78600F23FB1800221A7001210E23FB180F22BA1812788A181A700F23FB181B780C4A101C191C0122FFF7B5FD0F23FB181A780F23FB1801321A700F23FA1816
:401CC0000E23FB1812781B789A42E7D3BD4604B080BDC0460405002080B584B000AF021CBB1D1A803B1D0A1C1A80BB1D1A883B1D1B88D318FB603B1D1B885B00FA68D318AC
:401D0000FB60FB689B08FB60FB689BB2181CBD4604B080BD80B500AF102000F09DFB2D4B01221A602C4B1B78DBB2181CFFF7DCFC2A4B1B78DBB2DBB25BB2002B08DA274B17
:401D40001B78DBB201229343DAB2244B1A703CE0214B1B78DBB2181CFFF730FA031C1A1C1D4B1A701C4B1B78DBB2002B06D11A4B1B78DBB2181CFFF7D3FB26E0174B1B7881
:401D8000DBB201229343DAB2144B1A70134B1B78DBB21A1C4023134017D0114B00221A700FE00F4B1B781A1C0D4B1B78191C0D4B595C0D4B99540A4B1B780133DAB2084B50
:401DC0001A70074B1B78002BEBD0102000F030FBBD4680BD14002840FF040020FE0400201C050020B01E00200405002080B582B000AF324B01221A70304B01225A702F4BC8
:401E000001229A702D4B0C22DA802C4B2C4A9A802A4B2C4A9A6000F09FF800233B6007E0294B3A6892002949D1503B6801333B60224B5B781A1E3B689A42F1D800237B60F2
:401E40000CE0234A7B68D31804221A70214A7B68D31801221A707B6801337B607B68002BEFD000F085F8154B1B4A181C111C00F0BDFB124B181C00F0CAFB184B01221A7055
:401E80000E4B154A181C111C00F0B0FB0B4B181C00F0DEFB094B181C00F084F800237B6006E07B68181C00F01BF87B6801337B607B68002BF5D0BD4602B080BDF41E002040
:401EC000CC0400000C3D0100C80100200000FF0FB41E0020C41E00209A0D0000FD04002080B584B000AF7860164A7B68D3181B78FB600B23FB181449FA688A1812781A7053
:401F00000B23FB181B785B08D9B2104AFB68D3180A1C1A700B23FB181B785B08D9B20C4AFB68D3180A1C1A700B23FB181B78DB08D9B2084AFB68D3180A1C1A70BD4604B028
:401F400080BDC0469C3C0100D0010020C81E0020D01E0020D81E002080B500AF034B034A126840218A431A60BD4680BD0400284080B582B000AF094B1B687B607B68084AE0
:401F800013407B607B688022920013437B60034B7A681A60BD4602B080BDC04608002840FFFCFFFC80B584B000AF78600023FB6019E01B4AFB68D3181B785B08D9B2194AA5
:401FC000FB68D3180A1C1A70154AFB68D3181B7801335B08D9B2124AFB68D3180A1C1A70FB680133FB607B681B781A1EFB689A42DFD8102000F030FA0B4B1B68BB60BB6830
:402000000A4A1340BB60BB68094A1343BB60064BBA681A60102000F00BFABD4604B080BDB81E0020BC1E002008002840FFFCFFFC0002000180B582B000AF021CFB1D1A70C2
:40204000064B064A126806491140FA1D127892040A431A60BD4602B080BDC04608020440FFFFE3FF80B584B000AF021CFB1D1A700E4B1B68DAB20F23FB1840218A431A7044
:40208000FB1D1B789B01DBB240221340D9B20F23FB180F22BA1812780A431A70034B0F22BA1812781A60BD4604B080BD0002044080B500AF044B1B68402213409B09DBB238
:4020C000181CBD4680BDC0460402044080B582B000AF7860C046064B1B68002BFBDB044B7A68120203490A431A60BD4602B080BD000001404000008080B500AFC046044BCF
:402100001B68002BFBDB024B024A1A60BD4680BD000001404000004080B584B000AF021CBB1D1A807B1D0A1C1A700B4B1B6807221340FB60BB1D1B881A02FB681A437B1D78
:402140001B78DB00FF210B401343BB60024BBA681A60BD4604B080BD0003014080B582B000AF7860C046064B1B68002BFBDB044B7A68120203490A431A60BD4602B080BDE1
:40218000000001404100008080B500AFC046044B1B68002BFBDB024B024A1A60BD4680BD000001404100004080B584B000AF021CBB1D1A807B1D0A1C1A700B4B1B68072259
:4021C0001340FB60BB1D1B881A02FB681A437B1D1B78DB00FF210B401343BB60024BBA681A60BD4604B080BD04030140000000000230800803D00138FDD1C046C046C0462D
:402200007047EFF3108072B6704780F31088704790B58BB000AF78602723FC18FFF7F1FF031C2370184B1A680C23FB181A60174B1A680C23FB185A607B68033B144AD35CA8
:402240001A1C0C23FB189A60124B1A680C23FB18DA601C23FB18104A1A600C23FA181C23FB185A600D4B1C22BA181A600C4B0D4A1A600A4B1B682723FB181B78181CFFF722
:40228000C4FFBD460BB090BD08010B4000010B40683D010030001040B6EA000008001040040010401700008080B584B000AF78600023FB60154B154A126801210A431A6017
:4022C000134B144A1A60144B134A1268802109020A431A607B68002B12D01023FB600CE0012000F0D7F800F019F8031E02D00023FB6005E07B68013B7B607B68002BEFD196
:40230000FB68181CBD4604B080BDC04660F02E4078002E400220000010002E4080B582B000AF054B1B68012213407B607B68181CBD4602B080BDC0460C002E4080B584B09C
:4023400000AF021C3960FB1D1A7080239B05FB60FB1D1B781F2B02D9002000F091F8FB1D1B7810339B00FA68D3181B68BB60FB1D1B7810339B00FA68D3183A681A60BB68C5
:40238000181CBD4604B080BD90B587B000AF021CFB1D1A70BB1D0A1C1A70BB1D1B78032B02D9002000F06CF8FB1D1B781F2B02D9002000F065F8FB1D1B7803221340DB005F
:4023C00006337B611323FC18FFF71BFF031C2370FB1D1B789B08DBB29B00144A944663441B68FB607B6903229A40131CDA43FB681340FB60BB1D1A787B699A40131CFA6890
:402400001343FB60FB1D1B789B08DBB29B00074A94466344FA681A601323FB181B78181CFFF7F3FEBD4607B090BDC04600E400E080B582B000AF021CFB1D1A70054BFA1DC2
:4024400012781F210A40012191400A1C1A60BD4602B080BD00E100E080B582B000AF021CFB1D1A70054BFA1D12781F210A40012191400A1C1A60BD4602B080BD80E100E0EB
:4024800080B582B000AF021CFB1D1A7001BEBD4602B080BD80B582B000AF021CBB1D1A80BB1D1B88044A12785343181CFFF7A0FEBD4602B080BDC046E401002080B500AF5D
:4024C0000E4B0E4A126801218A431A600B4B0B4A126802218A431A60094B094A126830218A4310210A431A60054B054A126807218A4301210A431A60BD4680BD00F02E40ED
:4025000000FF2E4080B500AF0E4B0E4A126802218A431A600C4B0C4A126807218A4302210A431A60084B084A126830218A4320210A431A60034B034A126801210A431A606C
:40254000BD4680BD00F02E4000FF2E4080B500AFFFF7B4FF044B044A1268802109060A431A60BD4680BDC04600F02E4080B584B000AF78600C4B1B6801221340FB607B6813
:40258000002B02D0012B03D005E0FFF797FF06E0FFF7B8FF03E00020FFF772FFC046FB68181CBD4604B080BD00F02E40F7B59C180023071C082680250191009223702378F7
:4025C00000982B432370BB689B6C9847019B984202D22378AB432370013E6D08002EEED12378F82B01D9F8232370F7BD70B5051C0E1C00242B789C4208D2AB68221C281CB4
:40260000311C1B68FFF7D2FF0134F3E770BD38B5051C00242B789C4219D2AA6813681B5DDB080F2B00D90F23D16BD268C95C1155AA68042B04D9936D906B211C012203E09F
:40264000936D906B211C002298470134E2E738BDF0B5041C002687B063789E4262D2A3685A6C925D0392002A01D1013203921A6C925D019201992278914251D29A689B69CC
:40268000515C0F221140B2000492002205910499019D5A50019B5B000293039B019A9B189D423DD2A768E388A0885843FB68595D00F012FB3B68595D00F07EFA059B584351
:4026C000194B40005A2802D95B084008FAE7BA6904991B0C1B045350A36882085B6B01215855A368C008DB69029F5A550F22A36849421B6A5855A3685B6A5A55A368986A8E
:40270000C1530021D86AC153186B9B68C1535B19197801350A401A703B1C02330293BCE7013699E707B0F0BD0000FFFFF0B585684E002B6B925B9B191C8887B0141B0094D3
:40274000AC6A1A80A45B6B6A0294EC6A5F5CA45B2B6A03946C6B7F00645C5B180494AC680193645C1B780594009CE40FA4460F24251C6744009C3D40AC46E51764196C4086
:402780009C4203D2012B05D0013B00E00133FF273F2B00D89F00019D2B7065460F2D29D0002D24D0BC4225D8059C029F24090094974200D9171C039D954200D2151C009ADD
:4027C000092A01D8141C01343A1C0A2C14D1EA1B934206D9049A92089A42924152429B1A00E001338268D26953543A1C04E0151C644601E0151C00246746836824015B6A61
:402800005F5483689F6ABA53DA6A9B6895530F225B181D782A401A7083689B6859180B781C430C7007B0F0BD80B582B000AF78600A1CBB1C1A80BB1C1A887B681A60BD4609
:4028400002B080BD80B582B000AF78600A1CBB1C1A80BB1C1A887B681A60BD4602B080BD80B582B000AF304B1B78DBB21B022F4A1278D2B213437B602D4B1B78DBB21B02E1
:402880002C4A1278D2B213433B603B682A4A934207D17B68072B04D1284B3B6004237B6009E03A68D4231B019A4204D17B68042B01D1224B3B60224B3A681A60214B7A68D3
:4028C0001A60214B1B78DBB21B02204A1278D2B213437B607A6880239B019A4202D07B68002B01D11A4B7B601A4B7A681A601A4B1B78DBB21B02194A1278D2B213437B6018
:402900007B68174A934206D07B68164A934202D07B68052B01D1144B7B60144B7A681A60BD4602B080BDC046D9F0FF0FD8F0FF0FDFF0FF0FDEF0FF0F580B0000580D0000BE
:402940006C002E4074002E40DBF0FF0FDAF0FF0F0220000078002E40DDF0FF0FDCF0FF0F0F0F000005050000050F000080002E4080B582B000AF021CBB1D1A80BB1D1B88E2
:40298000181CFFF787FDBD4602B080BD80B500AF00F0DEF8BD4680BD80B500AF00F0E2F8BD4680BD80B500AF00F0DCF8044B181C00F09CF8022000F0A5F8BD4680BDC046FB
:4029C000AD2B000080B500AF024B181C00F07CF8BD4680BDAD2B000080B500AF0223FF33181CBD4680BDC04680B582B000AF78602B23181CBD4602B080BDC04680B582B09A
:402A000000AF78602B23181CBD4602B080BDC04680B582B000AF78602B23181CBD4602B080BDC04680B582B000AF78602B23181CBD4602B080BDC04680B582B000AF7860D7
:402A40002B23181CBD4602B080BDC04680B582B000AF78602B23181CBD4602B080BDC04680B582B000AF78602B23181CBD4602B080BDC04680B582B000AF78602B23181C9C
:402A8000BD4602B080BDC04680B500AF2B23181CBD4680BD80B582B000AF021CFB1D1A702B23181CBD4602B080BDC04680B582B000AF786039602B23181CBD4602B080BD2D
:402AC00080B500AFBD4680BD80B582B000AF786000F048F87B68181C00F008F8022000F011F800F035F8BD4602B080BD80B582B000AF7860024B7A681A67BD4602B080BDD3
:402B00000000002090B585B000AF021CFB1D1A700623FB600B23FC18FFF773FB031C23700A4B0A4A1268C0218A43111CFA1D1078FA689040021C0A431A600B23FB181B7828
:402B4000181CFFF762FBBD4605B090BD0CE400E080B500AF024B802252011A60BD4680BD00E100E080B500AF024B802252011A60BD4680BD80E100E090B583B000AFFC1DF7
:402B8000FFF73FFB031C2370074B074A126804218A431A6030BFFB1D1B78181CFFF735FBBD4603B090BDC04610ED00E080B500AF10F0FAFCBD4680BD002243088B4274D335
:402BC00003098B425FD3030A8B4244D3030B8B4228D3030C8B420DD3FF22090212BA030C8B4202D31212090265D0030B8B4219D300E0090AC30B8B4201D3CB03C01A5241D6
:402C0000830B8B4201D38B03C01A5241430B8B4201D34B03C01A5241030B8B4201D30B03C01A5241C30A8B4201D3CB02C01A5241830A8B4201D38B02C01A5241430A8B42AC
:402C400001D34B02C01A5241030A8B4201D30B02C01A5241CDD2C3098B4201D3CB01C01A524183098B4201D38B01C01A524143098B4201D34B01C01A524103098B4201D3E0
:402C80000B01C01A5241C3088B4201D3CB00C01A524183088B4201D38B00C01A524143088B4201D34B00C01A5241411A00D20146524110467047FFE701B5002000F0FCF87B
:402CC00002BDC0460029F7D003B5FFF775FF0EBC4243891A1847C04603460B437FD4002243088B4274D303098B425FD3030A8B4244D3030B8B4228D3030C8B420DD3FF228C
:402D0000090212BA030C8B4202D31212090265D0030B8B4219D300E0090AC30B8B4201D3CB03C01A5241830B8B4201D38B03C01A5241430B8B4201D34B03C01A5241030B61
:402D40008B4201D30B03C01A5241C30A8B4201D3CB02C01A5241830A8B4201D38B02C01A5241430A8B4201D34B02C01A5241030A8B4201D30B02C01A5241CDD2C3098B425F
:402D800001D3CB01C01A524183098B4201D38B01C01A524143098B4201D34B01C01A524103098B4201D30B01C01A5241C3088B4201D3CB00C01A524183088B4201D38B00B9
:402DC000C01A524143088B4201D34B00C01A5241411A00D201465241104670475DE0CA0F00D04942031000D34042534000229C4603098B422DD3030A8B4212D3FC228901FE
:402E000012BA030A8B420CD3890192118B4208D3890192118B4204D389013AD0921100E08909C3098B4201D3CB01C01A524183098B4201D38B01C01A524143098B4201D305
:402E40004B01C01A524103098B4201D30B01C01A5241C3088B4201D3CB00C01A524183088B4201D38B00C01A5241D9D243088B4201D34B00C01A5241411A00D2014663463F
:402E800052415B10104601D34042002B00D54942704763465B1000D3404201B5002000F00BF802BD0029F8D003B5FFF715FF0EBC4243891A1847C0467047C0460E4B70B5F0
:402EC00000251E1C0D4CE41AA410A54204D0AB00F35898470135F8E710F05EFF084B00251E1C084CE41AA410A54204D0AB00F35898470135F8E770BDA43D0100A43D010018
:402F0000A43D0100AC3D010030B50024944208D0035D651C0C5DA34201D0181B02E02C1CF4E7002030BD002310B5934203D0CC5CC4540133F9E710BD031C8218934202D0B8
:402F400019700133FAE77047134A1088810703D08107890F401A001D11791030484381B25088820703D08207920F801A001D800040180A494030098980B2CA0701D05030F7
:402F800080B2890706D504495422091F09785143081880B270470000F20100202005002010B501F06BFE10BD10B500F04BFA10BD10B50749044609780220002907D12046F7
:402FC00001F093FE002802D1204609F029FE10BD5803002070B504460120002C12D02368002B0FD0616800290CD0074D06222889208118462968FFF796FF69686068097823
:403000000170002070BD000020050020FFB585B0002768460E9D07734B481C460078002802D0082009B0F0BD10990F9801900095029105A807C800F0F9F80028F2D16946B5
:40304000264603AB84460873002C19D0002115E08A00B75A082F09D990198078002805D0083FB7521878401C187005E0002912D00027B75290198770491CC9B2A942E7D36B
:4030800060460028CED110990F9801F0ABF9002804D00120C6E701208446F1E701F0EEFD294900200861284805990C30016021888180022D03D3A1798171A17AC171002186
:4030C0001EE0481C19E082008B00A75AE65ABE46BE4211D26F463E80B4461E190296B678BE7001967646E6521719029EBB78B3706646A652019EBE70401CA842E3D3491C25
:40310000A942DED3114800906846037B22460799069800F011F9002884D168460A4C007B60700A4801F0C8FD0028B3D1204607490C3006F0F5FD0028ACD106F00FFE002814
:40314000A8D1012121706DE7EC01002020050020F8B5054633480E460078002802D002242046F8BD002E5BD000242F49002D16D02A89D0070DD02868002808D003881B3B23
:40318000E12B04D24088FB2801D81B2801D2012409E0900707D56868002804D1F7E70020088108604860002CDAD11F482F8907811C481B21801D0180418004210171194978
:4031C0000020891C0870F80705D016480622801D2968FFF7A8FE1449B80703D56A681148127882700F480D46801D0860001F486001F0A0FD0B48801D01F08EFD28890CF0B6
:40320000DDFC28890CF042FE03461033FFF79CFE1F21C018890140180249308088809FE701249DE7EC01002020050020FFB58446384F1C460020BB883F78054602460646CE
:40324000002F12D100290FD0029999420CD36146002909D0002C07D00A99002904D0FF230B996E33994202D2012004B0F0BD002144E0AB001F19BF78002F3BD0E35A002BFA
:4032800038D07B43591889B22B0000F047F8050410161C253100A7782388BC46FF27233BEB37BB4222D26346032B1FD322E0A388002B1FD0302B19D31CE02389002B19D02B
:4032C000282B13D316E0A289002A13D01346124F233BBB420AD20DE0268A002A0AD033460D4F233BBB4201D2964203D901200EE0002001E000280AD16D1CEDB2099B9D4260
:40330000B7D31C2463435B1802998B42ACD89642AAD8AAE7EC010020BAFF000030B47446641E2578641CAB4200D21D46635D5B00E31830BC18470000FFB583B00024694693
:403340000C801F4606468C80002806D00598002803D004983043800701D0012467E0022FFBD93449049809888842F6D3FFF72AFBFFF712FB00F010FC002856D100F04CFDB7
:40338000002852D12C49084601F060F805042D0C4BD12A480499066081800021C18007810C98007AC00704D0684601F06FFC040007D10C98007A800703D501A801F06EFCD8
:4033C0000446BF1DFEB2002C21D13146059800F05DF804001BD10CF067FD0406240E16D16A461088928808368518144AF1B29088D288AEB29319984207D3401B801A80B276
:4034000001F014FB050007D000E0FF25012400F05BFA002D04D008E0F8B200F01BF9F6E700F07EFA06490120087000F0C7FB204607B0F0BDF0010020793500002C050020F2
:403440000002002010B503480078012801D101F08FF910BD0002002070B5084B0446DA889E8800205518B54206D81D68AA182260DA885118D98070BD032070BD2C050020D8
:4034800001480089704700002C050020F0B587B007460D4600208900009006916846FFF7DBFF844600285DD1304800990160002117E02E4B88001A680629115406D22C4C57
:4034C0000419667882185670628805E0C419203CA67A8218567022891B68C018491C4280C9B2A942E5D300242DE0601CC2B2059025E01E4FA30039689600581840887118DB
:40350000039604904E88B04217D938466F46FE80B6464F786E4677710297049F4F800168039F5E18767879184E700168764659184E800068029F18184770521CD2B2AA429B
:40354000D7D30598C4B2AC42CFD36046002809D168460699FFF780FF8446002802D1054900980860604607B0F0BD000004020020D03D0100080200207047000010B5002875
:4035800009D005494A68002A05D0011F08788000105801F0F9F910BD0402002010B50446FFF76EFFC0B2801DA0420CD307484068002808D0A100405801F058F9002801D028
:4035C0000470001D10BD002010BD000004020020F8B516460D460446FFF752FFC0B2801DA04203D20020C0430090F8BDB2B2E9B2684601F061F90099481C03D0024AA0008B
:40360000526811500098F8BD04020020F8B50746FFF736FF801DC6B20A49002005460C680DE06178002907D06188B94202D32078FFF7B4FF002804D1241D6D1CEDB2B54273
:40364000EFD3F8BD0402002010B5002801D0FFF795FF10BD70B506460948002504680BE06178002905D062882078121D0023FFF7AFFF241D6D1CEDB2B542F1D370BD0000BA
:4036800004020020FFB581B00A9C16002BD000F0F1F80546042826D0214F002C0BD02046FFF7B4FF2901C919486000281BD022460499FFF738FC1A4928010E504618748149
:4036C000019805707D20029CC000444300F0C0F8009004280AD000F055FAA0420ED800F051FA201A06E0FF2005B0F0BD204600F0ADFA0020B08135720020F5E700F042FAFC
:40370000074600F0B9FA381B87B23846012100F0EFF800980101024808188781E6E7000038050020F8B5060117483418217A042903D0A089002802D018E00020F8BD00F086
:4037400021FA054600F098FA00F0A2F804280DD001010D480F18B88941198DB2002100F0C7F80020B881284600F070FA6068064D002801D0FFF768FF042020720020A85145
:403780006081A081D9E7000038050020FEB500266A46304601232549050169180D7A042D02D0898900291BD000211154401CC0B20428F0D300246846005D002830D01B4825
:4037C0002101081841894768056802910021016041600422418102728181002E02D015E01354E3E700F054F804280ED001010F480818019086890021304600F079F8019877
:4038000000218181304600F021FA0126002D07D038460299A847002F02D03846FFF714FF641CE4B2042CC6D3FEBD0000380500200EB5002005216A4600901181508103483B
:40384000694600680DF0A1F90EBD00000C020020074A0020010189180B7A042B02D08989002903D0401CC0B20428F3D370470000380500200549002002015218127A042A90
:4038800003D0401CC0B20428F6D370473805002030B50A4B04200A4C00210A011219157A042D06D09289002A03D09A4201D808461346491CC9B20429EFD330BDFFFF00008F
:4038C000380500207047000030B50020074C05460423020111190B72A5504D60401C4D81C0B28D810428F4D330BD00003805002030B5094C00231A011219157A042D04D080
:403900009589002906D02D1895815B1CDBB2042BF1D330BD2D1AF7E738050020002070471CB5002469460C70142001902346054A05480DF02FF904480068401C00D1FF24BF
:4039400020461CBD9D3900000C0200203EB5124A0146FF2000230124126800290DD0012914D0042908D104206946009308814B8110460DF00AF980B23EBD6846009304816F
:403980004381694610460DF0FBF8F4E768460093048143816946EBE70C02002070B545890468416800890300FFF7B8FC08280509091E22282628002005F0E0F81EE00229E9
:4039C00008D0C8B22A4621460BF0AAFA2046FFF73BFE13E002202A4621460BF0A1FA2946204600F00DF809E000200CF0BDFD05E02046FFF7CBFE01E0FFF762F8002070BDD7
:403A0000014B0022DB6818471002002070B5448905680089022803D0032809D0FF2070BD2246094C0023A46829460120A04708E0FFF7B6FA241DA2B200232946022006F0DF
:403A40003CF8002070BD000010020020704700000248002141600180418070471002002070B50C46002186B016460391012802D0022859D116E003A9012006F07EF8012840
:403A80001BD1039D324621462846FFF74CFA0095287801900220694608814E816846FFF7B5FF41E0214D002B686809D0049004A9022006F062F801281DD0022006B070BD79
:403AC000002812D0298840182146FFF72CFA28880024801980B228806988091D884206D12C801348FFF792FF03E00320E6E788421AD96C6018E004986860E278A378110263
:403B000019430B4A698000231060E3565360032313815181A1788170E178C1706178417021780170042028800020C7E710020020780500203EB515460C46022803D0042886
:403B40000CD000203EBD0091019002206946088107484A8100680DF018F807E00BF0E0F9044B0022DB6829462046984701203EBD0C02002010020020014AD1609060704781
:403B800010020020034801688068081A0A214843000970478405002010B5FEF703FF482204490548FFF7BFF903490120C870002010BD0000EC3D01006408002010B5FEF786
:403BC000E5FE10BD70B5134C2368002B08D0207B1149C20705D04008400020738868A08070BD88680B4AA18880B29268814203D90A4D691A091802E0814202D2411A5118A7
:403C0000A160A080A0689842EAD30CF0DBFF00F013F870BD84050020C0102E40FFFF000010B508461946FFF7A7FF10BD704710B5FFF780FF10BD00000348002101604160DA
:403C40008160C1607047000084050020024610B5FF20002A0CD0FFF7EFFF064C0321207B0843207310010A21FFF72CF82060002010BD00008405002000B504480A2180685D
:403C800048430209FFF7D8FF104600BD840500200248007B8007C00F704700008405002010B537490868002802DA364B01221A70022290430860344800693149C00B403189
:403CC000096A08425AD0012000F066FA2E482F497C30FEF7B7FD2A480E216C30FEF7B2FD294820218430FEF7ADFD274814219C30FEF7A8FD2448FF21C131A430FEF7A2FD53
:403D00002148FF212F31B030FEF79CFD1E482049BC30FEF797FD1C481E49AC30FEF792FD1C491948491CB430FEF78CFD16481A49B830FEF787FD14481849CC30FEF782FDE1
:403D4000114817490830FEF77DFD0F481549A830FEF778FD0C4814498830FEF773FD0A4812498C30FEF76EFD07481921C9029030FEF768FDFEF774FD002010BDFF2010BDA8
:403D800000F02E402002002000002E4055650000320300002F3F00003102000010520000EC160000FA12000031D000003AE3000070B50646581C80B245086D00002408E0FA
:403DC000304600F0C1F81055000A1119A41C4870A4B2AC42F4D3D80705D0D0182038D15CC47FD454C17770BD30B50A4C002100195B1E07E0541864782502545C2C430480B0
:403E0000891C89B29942F5DB994201D1515C018030BD000000102E4010B5FF2000F0BCF90F49FF2048700E481021801D41800121417001700A490020C91C4870FFF730FF9B
:403E400004000AD100F008F907210648FEF7ECFC044807211830FEF7E7FC204610BD000020020020CC112E4070B5002405465B1E0AE0284600F068F8010A161971702D1DB1
:403E80001055A41CADB2A4B29C42F2DB9C4203D1284600F059F8105570BD000070B500210A4D5B1E0AE0541864782602545C344346193480001D891C80B289B29942F2DB09
:403EC000994202D1515C4019018070BD00102E40F0B50599091FCFB200217E1E0BE0541864782502545C2C43164D45192C80001D891C80B289B2B142F1DBFC0712D01C78EC
:403F0000515C24020F4A0C4381180C809C785D78001D210280B2294384182180001D80B2D9780CE059781A7809021143054A84182180001DD9789B78090280B21943801851
:403F40000180F0BD00102E40014940180088704700102E4010B50B490020487000F07CF8002000F03FF9002000F02CF907210648FEF75AFC044807211830FEF755FC002081
:403F800010BD000023020020CC112E4010B50B46062812D006DC01280CD0032801D1FFF7D9FF10BD0A28FCD00B28FAD105480078107010BDFFF730FF10BD1146184600F05A
:403FC0002DF910BD26020020F8B5204DAC6A0127A0071F4E002816DA307806280ED1286A384328621B480069F903084381B219481030FEF727FC042000F0CEF8134802215F
:404000002830FEF711FCE00711D0062000F0C4F80F49FF20C91E48707078002802D1686B38436863094801212830FEF7FDFBE0050BD53078042802D1052000F0ADF8034851
:40404000FF2101312830FEF7EFFBF8BD40F02E402302002000002E4010B503212348FEF7F1FB0120FEF784FC20483038406A204C80076178800F890001431C480C38FEF7A7
:40408000E1FB6078002808D0401E022181401820FEF708FFC000083800E0B82081B21548FEF7D0FB1348032109021438FEF7CAFB10481149B830FEF7C5FB612189010F488C
:4040C000FEF7C0FB0D480321001FFEF7BBFB0C490C48FEF7B7FB0B480B496038FEF7B2FB084801218838FEF7ADFB10BD70F02E4026020020D8102E4090890000041E2E40EB
:40410000FF0F000058122E40209000000849087806280BD148780749002803D1486B400840004863C86A01221043C862704700002302002040F02E40014800787047000038
:404140002302002000B50300FFF7E8F8080D050D0B070507090D012000BD032000BD042000BD022000BDFF2000BD0000074A9168D26889B2064B92B2994204D105498A4299
:4041800001D1012100E000210170704780002E4033D000003FE3000010B50446FEF7FCFB072C01D9FF2C01D102480470FEF7EEFB10BD000023020020014948707047000063
:4041C0002002002010B5064A012805D01921C9021046FEF737FB10BD1D21C902F8E7000090002E4010B50A4A141D012808D009491046FEF727FB08492046FEF723FB10BD94
:4042000004491046891CFEF71DFB0349491DF3E788002E4031D000003AE300000078074AFF2803D04C2804D9553803E01078087070474F38087010707047000022020020D4
:40424000F0B50122002830D000292ED00224420600D003246D2342065B06D21800D0641C034600221EE00C2516466E43104D00277519AF720E4F002ABB51696007D0661EBE
:40428000B24209D106466D367606760E05E05E06760E8027BE1B00E080269B198919521C2E81D2B2A242DED300221046F0BD000004070020074900200C2242435218927AF9
:4042C000012A05D0401CC0B20428F5D3002070470120704704070020F8B5044616460F000BD0184D6868A04203D9FF306E30A04203D3FF206E30864201D90120F8BD2046D2
:40430000FEF702FE00281BD0324639462046FEF70AFEF0B200210C224A43521913895668F718A74208D90127A41B1B1B9772834206DAC01A1469C0B2491CC9B20429EAD3A1
:404340000020F8BD0407002010B500F05BF80648FF22C1686E320C460448FEF7E4FD03492046FFF76DFF10BD2C02002094050020002070470020054A002902D0012902D064
:4043800002E0506000E09060002070472C02002070B5084C154608460549A26889182A46FEF7C1FDA0684019A06028B270BD0000940500202C0200203EB50A226946FFF705
:4043C000E7FF044606480A2200686946FEF79CFD002802D00020C0433EBD20463EBD00002C020020002803D0FF226E32914201D2FF20704702490A61C860002070470000BA
:404400002C0200200248002141608160704700002C02002070B5074C15460548626880182A46FFF759FF60684019606028B270BD940500202C02002010B503490A2209685F
:40444000FFF7E8FF10BD00002C02002010B50F4A002313600E4A13600E4B18600E4801600E49012008600E490860000290600E490C4808600D4914300860FF381538506063
:4044800000F0BCF800F0CAF9002010BD58020020400200206C020020700200205C0200204C020020340800205002002064020020014610B50020002910D0094B1A689C686D
:4044C0005118A14209D25868196080188A0704D08A07920F891A091D196010BD002010BD40020020F8B50024164E671E321F3D463168136806E01422624310328A58521CDA
:404500001BD0641C9C42F6D36A1C14D02C461422544322460C3288500C214843FFF7C8FF3168002808510AD031680020103408517068401C70602846F8BD2546E4E73846A8
:40454000F8BD000050020020F3B50026F64381B000281BDB1E490968884217D80299002914D01B4F142204463F1D54432546396810354859401C09D0FEF70EFA38682F1F96
:404580004159C359994203DBFEF700FA3046FEBD214608310091465801590C20704308180C220299FEF7BFFC0948761C001D0068C159B14200D100260549009A091D86507B
:4045C00008684159491C4151FEF7E0F90020FEBD4C020020002803DB07490968884202D90020C043704704491422091D0968504310300858704700004C020020F0B5002026
:404600000D4A451E0346171F50600FE014260146714314680E1DA3510C461668083433511668083435511468401C635039688842ECD30020F0BD000050020020F3B5002640
:40464000F64381B0002841DB2349096888423DD8029900293AD0204F142204463F1D54432546396810354859401C2FD0FEF794F93868415900292BD0211D009146580C2159
:40468000005971430F46C1190C220298FEF74BFC11480021001D0068761C00590C34C0190160416081600C48001D00680159B14200D100260849009A091D865008684159C6
:4046C000491E4151FEF762F90020FEBD3046FEBDFEF75CF9FAE700004C020020FEB504460D4600201E49089E0860471E009001900290002C11D0486885420ED2002A0CD065
:40470000002E0AD0642E08D808460C3001681C2068430C18207A002801D03846FEBD0120226020721846FFF7DDFE6060401C13D06681A6810A4827610C3067610179A94281
:4047400000D205710021684601810A462846029B00F040F82846FEBD00202072DDE700005802002038B50124009400F039F838BDFEB50027164EFF433D4600240EE01C20F7
:40478000316860430818017A002906D04068FFF721FF002801D0254603E0641C3079A042EDDA681C12D01C2130684D434419FEF7F3F869466068FFF741FF0546FEF7E6F879
:4047C000002DD9D1216868468847D5E7FEBD00006402002038B50024009400F001F838BD1FB500220C49541E0A60002811DB496888420ED808491C220C31096850430818D0
:40480000406801A9FFF7A0FE401C02D0002004B010BD2046FBE7000058020020F0B50021114A4D1E174611710C3F0B46BD6016E008461C2460431668041D355114680646C9
:40484000235014680836A3551468361DA353044616680A34335318301468491C255078688142E5D30020F0BD6402002038B500210091002811DB0F49097888420DDA0D4DDF
:4048800004010C3529680859002807D0201D0818694600F06FF9002801D0002038BDFEF77BF828680F34015D491E0155FEF76EF8009838BD74020020F7B582B000250298DE
:4048C0006E1E06602E48D21C024017462D4A2C4610460C380178106805E02301C358002B0FD0641CE4B28C42F7D3711C28D03401211D40180191039900F02AF900281FD1CA
:4049000001E02646F1E71F48016820460C300F521C480399026820460E30115419480399026820460F3011540398784300F0A0F8144900280968085102D00024009011E0F7
:4049400001251AE00F48016801980818009900F02CF9002801D0012502E00098C0190090641CE4B203988442ECD3002D05D10298066004480179491C0171284605B0F0BD48
:40498000FCFF000080020020F8B50D4600216A468C461180002839DB23490978884235DA214B04010C3319680A59002A2ED020460C300B5A801C0E5C1846704380189542DB
:4049C00024D3854222D2002006E007465F43BF18AF4206D0401CC0B2B042F6D36046002814D0114E271DC8190C366A46294600F006F900280AD168460088012808D0306891
:404A00002946C01900F0D1F8002803D00120F8BD0020F8BDFDF7C0FF30680F34015D491C0155FDF7B3FFF3E774020020F8B50F46002400F031F8002817D10C4900220B46FB
:404A40000C334A600EE021011D680E466A501D680C36AA53B61C1D680F31AA551D68641C6A54E4B2BC42EED31A71F8BD7402002000280BD0C01C074A81085068890053888D
:404A80004118994203D8936851601818704700207047000074020020F8B5064600200F4D009029700C0121466846FEF7D5FC00280CD129460C3100980860301B001F84B210
:404AC00021466846FEF7C8FC002801D0FF20F8BD6C800098A8600020F8BD000074020020F8B5002827DB19490978884223DA174C05010C342168485900281CD028460C3012
:404B0000085A009028460E300E5C401C0E5420682F1DC01900F064F800280CD12068002445590EE0094829460C300068C01900F03CF8002801D00120F8BD00982D18641CEC
:404B4000E4B2B442EED30020F8BD00007402002030B50D4604000BD0A800FFF789FF6060002805D000202570C0436080002030BD012030BD70B50D46040005D0002D03D07F
:404B80000220205E002801DA012070BDFDF704FF0221615E60688900405828606088401E6080FDF7F3FE002070BD70B50D46040007D0002D05D002212078615E401E814272
:404BC00001DB012070BDFDF7E7FE6088401C00B26080616880000D50FDF7D8FE002070BD10B5040009D0227800216068FEF7A4F90020C0436080002010BD012010BDF0B5E5
:404C000000231D46002802D00224045F0AE00120F0BD46689F00F6598E4201D1012503E05B1CDBB29C42F4DA15700020F0BD00000148007870470000880200207CB50546CC
:404C40000024FEF7ADF9A8796946087000A8062229460130FEF767F90021684604F054FA0C2804D0072804D01F2804D004E0022402E0042400E0272420467CBD10B500F09E
:404C8000F3F8FFF759FAFFF75DFA10BD01460120002902D0502008800020704701460120002905D0034854220078504308800020704700008902002010B503240CF088FACE
:404CC000002810D10CF02CFA00280CD104F0B2FF002808D100F0C4FA002804D104F098FC002800D10024204610BD70B50025044600280ED0A07901280BD8FEF751F9A07944
:404D00000028204602D002F059FE03E002F01EFE00E00125284670BD014610B50120002904D006220248FEF7FEF8002010BD00008A02002001460120002903D008780249E9
:404D400008700020704700008902002038B504460120002C20D0617801291DD800290BD0FF25E535FEF71CF90C4828180088C0B22070072803D00EE0FF25CD35F2E7002054
:404D8000694608706846FFF7F1F969460878012801D108202070002038BD000000102E4070B504460120002C1FD06178012902D92278092A19D8002905D0FF25E5352078AE
:404DC000092803D004E0FF25CD35F8E708202070FEF7E6F82078084E082807D00020FFF701FA2078A9190880002070BD0120FFF7F9F90720F6E7000000102E4070B50D4603
:404E0000040001D0002000E00548002802D0012102F0BAF82946204602F040FB70BD0000CC080020F8B50546002004460D4E009013E022466946284600F010FF00980028E9
:404E400001D00CF0A7F9A878214602F0A1F9A878214602F08FF9641CE4B2308AA042E8D8F8BD00008409002038B5FFF765F9042819D0052817D006281AD0032837D00728FA
:404E80000AD100206946087002460120FFF77EF8FFF752F90128FBD138BDFDF76DFEFFF74BF90128F8D0FFF747F90128F5D138BD02F0BCF905E0FDF75FFEFFF73DF90128FA
:404EC00003D0FFF739F90128F5D10C49088A01220B4B8407A40F1A70022CE8D15B88002BE5D010430882088A9043088238BD02F0A1F90120FFF750F938BD0000001A2E40CC
:404F000096020020F8B50646002402F03DFE0546304602F053FE03460A480021068A0DE001228A401046174628401F40002803D0002F01D1224394B2491CC9B28E42EFD8AD
:404F40002046F8BD840900201CB50020694648706846FFF7FBFE01AA69460A20FFF716F86946042008561CBD10B50C4601F044FA002809D00179002906D0C1788078224689
:404F800002F012FB002010BD022010BD0148007870470000A40800204030C07E002800D00120704700B500F001F800BD8C2148430749084A40186030417F491CC9B24177DF
:404FC000D289914201D300214177C8B270470000AC0800208409002013B501F00DFA04000BD001F08EFD002807D0214601AA0A310620FEF7CBFF00201CBD02201CBD0000E4
:4050000010B50C4601F0F8F900280AD001F079FD002806D0224604490A20FEF7B7FF002010BD022010BD00008D080020F3B581B0074601460026029802F09EFD0446002FC2
:4050400001D0002500E0154D002D21D0284601F009FA032C04D13946029802F0E9FD06463846029902F086F8032C06D0002C10D00121384601F0F4FA03E03146384602F054
:40508000C7FF284601F066FF0221284601F07CFFFEBD3846029902F06DF8FEBDCC08002010B5044603F0CAFB002801D00C2010BD2078611C02F07AFBFF2801D01F2010BD56
:4050C00002F0C0FBFF280AD02178621C01F0E0FF044821780068026B601C904710BD072010BD0000AC02002010B503F0A7FB002801D00C2010BD02F03BFB03480068C06A2E
:405100008047002010BD0000AC02002070B50D46044610210BF07EFF1021601806460BF079FF334610221946204603F0B3FB102130460BF06FFF02202870204604F0C0F92C
:4051400070BD0000F8B504464078217802028006870FE0781143A67809050002090D0643084601F049F900210546F2B2002812D0002C10D0022F0ED0032F0CD0002A0AD099
:405180000279092A07D0002A05D0134A5A23527E1B5C9A4207D82889002104F0C6F820460BF0F8FFFF21002914D10C48224600682946436930469847C0B2FF280AD128460F
:4051C0004030817EF2B2491C8176FF232146284600F0DDF8F8BD000064080020C40200200020704710B5044603F028FB002801D00C2010BD2078611C02F0D8FAFF2808D097
:4052000002F010FA044821780068426B601C904710BD1F2010BD0000AC02002010B504F0F7F900F057F9002010BD10B5044600786178E2780843A178114308432179084306
:405240006179084305D003F0EBFA002803D00C2010BD122010BD204602F0B0FB002010BD10B5FDF7B9FB02F0B1FC044803F050FB02F0E2F9012000F003F810BD74080020A1
:40528000F1B586B003A8009005A8019025489F22817A114081726846FDF79CFE00283FD169460989C90705D01F4806990068C2686846904769460989890706D500282FD1E1
:4052C0001A480068816A06988847002828D1184E0025757075737571F575357675767575B570F570B5713746F5730120BC3738731F20F880FF2130467972A03001754575B7
:4053000000F040FA00242046069901F0BBFB002803D1641C2406240EF5D0FD72BD72B57307B0F0BD64080020C4020020AC020020AC08002070B505460E46084602F024FC74
:405340000446304602F03AFC0121A9400A46224001400A4301D0012070BD002070BD10B50446084602F02AFC0121A140014201D0012010BD002010BD10B5FEF7DDFE032867
:4053800004D101F057FF0120FEF706FF10BDFEB51C4616460F46054601F0DCFDA878FFF701FE02460190334639460094284600F00DF8002808D1A8780199FFF71FFDFF2C39
:4053C00002D138460BF0E6FEFEBD0000FFB585B005460E980C46FF2810D02B49C00009680A5840180179C0795278814201D9012601E09006860F6846038108E06078A178D8
:405400008006860FE0780002014368460181284601F082FB070007D021462846079A00F0B1FB384609B0F0BD304600F05FFC04AE0346039002AA29460096204600F0EBFA98
:405440003C20405D002818D0284601F065FB012813D0684600890096C0B20190A878231DFF22079901F0CEFF68460089039BC2B2A878079902F01EFBD3E768460089002183
:40548000C0B20091E9E70000C0020020F8B5104F002500242846FFF735FD060012D00EE03046E040C007C00F07D02146284601F059FE21462846FFF7B9FD641CE4B2388AFD
:4054C000A042EDD86D1C2D062D0EE2D0F8BD00008409002010B502F0AFF80020FFF7D0FE0BF0EEFE002010BDF8B5002400F07EF80123012800D10124104F00203E46203611
:405500000425082203E0002801D0002100E031460979002907D001290BD002290BD0114681402143CCB2401C0006000EEBD07C70F8BD1C43F7E72C43F5E70000AC08002015
:4055400010B5FFF7D1FF10BD10B50B4681791943817103D08078114602F07AFA10BD10B582798A43827102D1807802F085FA10BD30B50C4C0220A28A0B4B9978002901D0AB
:40558000022906D11D785B78EB18282B01D9032002E0032900D101205105490DC0020143A18230BDC0112E409102002000B500F023F8002807D0012805D0032801D0042895
:4055C00001D0002000BD012000BD014600B50020C90701D000F00AF800BD014600B50020C90701D000F002F800BD000001480088000A704720102E400448008B410501D52C
:40560000042070474007800F7047000000102E4038B50446000610D5FFF7EEFF01280CD1684601F00DFE6846007800F0AFFA012001F0FCFC0220FFF783FF0348006801694F
:405640002046884738BD0000AC02002010B5034A0178117002F00EF9002010BD9102002070B50446FFF7C2FF002801D00C2070BDA27B01211F48002A827801D00A4301E04C
:405680005208520082706279012A14D0C17849084900C170184D2868016820468847207901280CD06188208802F02AFF2080207904280FD015E0C2780A43C270EAE728682E
:4056C000C168E01D8847E01D02F064F90B48808C208006E02868C168E01D8847E01D02F059F9074920798870204602F0D1F8002070BD0000AC080020AC0200206408002041
:405700009102002008B50178FFF770FF814201D10C2008BD002914D0072069460870FFF745FF012807D10121684600F08BF8012801D0092008BDFFF71BFF02F0DDF80120DC
:4057400011E0FFF733FF012806D1684601F078FD6846007800F04EFA02F0C4F8FFF746FF0028FBD10220FFF7EBFE002008BD000010B5034A0178517002F04AF9002010BD6D
:405780009102002038B568460BF09AFC002801D01F2038BD01210098C90201804180002505714571857107214173857302F070F8009C202200212046FDF7BEFB25702A468A
:4057C0000021601CFDF7B8FB204602F053F8204602F01EF900980BF0DDFC042200210248FDF7AAFB002038BD910200200346084800B5834209D8184600F0FEFD002804D0BC
:405800000089984201D1012000BD002000BD0000FF0E0000074A9179491C8906890E917138220A4092014907090E11430843024908407047AC080020FF0E0000C006C00E87
:4058400070470000F8B507460E4600240D4803E0002C01D0002500E005462979002905D0641C2406240EF3D00020F8BD0021204601F008F92E712046FFF7CCFF28813C70D2
:405880000120F8BDCC08002010B503F037F80222002100F003F801F07BFE10BD10B5094B40074907000F090F185A595A40185043C0086421FDF706FA002800D1012080B25C
:4058C00010BD0000343E0100F7B53D20405C88B016460C46002829D030786946087200252046FFF759FB012800D00125204603A938300191009023460327A17E34332A46D2
:40590000206A03F01FF802A8089900900B46019120463A4603A9243002F09EFF02466846007A3070204601F099F810460BB0F0BDFFB587B00C4605461078694608723D2054
:40594000005D1746002826D000262046FFF724FB012800D00126204603A93830019100902346A17E34333246206A02F0EBFF02A80090291D019120462B1D03A924300A9AC1
:4059800002F06AFF02006846007A388002D1204601F064F810460BB0F0BDF0B505463C20405C89B016460C4600280CD0307869460873002806D000272046FFF7EDFA012830
:4059C00003D003E01F2009B0F0BD012703200890204604A93830019100902346E17E34333A46E06902F0AEFF6846007B03A928180290009120462B46019504A92430089AED
:405A000002F05CFF02466846007B3070204601F02FF81046D7E7FFB505463C20405C89B016460C46002810D0084601F075F801280BD0308869468883002809D000272046E0
:405A4000FFF7AAFA012805D005E000200DB0F0BD0220FBE70127204603A93830019100902346E17E34333A46E06902F06BFF291D2B1D07A8129A6D4607C5204603A9243035
:405A80000C9A02F01BFF02466846808B3080204600F0EEFF1046D9E770B50D460446FFF77BFA01280AD0E87AA97A00020143A07801F06AFC012808D0002070BD002224210B
:405AC000204602F067FC242070BD28214C200155204600F0A3FB282070BD0000002801D0002000E003484030C07F012800D0002070470000CC0800200146002049070ED5B5
:405B00000021084B03E0002901D0002200E01A461279022A04D0491C0906090EF3D0704701207047CC0800200146002049070ED50021084B03E0002901D0002200E01A4609
:405B40001279022A04D0491C0906090EF3D0704701207047CC08002010B5044680346068002803D00BF02AFB0020606010BD403041707047403081707047403001707047EE
:405B80000171704792001018C166704770B53C2501F060F9040004D020460021433001F0A7FBFF222946204600F0D0FB002C02D0A07801F0D1F870BD10B5002801D0002063
:405BC00000E00348002802D0008903F0F5FB10BDCC08002010B5002801D0002000E00448002804D00179072901D100F047F810BDCC08002010B501F02DF9002802D0807813
:405C000001F0AAF810BD00207047000070B50546008A00281ED01049F122897A1140C90618D5294640314A8A098A521C4A4392B2D10800D10121540801E0621A94B2A0426E
:405C4000FBD9FEF7F5FF012804D1298AA878224601F060FC70BD00006408002010B50023054C0B60248A944204D992001018C26E0A60C36610BD00008409002038B50446F5
:405C800000200090A079002814D14020015D052901D00E290ED168460BF022FA002809D12046009902F05EFB03481021C28A2046FFF74AFC38BD00006408002010B50B4629
:405CC00004460146184601F0E7FF002802D020460BF06AFA10BD13B5044601AA11460620FEF754F96846818861811CBD002800D10220704770470000F8B504462346401D1E
:405D0000543300909A1EA078911E01F0A3FA25464035A88A298A8000FCF7D4FF401E81B2688A884203D96982A07801F0F5FE20460021433001F0DCFA27480088E88102F011
:405D4000DDFDE989891C8AB26179FFF7A7FD01F01FFC02F0D3FD2A8A6179FFF79FFD074601F00AFC688A002806D01C49088A032212021043088202E0002001F0C1FE174842
:405D8000803801886E8A002E0CD0304648431449FDF788F80004000C01D0401C80B21149488002E00F4800214180288A704381B2A07801F03BFEFF2228374932B9B2134689
:405DC000204602F0A1FBE98AA07801F09FFDA07801F0F0F9F8BD000080102E40E0112E4071020000960200207FB504468034616805460E46183108226846FDF794F83146B6
:405E00002031082202A8FDF78EF8102168460BF001F96068102108300BF0FCF860682B46083024331022694602F034FD7FBD10B504460821FFF793FB10212046FFF78FFBF4
:405E4000207905281FD006281DD008281AD12189002003F029FA072020712046FFF79CF8014620464030012913D00E21017000210176204600F082FF2046FFF76DFE204649
:405E8000FFF7C4FE10BD20890122002103F0F0F9E1E70521EAE70000FFB581B01F4604460821FFF75CFB10212046FFF758FB2079082803D0092804D0042203E004220125F5
:405EC00001E009220025204600F012FE264600204036307022712046FFF73EFE0398002D02D0012808D00BE001280AD120890022029903F0BDF904E02189029803F0D4F9BD
:405F0000012700203076012F04D0204600F036FF05B0F0BD02983073204602F067FA054605480121C28A2046FFF70EFB002DEFD109202071ECE700006408002070B50C46A4
:405F40000546FFF729F8012809D108212846FFF706FB0023012221462846FFF79DFF70BD10B5044600F0C4FD2046FFF7F5FD00214034217010BD70B505461A24FFF70CF8AB
:405F8000012809D108212846FFF7E9FA0023012221462846FFF780FF70BD0000F8B50446002000900E4668460BF09AF8002801D00D20F8BD8420005908212030009D00F09D
:405FC00016FA20460421383000F011FA002E02D1204600F0C9FD2946204602F052F90E480821C28A2046FFF7AFFA204600F037FF25464035002808D0204600F023F800289F
:4060000001D0092028700020F8BD08202870204600F0A0FFF7E7000064080020014610B540310A460978082906D0092907D00A2901D100F091F810BD0B20107010BD00F0C9
:4060400001F810BD70B50446007925464035052805D0062803D008280FD00C2070BD03220621204602F096F90D480821C28A2046FFF76AFA1120287010E00620287320468A
:4060800002F0B4F90646AA8A0A20424301212046FFF75AFA002E01D109202071002070BD6408002038B504460020009068460BF017F8002801D00D2038BD2046009D00F000
:4060C000ADF908202071204600F04EFD2946204602F00AF900213D2001550F2040210855204600F037FF002038BD00B5024600F0FFFC10214032117000BD10B50446FEF7A7
:406100004BFF012809D04020005D112805D100231A4606212046FFF7BFFE10BD10B5FFF786FE10BD38B504460021684600910AF0D7FF00280CD12046009902F04CF90548BC
:406140000821C28A2046FFF7FFF90D204034207038BD00006408002038B504460021684600910AF0BDFF002801D00D2038BD2046009902F025F905480821C28A2046FFF70F
:40618000E3F90C2040342070002038BD6408002000787047F8B50025002801D0002400E01A4C002C28D0204600F0ABFC002823D0207903281CD005281CD026464036B18AAC
:4061C000A07801F03DFCB078012815D10021204601F07FFD274680373868002802D00AF0EDFF3D600020B0702079072805D007E0042000E006202071F8BD2046FFF706FD5E
:406200000221204600F0C0FEF8BD0000CC08002010B54C22115400F04CF810BD10B50446FF21FFF79CF909202071A07801F02EFC10BD000038B5FF216A461180002801D02A
:40624000002400E0084C002C0DD011460620FDF79DFE684601882046FFF73DFD03480068C1692046884738BDCC080020C402002010B504468079002809D022214C200155F5
:40628000FF212046FFF76BF9204600F012F810BD10B5037902464032002B03D01173092B02D003E0002100E02221117300F001F810BDFEB50446008900270090278120796F
:4062C00026464036002817D0012815D002280AD112E002AA01A9204601F0CCFC002807D101980AF061FF204601F0ECFC0028F0D02046FEF797FDB776254680352868002825
:4063000002D00AF05BFF2F606868002802D00AF055FF6F60317B002915D0009800F060F8A078002100F05AFF2046FFF7ADFAA07801F014F8A07800F00FFD0B20FFF700F95F
:4063400000F04CFCFEBD1F213173E6E7F8B517460E46054602F0CEFA04003CD020460C3000F0B6FF2046062200211830FCF7E4FD2046062200211230FCF7DEFD164822466F
:4063800000683946436A28469847074626702846FEF702FE012148406070002D10D02889608028464030C1782171002E0FD169796171018AE180418A2181808A608106E009
:4063C0000648008BC005C00F2071002060803946204602F0ECFEF8BDAC02002000102E400A4610B50146002002F0FEFF10BD10B50AF0ECFB10BD000000B50146FFF71EFA28
:40640000002801D0002000E00348002802D002898A4200D0002000BDCC08002038B5044680346068002806D168460AF069FE002801D100986060606838BD000010B501464A
:4064400000F06AFB0128887802D0FEF7AFFD10BD8C214843024940186030007F10BD0000AC08002070B5054604464035A87F012811D1A1788C20084A484380186030067F23
:406480003046FEF757FF002805D10220A877A078314601F00DF870BDAC08002010B50C4CA07A002813D0FEF7F1FF0A48027F417F408B00F09BFB012809D10020A07200F026
:4064C000C3FE05498989090B01D000F033FA10BD68090020AC080020A0102E4070477047490510B5490F0B00FCF718FF060704080C0C0F073E21FFF78BFE10BD0821FFF72A
:40650000C7FE10BDFFF7D5FE10BDFFF7B1FE10BDF8B507460025002D01D0002600E0204E00F072FE3046403044890021418100F075FE304600F0E5FA01282BD1A00702D5EF
:406540002846FFF727FEE00602D52846FFF772FEA00601D5FEF79AFF600601D500F0F8FA200602D5284600F01DF8600702D5284600F024FA380402D52846FFF72BFB780496
:4065800002D52846FFF718FBE00703D021463046FFF7A6FF6D1C2D062D0EBCD0F8BD0000CC080020F8B5002801D0002400E0244C002C42D025464035A87801283DD1FF277A
:4065C0008820493700593E46002805D01D49897A890601D5878AC68A2046FEF7DDFC01282BD002F08BF92A8A6179FFF757F9009000F0C2FF00983346283081B23A46204605
:4066000001F082FFE98AA07801F080F90E4801886E8A0E4F002E11D0304648430C49FCF741FC0004000C01D0401C80B27880288A704381B2A07801F0F9F9F8BD0020F5E77F
:40664000CC0800206408002060112E4096020020710200000149096809680847C402002070B50D460026194A0146002801D0002401E014462034002C26D0204600F04CFA7D
:4066800001280AD18C20484380186030007FFEF751FE002801D101F033FE0D48006881692046884700280CD020464030817EA94202D3491B817600E086762089294602F0E2
:4066C00034FE204600F046FC70BD0000AC080020C402002070B503460088FFF78DFE040013D000F00EFA00280FD02079092819D02546997840352973204601F077FE064634
:40670000A878012803D0AA8A02E0022070BDEA880A20424301212046FEF716FF002E01D109202071002070BD0EB5002217216B460292198100905A810120029B00990AF066
:40674000DDFD0EBDF8B518480024807A002822D1164E0025B089000B22E0204600F0D8FD1249A039401807882A462146384600F03DFA012810D00E480122478305770A4982
:4067800044778A72002D01D0002000E02030002801D000F0DFFBF8BDB089000B641CE4B20028DAD1F8BD000068090020A0102E40AC08002010B50088FFF71EFE002809D097
:4067C000014640310C460978082905D00B2903D00C2010BD022010BDFFF734FC002801D009202070002010BD70B503460088FFF703FE040008D0254640352878082805D006
:406800000B2803D00C2070BD022070BD8420005910220830991CFCF786FB2046FFF7E4FA2878082804D02046FFF796FC002801D00A202870204600F08DFB002070BD000068
:4068400010B50C46002121700088FFF7D5FD03000BD000F056F9002807D00948F121807A0840C00603D4112010BD022010BD022020701A8A1889002102F0D2FD002010BDEE
:4068800064080020F8B50F46002100910088FFF7B3FD040012D000F034F900280ED0E079410641D4617E02264A07002A08DB8907402500291ADA2843E07135E00220F8BD8D
:4068C00002F018F80021017021894180A1898180217E4170E189C1803E7005460178134802F078FA284602F03FFD1DE0204600F019F9012806D068460AF0F2FB002803D0B2
:406900000720F8BD2A20F8BDE07900992843E071204601F095FD607E0421304360760448C28A2046FEF710FE0020F8BD1D040000640800203EB500220F236C4602922381E5
:4069400000910190628169460EC900200AF0D6FC3EBD0000F8B50F46054600F07BFA040025D003202071254600264035EE76E6702046FFF7C1F900F0B5FF0920FEF7E0FDD1
:40698000A07800F0D9FC0121204600F0FDFA2E706E70AE703A4600212046FFF7D7FC0649887B401C8873A078FFF754FEF8BD284601F06CF8F8BD0000AC08002010B500282A
:4069C00001D0002400E00A4C002C0FD020464030417802290AD1002141702046FEF7DCFA002803D10221204600F0CEFA10BD0000CC08002070B503460D460088FFF7FCFC94
:406A000004000BD000F07DF8002807D01248F121807A0840C00603D4112070BD022070BD20464030418A008A491C41430804C10C5888884201D2122070BD208220790728E8
:406A400002D12046FFF7E2F8022028702089002102F00EFD002070BD64080020016A491C016204D1817E491C4906490E81767047C169491CC16104D1C17E491C4906490E23
:406A8000C1767047F8B500260746002801D0002400E0134C002C07D012480068826820469047050002D018E00220F8BDA77066762746267140373E70204600F019F82046F1
:406AC00001F0FCF8084820820848BE77807AF121084000D001202075E682E8B2F8BD0000CC080020C4020020B80B000064080020002101628176C161C1762030017741772C
:406B000070470079002805D0012803D0022801D001207047002070474030807F002800D00120704740300078002807D0012805D0052803D00E2801D00120704700207047A8
:406B400010B5807801F03AF8002800D0012010BD10B500F079FB03498989090B01D0FFF7E9FE10BDA0102E4070B5054604464035A87F002825D1FF206075A0788C21154A8F
:406B8000484380186030417F8C23491CC9B24177A0785843104B8018DB896030994201D300214177A0788C21484380186030467F0677A1783046FEF7BDFB002802D00120E8
:406BC000A87770BD0220A877A078314600F070FC70BD0000AC080020840900200020401C0006000EFBD0002070470000F0B515468207920F85B0000A02926A469080002D53
:406C000001D0002400E0524C002C28D0084600F07FFB07466846808800280BD00298012843D0022841D003280BD03D20005D012870D087E04748381801882046FFF74BF857
:406C400080E00020029002A80AF02AFA002807D03D20005D012878D12046FFF7FFFE74E06846029E8388324600213846FDF7A0F83848381801882046FFF72DF8284600F02E
:406C8000A5FA01AA21463046FEF71EFE002806D030460AF075FA3D204C21085528E0F5773146204601F064F94FE0002000902089039068460AF0E4F9002802D0002005B08A
:406CC000F0BD6846009E8388321D00213846FDF76FF82048381801882046FEF7FCFF284600F074FA25464035287E00280CD103E02046FFF793FA28E001AA21463046029B60
:406D0000FEF716FE002806D030460AF02FFA3D202873EDE713E00298FEF7ECFF01460398307003980901000A0843707068468088B070000AF0703046FFF7F6FC05E0204635
:406D4000FFF78CFE284600F041FA0120B7E70000CC08002000102E4010B5074A917B002901D0491E91730021FFF78CFE002801D0002010BD012010BDAC080020F8B50746FF
:406D800006464037B87F00282DD0B0788C2100904843234945186035287F0099FEF7DFFA01281ED0287F401CC4B21E48C089A04200D800240020B877FF276F772F77A8771B
:406DC00002460146009800F0DFFC717DFF2903D0304600F034FF777501F092FA0025114F19E00320B877F8BD00200090224669463046FEF733FF0099002904D0FF231A46B5
:406E00003046FEF7C4FA641CF889E4B2A04200D800246D1CEDB2F889A842E5D8F8BD0000AC0800208409002010B502460021084B03E0002901D0002000E01846047994421F
:406E400004D0491C0906090EF3D0002010BD0000CC08002000B50120FFF7E6FF00BD10B5044601F047FD2189018080346168416061682831816002F031FA10BDF7B506462F
:406E8000087982B00C46092807D0A078F0770846FFF742FE012806D010E030460AF084F9022005B0F0BDA1788C20294A484380186030007FFEF73EFA012810D0A078FEF7B5
:406EC0000DFE01280BD037780121304601F0C4F925462035062F38D00B2F0FD107E06846027C21463046FEF7E9FE0D20D9E72046FEF752F8012801D1002028772046FFF703
:406F00009DFA054604AA21463046FEF746FD01205F2108556946097C002001910090A07833463A46294600F06DFA69460A7CA0780323294600F0BEFDA0782946FDF75EFFFC
:406F400030460AF031F90020ABE70120D5E70000AC08002010B502464032937F0021002B03D1927E002A00D00121064A927A002A00D000210279092A00D10121807800F037
:406F8000B1FD10BD6809002070B50C460546FEF703F8002813D1012C0ED928464030817800290CD14078022809D02879092806D02846FFF7C5FD0446002C02D004E001243C
:406FC00002E0A87DC007FAD1204600F0D3FC70BD012807D0082804D104480282034808300180704701488038FAE70000A0102E40014908817047000000102E4010B50446FF
:40700000FF20F130012C01D1FF20D530002200F09FFD044A108A044980B2A0430880108210BD000000102E409A020020034B198A034A89B2814311801982704700102E4036
:407040009A02002010B50446012802D0082C07D102E0FF20D53001E0FF20F13000F070FD0348018A034A89B221431180018210BD00102E409A020020034B198A034A89B264
:40708000014311801982704700102E409A020020F8B505460120A84086B214460F46012231467C2000F054FD3A463146782000F04FFD6078267800020643E078A278000210
:4070C000024360792379000203430C2045430D2080010549281844182680001D44182280001D40180380F8BD00102E40CB065B0E0343480901021943D00108430121C9021D
:40710000084301490881704780142E404278037812021343084A1382C37880781B021843908248780B78000203431383C8788978000201439183704700142E40024A108064
:40714000000C90801181704700142E40044A002180180288491C89B21029FAD37047000000102E40024A10820148803081817047A0102E4010B5054A1082084600F00CFD21
:40718000024A0021A03A8018018010BDA0102E4010B50B46044600F005F819462046FFF7E1FF10BD024A10820148803001817047A0102E4010B504490882FF200022202183
:4071C0001D3000F0C5FC10BDA0102E40000202494D3008807047000000102E4010B5084B074C0202A03B0029208202D075321A8010BD04490020088088807632F7E70000A7
:40720000A0102E40201A2E4000B5034908884880FFF70CFF00BD00009A02002000B502484088FFF729FF00BD9A02002010B5FCF76DFF10BD014952200880704700102E40ED
