:400000000040002011000000390300003903000080B500AF00F094F980B500AF224B12221A6001F0E9F8214B181C00F0D9FF012001F0F2F8302000F0E3FF1D4B1D4A1A60D6
:400040001D4B8022D2051A601C4B1C4A126802210A431A601A4B1B4A1A601B4B1A4A126808218A431A60FA23DB00181C01F014F8164B181C01F064F8154B164A1A60164B56
:40008000164A1A60164B802212061A60154B8022D2021A60144B40221A60074B8022D2051A60BD4680BDC04630001040001BB70004010B40060000800C020B4078002E4054
:4000C0007C002E402D3E00006CF02E40DC05000000030140007FBB000000014040FF008008010B4000010B401C01014080B582B000AF72B63A4B00221A60FB1D00221A7061
:4001000023E0FB1D1A78131C5B009B185B00354A9B183B603B681A78597809020A43997809040A43DB781B061343191C3B681A795B791B0213439BB2081C191C00F084F955
:40014000FB1D1A78FB1D01321A70FB1D1B78012BD7D9254A254B101C191C00F085F9244BEE2212061A60234BC02292051A60224B992212041A60214B992212041A60204B7F
:40018000802212061A601F4A1E4B1B78DBB202210B43DBB213701C4A1B4B1B78DBB23C218B43DBB214210B43DBB21370154A154B1B78DBB216210B43DBB21370134BD82295
:4001C00012041A60124B80221A60124BC02212041A60FFF721FF00F087F9BD4602B080BD6CF02E40802001008C20010094200100000002400003024000500F4030500F40ED
:4002000038500F4000700F4001700F4008000440000304400803044010B5064C2378002B07D1054B002B02D0044800E000BF0123237010BD8004002000000000442001000C
:4002400008B5084B002B03D00748084900E000BF07480368002B00D108BD064B002BFBD09847F9E7000000004420010084040020C80000200000000080B500AF62B6064B6E
:40028000181C00F061F900F045FE044B181C00F0F5FA01F0A1FBFCE7A1020000C502000080B582B000AF786039607B68012B02D0282B00D003E0002000F0DEF9C046BD46F3
:4002C00002B080BD80B584B000AF786039607A68D8235B009A420CD10F23FB18002001211A1C00F03BFB0F23FB181B78181C00F003F8BD4604B080BD80B582B000AF021C93
:40030000FB1D1A70FB1D1B78012B07D0022B09D0002B0DD1002000F02BFE09E0FA2000F027FE05E0FA235B00181C00F021FEC046BD4602B080BDC04680B500AFFEE7C046A0
:4003400080B586B000AF224B7B61224B3B61204B7B6135E03B691B68FB603B695B68BB603B699B683B6000237B600CE0FB681A68BB681A60BB680433BB60FB680433FB6099
:400380007B6804337B607A683B689A42EED13B69DB683B6000237B6008E0BB6800221A60BB680433BB607B6804337B607A683B689A42F2D13B6910333B617B69013B7B61F4
:4003C0007B69002BC6D101F091FAFFF755FFFEE7010000003C26010080B582B000AF154B144A126801218A431A6000237B600FE07B68032B04D8104B7A689200D35800E0DD
:400400000E4B0F4A796889008B507B6801337B607B682F2BECD9FFF769FE0A4B00221A60044B044A126801210A431A60BD4602B080BDC046000010400000000039030000FF
:4004400000000020C000002080B582B000AF786039607A683B68101C00211A1C01F084FABD4602B080BDC04680B586B000AF7860396000233B6100237B612FE07B699B00AF
:400480007A68D3181B68BB600F23FB18BA681A70BB68FF229343BB6018E03B695B003A68D3181B781A1CBB68D318191C3B695B003A68D3185B780B703B6901333B610F239B
:4004C000FB181A780F23FB18013A1A700F23FB181B78002BE1D17B6901337B617B69012BCCD9BD4606B080BD80B500AF054B03221A60054B03221A60044B00221A60BD4649
:4005000080BDC0463000304030003140000E3F4080B500AF064B00221A70064B00221A70054B00221A7000F009F8BD4680BDC046331E00202C1E0020321E002080B500AF6A
:4005400000F098F9BD4680BDB0B594B004AF78603E23FB1800221A802823FA183E4B111C1A1C1423081C111C1A1C01F0F4F93B4B1B78002B04D1FFF7CBFF384B01221A7068
:400580007B68002B5DD0364B7A681A603E23FB181B88002B29D11023FB181C22BA185A601023FB182022BA181A601023FB1800221A812023FB181B221A802023FB181B2240
:4005C0005A802023FB1804221A711C23FB1800221A703E23FC181023FA180E23FB18101C191C01F0CDFA031C23803E23FB181B88002B2AD13E23FC181A481B49AE231A01DF
:400600002823FD1805230093184B01936E23FF3302932B1C01F012FA031C23803E23FB181B88002B11D1124B01221A703E23FC18104B181C0E2108220CF000FF031C238002
:4006400003E03E23FB1801221A803E23FB181B88181CBD4610B0B0BD702201009C040020401300200D0B000048130020802E01002A1E00200823010090B585B000AF021C08
:40068000FB1D1A70FB1D1B78022B04D90E23FB1801221A804BE0294B1B78042B42D1284B1B78DBB21A1C042313403BD1FB1D1B78002B0BD1234B1E221A82224B5B682022B1
:4006C0001A80204B5B6830225A8010E0FB1D1B78012B0CD11B4B96221A821A4B5B68C822D2001A80174B5B688022D2015A80164BFA1D12781A700E23FC18124B181C0AF05A
:40070000F9FF031C23800E23FB181B88002B08D10B4B1B78DBB204221343DAB2084B1A7005E004E00E23FB180422FF321A800E23FB181B88181CBD4605B090BD2A1E002033
:40074000331E00201C010020321E002080B584B000AF78600A1CFB1C1A700023BB60BB68002B20D07B689A79BB681A700F23FB1800221A7012E00F23FB181B780133BA6874
:40078000D3180F22BA18127879688A5C1A700F23FB181A780F23FB1801321A700F23FB181B78052BE7D9BD4604B080BD80B582B000AF78607B681B789AB27B6801331B7881
:4007C0009BB21B029BB213439BB2181CBD4602B080BDC04690B585B000AF78600F23FB1800221A707B689B890B22934237D17B681A1D7B680F217C18101C00211A1C4023C9
:400800000CF06AFE031C23700F23FB181B78002B1DD17B685B68181CFFF7C8FF031C1A1C022313409BB2002B08D0104B1B68822251007A68081C111C984708E00B4B1B6857
:400840000622FF32111C7A68081C111C9847084B1B78DBB201229343DAB2054B1A700F23FB181B78181CBD4605B090BD40130020331E002080B500AFBD4680BD80B582B08E
:4008800000AF7860024B7A681A60BD4602B080BDA004002080B584B000AF0F23FB1800221A700E223B1C1A813B1C0F22BA181A603B1C01229A803B1C181C002100220023CE
:4008C0000CF00AFEBD4604B080BDC04680B584B000AF78601F4B1B68002B37D00E227B689B899A4232D17B681B89012B2ED17B685B681B78022B29D87B681A1D7B68101C93
:4009000000211A1C40230CF0E7FD031E1ED10823FB187A6812881A800823FB1800229A707B681A1D0823FB185A600A4B1B68D82251000822BA18081C111C9847064B1B780A
:40094000DBB201229343DAB2034B1A70BD4604B080BDC046A0040020331E002080B586B000AF3A60FB1D021C1A70BB1D0A1C1A701623FB1801221A803B68002B22D0FB1D81
:400980001B78002B1ED1BB1D1B78012B1AD10E220823FB181A81BB1D1B789AB20823FB189A800823FB183A681A600823FB18181C002100220CF05AFD031E03D11623FB184D
:4009C00000221A801623FB181B88181CBD4606B080BDC04690B585B000AF78600F23FC187B68181CFFF7F6FE031C2370144B1B78DBB21A1C012313401FD10F23FB181B782E
:400A0000002B16D00823FB1812229A707B689A890823FB181A800823FB180F22BA181278DA707B680822BA181868111C0BF062FF03E07B6818680BF0E1FFBD4605B090BD28
:400A4000331E002080B582B000AF7860BD4602B080BDC04680B500AF044B00225A70034B00221A70FFF716FFBD4680BD301E002080B582B000AF7860BD4602B080BDC04667
:400A800080B500AFBD4680BD80B584B000AF78600E23FB1800221A707B689B79002B1CD10F23FB1800221A7012E00F23FB181B787A68D35C002B04D00E23FB1801221A7067
:400AC0000BE00F23FB181A780F23FB1801321A700F23FB181B78052BE7D90E23FB181B78181CBD4604B080BD80B582B000AF021CBB1D1A80BD4602B080BDC04680B582B066
:400B000000AF7860BD4602B080BDC04680B588B000AF021C3960FB1D1A70CA4B1B78DBB201221343DAB2C74B1A70FB1D1B78712B00D96BE19A00C44BD3181B689F46102350
:400B4000FB1807221A701023FB1800225A701023FB18181C02F03CFE1023FB1807221A701023FB1801225A701023FB18181C02F02FFEB64B1B68181CFFF786FF031E11D0DD
:400B8000B24B1B68181C00F02BFFB04B1B68181C0021FFF7DBFDAD4B1B68181C0121FFF7D5FD36E0AA4B1B781A1C3F231A40A94B1B78191C3F230B409B011A43A64B1B78B7
:400BC000191C1F230B401B031A43A44B1B78191C7F230B405B041343BB61BB69DAB2A04B1A70BB691B0ADAB29D4B5A70BB691B0CDAB29B4B9A709A4B181C00F0F1FE984BF5
:400C0000181C0021FFF7A2FD954B181C0121FFF79DFD03200AF026FC0C23FB183F221A700C23FB1800225A700C23FB18181C0AF037FC8C4B04221A70E9E03B68181CFFF7AA
:400C400017FFE4E03B681A78874B1A70DFE03B687B617B691B78002B18D17B695B78002B0BD1824B0022DA80804B00229A807F4B7F4A1A607B697D4A5A60724B1B78DBB2E3
:400C800001229343DAB26F4B1A70C0E0BFE06D4B1B78DBB21A1C202313400ED1754B1B78102B02D1734B0522DA70734B1A78714B101C191C0AF0E6FCA9E0A8E03B68181CE8
:400CC000FFF71CFFA3E03B68181CFFF717FF654B02221A709BE0634B04221A7097E0614B1B78022B34D0574B1B78DBB21A1C012313402DD0534B1B78DBB21A1C0423134085
:400D00000BD0584B03221A704E4B1B78DBB204229343DAB24B4B1A701AE04A4B1B78DBB21A1C082313400BD04E4B04221A70454B1B78DBB208229343DAB2424B1A7007E064
:400D4000484B1B78032B03D1464B04221A705EE05DE03B681B88181CFFF7C6FE57E0464A3B68111C1A1C0223081C111C1A1C00F0F2FD3D4B00221A703F4B1B78B4335A0071
:400D80003E4BD31805333E4A111C1A1C0223081C111C1A1C00F0DFFDFFF772FE37E0FFF759FE34E03B685B88162B05D81E23FB183A6852881A8003E01E23FB1817221A802E
:400DC0003B681E22BA1811881A8800231204120C1B0C1B041343181C0BF098FD17E03B68181CFFF7F7FD12E0164B1B78DBB21A1C0123134004D03B68181CFFF767FD06E089
:400E000005E03B68181CFFF71DFE00E0C0460D4B1B78DBB21A1C112313400FD0094B1B78DBB201229343DAB2064B1A70154B1B68FA1D11783A68081C111C9847BD4608B007
:400E400080BDC046331E002020240100380100207CF1FF0F7DF1FF0F7BF1FF0F78F1FF0F300100202A1E00202C1E0020A4040020281E002084010020301E0020802E010025
:400E8000281E00204013002080B500AF104B8022D2041A600E4B0E4A12681A60002000F04BF80B4B0A4A12681A600A4B0C221A60012000F087F8084B31221A60FA235B006D
:400EC000181C00F047F8002000F052F8BD4680BD00012040240120402801204090B583B000AFFC1D00F085F8031C2370084B084A126801210A431A60FB1D1B78181C00F050
:400F00007CF80120182100F041F8BD4603B090BD0000204080B500AF064B1B78002B04D1FFF7B2FF034B01221A70FFF7D7FFBD4680BDC046AC04002080B582B000AF78601D
:400F4000034B7A681204120C1A60BD4602B080BD0801204080B582B000AF7860034B7A681204120C1A60BD4602B080BD1401204080B582B000AF7860034B7A681204120CB3
:400F80001A60BD4602B080BD0C01204090B585B000AF786039600F23FC1800F02AF8031C2370074B3A68796891400A1C1A600F23FB181B78181C00F020F8BD4605B090BD55
:400FC0000800204080B582B000AF7860024B7A681A60BD4602B080BD38012040000000000230800803D00138FDD1C046C046C0467047EFF3108072B6704780F310887047F7
:4010000090B58BB000AF78602723FC18FFF7F1FF031C2370184B1A680C23FB181A60174B1A680C23FB185A607B68033B144AD35C1A1C0C23FB189A60124B1A680C23FB18F1
:40104000DA601C23FB18104A1A600C23FA181C23FB185A600D4B1C22BA181A600C4B0D4A1A600A4B1B682723FB181B78181CFFF7C4FFBD460BB090BD08010B4000010B4059
:40108000E825010030001040B6EA000008001040040010401700008080B584B000AF78600023FB60154B154A126801210A431A60134B144A1A60144B134A12688021090217
:4010C0000A431A607B68002B12D01023FB600CE0012000F035F800F019F8031E02D00023FB6005E07B68013B7B607B68002BEFD1FB68181CBD4604B080BDC04660F02E4013
:4011000078002E400220000010002E4080B582B000AF054B1B68012213407B607B68181CBD4602B080BDC0460C002E4080B582B000AF021CFB1D1A7001BEBD4602B080BDDF
:4011400080B582B000AF021CBB1D1A80BB1D1B88044A12785343181CFFF742FFBD4602B080BDC0469401002080B500AF0E4B0E4A126801218A431A600B4B0B4A1268022108
:401180008A431A60094B094A126830218A4310210A431A60054B054A126807218A4301210A431A60BD4680BD00F02E4000FF2E4080B500AF0E4B0E4A126802218A431A6036
:4011C0000C4B0C4A126807218A4302210A431A60084B084A126830218A4320210A431A60034B034A126801210A431A60BD4680BD00F02E4000FF2E4080B500AFFFF7B4FF0E
:40120000044B044A1268802109060A431A60BD4680BDC04600F02E4080B584B000AF78600C4B1B6801221340FB607B68002B02D0012B03D005E0FFF797FF06E0FFF7B8FFFE
:4012400003E00020FFF772FFC046FB68181CBD4604B080BD00F02E4080B582B000AF78600A1CBB1C1A80BB1C1A887B681A60BD4602B080BD80B582B000AF78600A1CBB1CDD
:401280001A80BB1C1A887B681A60BD4602B080BD80B582B000AF304B1B78DBB21B022F4A1278D2B213437B602D4B1B78DBB21B022C4A1278D2B213433B603B682A4A934230
:4012C00007D17B68072B04D1284B3B6004237B6009E03A68D4231B019A4204D17B68042B01D1224B3B60224B3A681A60214B7A681A60214B1B78DBB21B02204A1278D2B26F
:4013000013437B607A6880239B019A4202D07B68002B01D11A4B7B601A4B7A681A601A4B1B78DBB21B02194A1278D2B213437B607B68174A934206D07B68164A934202D0AF
:401340007B68052B01D1144B7B60144B7A681A60BD4602B080BDC046D9F0FF0FD8F0FF0FDFF0FF0FDEF0FF0F580B0000580D00006C002E4074002E40DBF0FF0FDAF0FF0F00
:401380000220000078002E40DDF0FF0FDCF0FF0F0F0F000005050000050F000080002E4080B582B000AF021CBB1D1A80BB1D1B88181CFFF7C5FEBD4602B080BD80B500AF62
:4013C00000F0DEF8BD4680BD80B500AF00F0E2F8BD4680BD80B500AF00F0DCF8044B181C00F09CF8032000F0A5F8BD4680BDC046DD15000080B500AF024B181C00F07CF899
:40140000BD4680BDDD15000080B500AF0223FF33181CBD4680BDC04680B582B000AF78602B23181CBD4602B080BDC04680B582B000AF78602B23181CBD4602B080BDC046F5
:4014400080B582B000AF78602B23181CBD4602B080BDC04680B582B000AF78602B23181CBD4602B080BDC04680B582B000AF78602B23181CBD4602B080BDC04680B582B0CD
:4014800000AF78602B23181CBD4602B080BDC04680B582B000AF78602B23181CBD4602B080BDC04680B582B000AF78602B23181CBD4602B080BDC04680B500AF2B23181CF5
:4014C000BD4680BD80B582B000AF021CFB1D1A702B23181CBD4602B080BDC04680B582B000AF786039602B23181CBD4602B080BD80B500AFBD4680BD80B582B000AF78604F
:4015000000F048F87B68181C00F008F8032000F011F800F035F8BD4602B080BD80B582B000AF7860024B7A681A67BD4602B080BD0000002090B585B000AF021CFB1D1A70B0
:401540000623FB600B23FC18FFF753FD031C23700A4B0A4A1268C0218A43111CFA1D1078FA689040021C0A431A600B23FB181B78181CFFF742FDBD4605B090BD0CE400E0E7
:4015800080B500AF024B802252011A60BD4680BD00E100E080B500AF024B802252011A60BD4680BD80E100E090B583B000AFFC1DFFF71FFD031C2370074B074A1268042123
:4015C0008A431A6030BFFB1D1B78181CFFF715FDBD4603B090BDC04610ED00E080B500AF10F01CFDBD4680BD002243088B4274D303098B425FD3030A8B4244D3030B8B4253
:4016000028D3030C8B420DD3FF22090212BA030C8B4202D31212090265D0030B8B4219D300E0090AC30B8B4201D3CB03C01A5241830B8B4201D38B03C01A5241430B8B423D
:4016400001D34B03C01A5241030B8B4201D30B03C01A5241C30A8B4201D3CB02C01A5241830A8B4201D38B02C01A5241430A8B4201D34B02C01A5241030A8B4201D30B027E
:40168000C01A5241CDD2C3098B4201D3CB01C01A524183098B4201D38B01C01A524143098B4201D34B01C01A524103098B4201D30B01C01A5241C3088B4201D3CB00C01A75
:4016C000524183088B4201D38B00C01A524143088B4201D34B00C01A5241411A00D20146524110467047FFE701B5002000F0FCF802BDC0460029F7D003B5FFF775FF0EBC3A
:401700004243891A1847C04603460B437FD4002243088B4274D303098B425FD3030A8B4244D3030B8B4228D3030C8B420DD3FF22090212BA030C8B4202D31212090265D016
:40174000030B8B4219D300E0090AC30B8B4201D3CB03C01A5241830B8B4201D38B03C01A5241430B8B4201D34B03C01A5241030B8B4201D30B03C01A5241C30A8B4201D399
:40178000CB02C01A5241830A8B4201D38B02C01A5241430A8B4201D34B02C01A5241030A8B4201D30B02C01A5241CDD2C3098B4201D3CB01C01A524183098B4201D38B01F9
:4017C000C01A524143098B4201D34B01C01A524103098B4201D30B01C01A5241C3088B4201D3CB00C01A524183088B4201D38B00C01A524143088B4201D34B00C01A524144
:40180000411A00D201465241104670475DE0CA0F00D04942031000D34042534000229C4603098B422DD3030A8B4212D3FC22890112BA030A8B420CD3890192118B4208D38A
:40184000890192118B4204D389013AD0921100E08909C3098B4201D3CB01C01A524183098B4201D38B01C01A524143098B4201D34B01C01A524103098B4201D30B01C01AE9
:401880005241C3088B4201D3CB00C01A524183088B4201D38B00C01A5241D9D243088B4201D34B00C01A5241411A00D20146634652415B10104601D34042002B00D549422C
:4018C000704763465B1000D3404201B5002000F00BF802BD0029F8D003B5FFF715FF0EBC4243891A1847C0467047C0460E4B70B500251E1C0D4CE41AA410A54204D0AB002B
:40190000F35898470135F8E710F086FE084B00251E1C084CE41AA410A54204D0AB00F35898470135F8E770BD2426010024260100242601002C26010030B50024944208D06F
:40194000035D651C0C5DA34201D0181B02E02C1CF4E7002030BD002310B5934203D0CC5CC4540133F9E710BD031C8218934202D019700133FAE77047134A1088810703D06C
:401980008107890F401A001D11791030484381B25088820703D08207920F801A001D800040180A494030098980B2CA0701D0503080B2890706D504495422091F09785143D5
:4019C000081880B270470000A2010020B004002010B501F06BFE10BD10B500F04BFA10BD10B50749044609780220002907D1204601F093FE002802D1204609F029FE10BD5B
:401A00000803002070B504460120002C12D02368002B0FD0616800290CD0074D06222889208118462968FFF796FF6968606809780170002070BD0000B0040020FFB585B09D
:401A4000002768460E9D07734B481C460078002802D0082009B0F0BD10990F9801900095029105A807C800F0F9F80028F2D16946264603AB84460873002C19D0002115E0ED
:401A80008A00B75A082F09D990198078002805D0083FB7521878401C187005E0002912D00027B75290198770491CC9B2A942E7D360460028CED110990F9801F0ABF9002851
:401AC00004D00120C6E701208446F1E701F0EEFD294900200861284805990C30016021888180022D03D3A1798171A17AC17100211EE0481C19E082008B00A75AE65ABE4629
:401B0000BE4211D26F463E80B4461E190296B678BE7001967646E6521719029EBB78B3706646A652019EBE70401CA842E3D3491CA942DED3114800906846037B22460799EE
:401B4000069800F011F9002884D168460A4C007B60700A4801F0C8FD0028B3D1204607490C3006F0F5FD0028ACD106F00FFE0028A8D1012121706DE79C010020B004002092
:401B8000F8B5054633480E460078002802D002242046F8BD002E5BD000242F49002D16D02A89D0070DD02868002808D003881B3BE12B04D24088FB2801D81B2801D20124EA
:401BC00009E0900707D56868002804D1F7E70020088108604860002CDAD11F482F8907811C481B21801D018041800421017119490020891C0870F80705D016480622801DFB
:401C00002968FFF7A8FE1449B80703D56A681148127882700F480D46801D0860001F486001F0A0FD0B48801D01F08EFD28890CF0FFFC28890CF064FE03461033FFF79CFE99
:401C40001F21C018890140180249308088809FE701249DE79C010020B0040020FFB58446384F1C460020BB883F78054602460646002F12D100290FD0029999420CD3614631
:401C8000002909D0002C07D00A99002904D0FF230B996E33994202D2012004B0F0BD002144E0AB001F19BF78002F3BD0E35A002B38D07B43591889B22B0000F047F8050411
:401CC00010161C253100A7782388BC46FF27233BEB37BB4222D26346032B1FD322E0A388002B1FD0302B19D31CE02389002B19D0282B13D316E0A289002A13D01346124FB5
:401D0000233BBB420AD20DE0268A002A0AD033460D4F233BBB4201D2964203D901200EE0002001E000280AD16D1CEDB2099B9D42B7D31C2463435B1802998B42ACD89642AF
:401D4000AAD8AAE79C010020BAFF000030B47446641E2578641CAB4200D21D46635D5B00E31830BC18470000FFB583B0002469460C801F4606468C80002806D00598002854
:401D800003D004983043800701D0012467E0022FFBD93449049809888842F6D3FFF72AFBFFF712FB00F010FC002856D100F04CFD002852D12C49084601F060F805042D0C00
:401DC0004BD12A480499066081800021C18007810C98007AC00704D0684601F06FFC040007D10C98007A800703D501A801F06EFC0446BF1DFEB2002C21D13146059800F04F
:401E00005DF804001BD10CF089FD0406240E16D16A461088928808368518144AF1B29088D288AEB29319984207D3401B801A80B201F014FB050007D000E0FF25012400F02C
:401E40005BFA002D04D008E0F8B200F01BF9F6E700F07EFA06490120087000F0C7FB204607B0F0BDA0010020A91F0000BC040020B001002010B503480078012801D101F01F
:401E80008FF910BDB001002070B5084B0446DA889E8800205518B54206D81D68AA182260DA885118D98070BD032070BDBC0400200148008970470000BC040020F0B587B0C1
:401EC00007460D4600208900009006916846FFF7DBFF844600285DD1304800990160002117E02E4B88001A680629115406D22C4C0419667882185670628805E0C419203C80
:401F0000A67A8218567022891B68C018491C4280C9B2A942E5D300242DE0601CC2B2059025E01E4FA30039689600581840887118039604904E88B04217D938466F46FE807D
:401F4000B6464F786E4677710297049F4F800168039F5E18767879184E700168764659184E800068029F18184770521CD2B2AA42D7D30598C4B2AC42CFD36046002809D112
:401F800068460699FFF780FF8446002802D1054900980860604607B0F0BD0000B401002050260100B80100207047000010B5002809D005494A68002A05D0011F0878800081
:401FC000105801F0F9F910BDB401002010B50446FFF76EFFC0B2801DA0420CD307484068002808D0A100405801F058F9002801D00470001D10BD002010BD0000B401002027
:40200000F8B516460D460446FFF752FFC0B2801DA04203D20020C0430090F8BDB2B2E9B2684601F061F90099481C03D0024AA000526811500098F8BDB4010020F8B507469A
:40204000FFF736FF801DC6B20A49002005460C680DE06178002907D06188B94202D32078FFF7B4FF002804D1241D6D1CEDB2B542EFD3F8BDB401002010B5002801D0FFF7D1
:4020800095FF10BD70B506460948002504680BE06178002905D062882078121D0023FFF7AFFF241D6D1CEDB2B542F1D370BD0000B4010020FFB581B00A9C16002BD000F080
:4020C000F1F80546042826D0214F002C0BD02046FFF7B4FF2901C919486000281BD022460499FFF738FC1A4928010E5046187481019805707D20029CC000444300F0C0F899
:40210000009004280AD000F055FAA0420ED800F051FA201A06E0FF2005B0F0BD204600F0ADFA0020B08135720020F5E700F042FA074600F0B9FA381B87B23846012100F0FD
:40214000EFF800980101024808188781E6E70000C8040020F8B5060117483418217A042903D0A089002802D018E00020F8BD00F021FA054600F098FA00F0A2F804280DD05E
:4021800001010D480F18B88941198DB2002100F0C7F80020B881284600F070FA6068064D002801D0FFF768FF042020720020A8516081A081D9E70000C8040020FEB500260F
:4021C0006A46304601232549050169180D7A042D02D0898900291BD000211154401CC0B20428F0D300246846005D002830D01B4821010818418947680568029100210160B6
:4022000041600422418102728181002E02D015E01354E3E700F054F804280ED001010F480818019086890021304600F079F8019800218181304600F021FA0126002D07D0BA
:4022400038460299A847002F02D03846FFF714FF641CE4B2042CC6D3FEBD0000C80400200EB5002005216A460090118150810348694600680DF0C3F90EBD0000BC010020D9
:40228000074A0020010189180B7A042B02D08989002903D0401CC0B20428F3D370470000C80400200549002002015218127A042A03D0401CC0B20428F6D37047C804002045
:4022C00030B50A4B04200A4C00210A011219157A042D06D09289002A03D09A4201D808461346491CC9B20429EFD330BDFFFF0000C80400207047000030B50020074C0546C9
:402300000423020111190B72A5504D60401C4D81C0B28D810428F4D330BD0000C804002030B5094C00231A011219157A042D04D09589002906D02D1895815B1CDBB2042BD2
:40234000F1D330BD2D1AF7E7C8040020002070471CB5002469460C70142001902346054A05480DF051F904480068401C00D1FF2420461CBDCD230000BC0100203EB5124A34
:402380000146FF2000230124126800290DD0012914D0042908D104206946009308814B8110460DF02CF980B23EBD6846009304814381694610460DF01DF9F4E768460093BD
:4023C000048143816946EBE7BC01002070B545890468416800890300FFF7B8FC08280509091E22282628002005F0E0F81EE0022908D0C8B22A4621460BF0CCFA2046FFF79F
:402400003BFE13E002202A4621460BF0C3FA2946204600F00DF809E000200CF0DFFD05E02046FFF7CBFE01E0FFF762F8002070BD014B0022DB681847C001002070B54489A9
:4024400005680089022803D0032809D0FF2070BD2246094C0023A46829460120A04708E0FFF7B6FA241DA2B200232946022006F03CF8002070BD0000C001002070470000D0
:40248000024800214160018041807047C001002070B50C46002186B016460391012802D0022859D116E003A9012006F07EF801281BD1039D324621462846FFF74CFA009527
:4024C000287801900220694608814E816846FFF7B5FF41E0214D002B686809D0049004A9022006F062F801281DD0022006B070BD002812D0298840182146FFF72CFA2888B3
:402500000024801980B228806988091D884206D12C801348FFF792FF03E00320E6E788421AD96C6018E004986860E278A378110219430B4A698000231060E356536003233F
:4025400013815181A1788170E178C1706178417021780170042028800020C7E7C0010020080500203EB515460C46022803D004280CD000203EBD00910190022069460881E9
:4025800007484A8100680DF03AF807E00BF002FA044B0022DB6829462046984701203EBDBC010020C0010020014AD16090607047C0010020034801688068081A0A214843D2
:4025C000000970471405002010B5FEF703FF482204490548FFF7BFF903490120C870002010BD00006C260100F407002010B5FEF7E5FE10BD70B5134C2368002B08D0207B1D
:402600001149C20705D04008400020738868A08070BD88680B4AA18880B29268814203D90A4D691A091802E0814202D2411A5118A160A080A0689842EAD30CF0FDFF00F031
:4026400013F870BD14050020C0102E40FFFF000010B508461946FFF7A7FF10BD704710B5FFF780FF10BD000003480021016041608160C1607047000014050020024610B5A7
:40268000FF20002A0CD0FFF7EFFF064C0321207B0843207310010A21FFF72CF82060002010BD00001405002000B504480A21806848430209FFF7D8FF104600BD1405002063
:4026C0000248007B8007C00F704700001405002010B537490868002802DA364B01221A70022290430860344800693149C00B4031096A08425AD0012000F066FA2E482F49A8
:402700007C30FEF7B7FD2A480E216C30FEF7B2FD294820218430FEF7ADFD274814219C30FEF7A8FD2448FF21C131A430FEF7A2FD2148FF212F31B030FEF79CFD1E48204948
:40274000BC30FEF797FD1C481E49AC30FEF792FD1C491948491CB430FEF78CFD16481A49B830FEF787FD14481849CC30FEF782FD114817490830FEF77DFD0F481549A830F0
:40278000FEF778FD0C4814498830FEF773FD0A4812498C30FEF76EFD07481921C9029030FEF768FDFEF774FD002010BDFF2010BD00F02E40D001002000002E4055650000F4
:4027C000320300002F3F00003102000010520000EC160000FA12000031D000003AE3000070B50646581C80B245086D00002408E0304600F0C1F81055000A1119A41C487068
:40280000A4B2AC42F4D3D80705D0D0182038D15CC47FD454C17770BD30B50A4C002100195B1E07E0541864782502545C2C430480891C89B29942F5DB994201D1515C01804F
:4028400030BD000000102E4010B5FF2000F0BCF90F49FF2048700E481021801D41800121417001700A490020C91C4870FFF730FF04000AD100F008F907210648FEF7ECFCB4
:40288000044807211830FEF7E7FC204610BD0000D0010020CC112E4070B5002405465B1E0AE0284600F068F8010A161971702D1D1055A41CADB2A4B29C42F2DB9C4203D1C4
:4028C000284600F059F8105570BD000070B500210A4D5B1E0AE0541864782602545C344346193480001D891C80B289B29942F2DB994202D1515C4019018070BD00102E4036
:40290000F0B50599091FCFB200217E1E0BE0541864782502545C2C43164D45192C80001D891C80B289B2B142F1DBFC0712D01C78515C24020F4A0C4381180C809C785D7818
:40294000001D210280B2294384182180001D80B2D9780CE059781A7809021143054A84182180001DD9789B78090280B2194380180180F0BD00102E40014940180088704723
:4029800000102E4010B50B490020487000F07CF8002000F03FF9002000F02CF907210648FEF75AFC044807211830FEF755FC002010BD0000D3010020CC112E4010B50B46C2
:4029C000062812D006DC01280CD0032801D1FFF7D9FF10BD0A28FCD00B28FAD105480078107010BDFFF730FF10BD1146184600F02DF910BDD6010020F8B5204DAC6A012761
:402A0000A0071F4E002816DA307806280ED1286A384328621B480069F903084381B219481030FEF727FC042000F0CEF8134802212830FEF711FCE00711D0062000F0C4F8D3
:402A40000F49FF20C91E48707078002802D1686B38436863094801212830FEF7FDFBE0050BD53078042802D1052000F0ADF80348FF2101312830FEF7EFFBF8BD40F02E403F
:402A8000D301002000002E4010B503212348FEF7F1FB0120FEF784FC20483038406A204C80076178800F890001431C480C38FEF7E1FB6078002808D0401E0221814018207C
:402AC000FEF708FFC000083800E0B82081B21548FEF7D0FB1348032109021438FEF7CAFB10481149B830FEF7C5FB612189010F48FEF7C0FB0D480321001FFEF7BBFB0C4948
:402B00000C48FEF7B7FB0B480B496038FEF7B2FB084801218838FEF7ADFB10BD70F02E40D6010020D8102E4090890000041E2E40FF0F000058122E402090000008490878F2
:402B400006280BD148780749002803D1486B400840004863C86A01221043C86270470000D301002040F02E400148007870470000D301002000B50300FFF7E8F8080D050D1D
:402B80000B070507090D012000BD032000BD042000BD022000BDFF2000BD0000074A9168D26889B2064B92B2994204D105498A4201D1012100E000210170704780002E405E
:402BC00033D000003FE3000010B50446FEF7FCFB072C01D9FF2C01D102480470FEF7EEFB10BD0000D30100200149487070470000D001002010B5064A012805D01921C9028C
:402C00001046FEF737FB10BD1D21C902F8E7000090002E4010B50A4A141D012808D009491046FEF727FB08492046FEF723FB10BD04491046891CFEF71DFB0349491DF3E7E2
:402C400088002E4031D000003AE300000078074AFF2803D04C2804D9553803E01078087070474F380870107070470000D2010020F0B50122002830D000292ED00224420657
:402C800000D003246D2342065B06D21800D0641C034600221EE00C2516466E43104D00277519AF720E4F002ABB51696007D0661EB24209D106466D367606760E05E05E0613
:402CC000760E8027BE1B00E080269B198919521C2E81D2B2A242DED300221046F0BD000094060020074900200C2242435218927A012A05D0401CC0B20428F5D300207047AD
:402D00000120704794060020F8B5044616460F000BD0184D6868A04203D9FF306E30A04203D3FF206E30864201D90120F8BD2046FEF702FE00281BD0324639462046FEF757
:402D40000AFEF0B200210C224A43521913895668F718A74208D90127A41B1B1B9772834206DAC01A1469C0B2491CC9B20429EAD30020F8BD9406002010B500F05BF80648EC
:402D8000FF22C1686E320C460448FEF7E4FD03492046FFF76DFF10BDDC01002024050020002070470020054A002902D0012902D002E0506000E0906000207047DC0100201B
:402DC00070B5084C154608460549A26889182A46FEF7C1FDA0684019A06028B270BD000024050020DC0100203EB50A226946FFF7E7FF044606480A2200686946FEF79CFDD4
:402E0000002802D00020C0433EBD20463EBD0000DC010020002803D0FF226E32914201D2FF20704702490A61C860002070470000DC0100200248002141608160704700008E
:402E4000DC01002070B5074C15460548626880182A46FFF759FF60684019606028B270BD24050020DC01002010B503490A220968FFF7E8FF10BD0000DC01002010B50F4A74
:402E8000002313600E4A13600E4B18600E4801600E49012008600E490860000290600E490C4808600D4914300860FF381538506000F0BCF800F0CAF9002010BD08020020E1
:402EC000F00100201C020020200200200C020020FC010020C40700200002002014020020014610B50020002910D0094B1A689C685118A14209D25868196080188A0704D047
:402F00008A07920F891A091D196010BD002010BDF0010020F8B50024164E671E321F3D463168136806E01422624310328A58521C1BD0641C9C42F6D36A1C14D02C46142239
:402F4000544322460C3288500C214843FFF7C8FF3168002808510AD031680020103408517068401C70602846F8BD2546E4E73846F8BD000000020020F3B50026F64381B093
:402F800000281BDB1E490968884217D80299002914D01B4F142204463F1D54432546396810354859401C09D0FEF70EFA38682F1F4159C359994203DBFEF700FA3046FEBD3C
:402FC000214608310091465801590C20704308180C220299FEF7BFFC0948761C001D0068C159B14200D100260549009A091D865008684159491C4151FEF7E0F90020FEBD36
:40300000FC010020002803DB07490968884202D90020C043704704491422091D096850431030085870470000FC010020F0B500200D4A451E0346171F50600FE014260146EE
:40304000714314680E1DA3510C461668083433511668083435511468401C635039688842ECD30020F0BD000000020020F3B50026F64381B0002841DB2349096888423DD855
:40308000029900293AD0204F142204463F1D54432546396810354859401C2FD0FEF794F93868415900292BD0211D009146580C21005971430F46C1190C220298FEF74BFC59
:4030C00011480021001D0068761C00590C34C0190160416081600C48001D00680159B14200D100260849009A091D865008684159491E4151FEF762F90020FEBD3046FEBD87
:40310000FEF75CF9FAE70000FC010020FEB504460D4600201E49089E0860471E009001900290002C11D0486885420ED2002A0CD0002E0AD0642E08D808460C3001681C2037
:4031400068430C18207A002801D03846FEBD0120226020721846FFF7DDFE6060401C13D06681A6810A4827610C3067610179A94200D205710021684601810A462846029B0C
:4031800000F040F82846FEBD00202072DDE700000802002038B50124009400F039F838BDFEB50027164EFF433D4600240EE01C20316860430818017A002906D04068FFF79D
:4031C00021FF002801D0254603E0641C3079A042EDDA681C12D01C2130684D434419FEF7F3F869466068FFF741FF0546FEF7E6F8002DD9D1216868468847D5E7FEBD00006F
:403200001402002038B50024009400F001F838BD1FB500220C49541E0A60002811DB496888420ED808491C220C31096850430818406801A9FFF7A0FE401C02D0002004B061
:4032400010BD2046FBE7000008020020F0B50021114A4D1E174611710C3F0B46BD6016E008461C2460431668041D355114680646235014680836A3551468361DA3530446A3
:4032800016680A34335318301468491C255078688142E5D30020F0BD1402002038B500210091002811DB0F49097888420DDA0D4D04010C3529680859002807D0201D0818A5
:4032C000694600F06FF9002801D0002038BDFEF77BF828680F34015D491E0155FEF76EF8009838BD24020020F7B582B0002502986E1E06602E48D21C024017462D4A2C46BA
:4033000010460C380178106805E02301C358002B0FD0641CE4B28C42F7D3711C28D03401211D40180191039900F02AF900281FD101E02646F1E71F48016820460C300F5285
:403340001C480399026820460E30115419480399026820460F3011540398784300F0A0F8144900280968085102D00024009011E001251AE00F48016801980818009900F0A3
:403380002CF9002801D0012502E00098C0190090641CE4B203988442ECD3002D05D10298066004480179491C0171284605B0F0BDFCFF000030020020F8B50D4600216A4622
:4033C0008C461180002839DB23490978884235DA214B04010C3319680A59002A2ED020460C300B5A801C0E5C184670438018954224D3854222D2002006E007465F43BF18A1
:40340000AF4206D0401CC0B2B042F6D36046002814D0114E271DC8190C366A46294600F006F900280AD168460088012808D030682946C01900F0D1F8002803D00120F8BD12
:403440000020F8BDFDF7C0FF30680F34015D491C0155FDF7B3FFF3E724020020F8B50F46002400F031F8002817D10C4900220B460C334A600EE021011D680E466A501D68E2
:403480000C36AA53B61C1D680F31AA551D68641C6A54E4B2BC42EED31A71F8BD2402002000280BD0C01C074A81085068890053884118994203D89368516018187047002002
:4034C0007047000024020020F8B5064600200F4D009029700C0121466846FEF7D5FC00280CD129460C3100980860301B001F84B221466846FEF7C8FC002801D0FF20F8BD5D
:403500006C800098A8600020F8BD000024020020F8B5002827DB19490978884223DA174C05010C342168485900281CD028460C30085A009028460E300E5C401C0E54206884
:403540002F1DC01900F064F800280CD12068002445590EE0094829460C300068C01900F03CF8002801D00120F8BD00982D18641CE4B2B442EED30020F8BD000024020020A8
:4035800030B50D4604000BD0A800FFF789FF6060002805D000202570C0436080002030BD012030BD70B50D46040005D0002D03D00220205E002801DA012070BDFDF704FF25
:4035C0000221615E60688900405828606088401E6080FDF7F3FE002070BD70B50D46040007D0002D05D002212078615E401E814201DB012070BDFDF7E7FE6088401C00B237
:403600006080616880000D50FDF7D8FE002070BD10B5040009D0227800216068FEF7A4F90020C0436080002010BD012010BDF0B500231D46002802D00224045F0AE001209F
:40364000F0BD46689F00F6598E4201D1012503E05B1CDBB29C42F4DA15700020F0BD00000148007870470000380200207CB505460024FEF7ADF9A8796946087000A806222F
:4036800029460130FEF767F90021684604F054FA0C2804D0072804D01F2804D004E0022402E0042400E0272420467CBD10B500F0F3F8FFF759FAFFF75DFA10BD0146012095
:4036C000002902D0502008800020704701460120002905D0034854220078504308800020704700003902002010B503240CF0AAFA002810D10CF04EFA00280CD104F0B2FF91
:40370000002808D100F0C4FA002804D104F098FC002800D10024204610BD70B50025044600280ED0A07901280BD8FEF751F9A0790028204602D002F059FE03E002F01EFE54
:4037400000E00125284670BD014610B50120002904D006220248FEF7FEF8002010BD00003A02002001460120002903D00878024908700020704700003902002038B50446C8
:403780000120002C20D0617801291DD800290BD0FF25E535FEF71CF90C4828180088C0B22070072803D00EE0FF25CD35F2E70020694608706846FFF7F1F96946087801284E
:4037C00001D108202070002038BD000000102E4070B504460120002C1FD06178012902D92278092A19D8002905D0FF25E5352078092803D004E0FF25CD35F8E708202070EC
:40380000FEF7E6F82078084E082807D00020FFF701FA2078A9190880002070BD0120FFF7F9F90720F6E7000000102E4070B50D46040001D0002000E00548002802D001213F
:4038400002F0BAF82946204602F040FB70BD00005C080020F8B50546002004460D4E009013E022466946284600F010FF0098002801D00CF0C9F9A878214602F0A1F9A878AB
:40388000214602F08FF9641CE4B2308AA042E8D8F8BD00001409002038B5FFF765F9042819D0052817D006281AD0032837D007280AD100206946087002460120FFF77EF8E9
:4038C000FFF752F90128FBD138BDFDF76DFEFFF74BF90128F8D0FFF747F90128F5D138BD02F0BCF905E0FDF75FFEFFF73DF9012803D0FFF739F90128F5D10C49088A0122D3
:403900000B4B8407A40F1A70022CE8D15B88002BE5D010430882088A9043088238BD02F0A1F90120FFF750F938BD0000001A2E4046020020F8B50646002402F03DFE054698
:40394000304602F053FE03460A480021068A0DE001228A401046174628401F40002803D0002F01D1224394B2491CC9B28E42EFD82046F8BD140900201CB500206946487020
:403980006846FFF7FBFE01AA69460A20FFF716F86946042008561CBD10B50C4601F044FA002809D00179002906D0C1788078224602F012FB002010BD022010BD01480078E3
:4039C00070470000340800204030C07E002800D00120704700B500F001F800BD8C2148430749084A40186030417F491CC9B24177D289914201D300214177C8B270470000B5
:403A00003C0800201409002013B501F00DFA04000BD001F08EFD002807D0214601AA0A310620FEF7CBFF00201CBD02201CBD000010B50C4601F0F8F900280AD001F079FD43
:403A4000002806D0224604490A20FEF7B7FF002010BD022010BD00001D080020F3B581B0074601460026029802F09EFD0446002F01D0002500E0154D002D21D0284601F0B5
:403A800009FA032C04D13946029802F0E9FD06463846029902F086F8032C06D0002C10D00121384601F0F4FA03E03146384602F0C7FF284601F066FF0221284601F07CFF58
:403AC000FEBD3846029902F06DF8FEBD5C08002010B5044603F0CAFB002801D00C2010BD2078611C02F07AFBFF2801D01F2010BD02F0C0FBFF280AD02178621C01F0E0FF8E
:403B0000044821780068026B601C904710BD072010BD00005C02002010B503F0A7FB002801D00C2010BD02F03BFB03480068C06A8047002010BD00005C02002070B50D463E
:403B4000044610210BF0A0FF1021601806460BF09BFF334610221946204603F0B3FB102130460BF091FF02202870204604F0C0F970BD0000F8B50446407821780202800697
:403B8000870FE0781143A67809050002090D0643084601F049F900210546F2B2002812D0002C10D0022F0ED0032F0CD0002A0AD00279092A07D0002A05D0134A5A23527E40
:403BC0001B5C9A4207D82889002104F0C6F820460CF01AF8FF21002914D10C48224600682946436930469847C0B2FF280AD128464030817EF2B2491C8176FF232146284691
:403C000000F0DDF8F8BD0000F4070020740200200020704710B5044603F028FB002801D00C2010BD2078611C02F0D8FAFF2808D002F010FA044821780068426B601C90474A
:403C400010BD1F2010BD00005C02002010B504F0F7F900F057F9002010BD10B5044600786178E2780843A17811430843217908436179084305D003F0EBFA002803D00C207C
:403C800010BD122010BD204602F0B0FB002010BD10B5FDF7B9FB02F0B1FC044803F050FB02F0E2F9012000F003F810BD04080020F1B586B003A8009005A8019025489F225D
:403CC000817A114081726846FDF79CFE00283FD169460989C90705D01F4806990068C2686846904769460989890706D500282FD11A480068816A06988847002828D1184E91
:403D00000025757075737571F575357675767575B570F570B5713746F5730120BC3738731F20F880FF2130467972A0300175457500F040FA00242046069901F0BBFB002813
:403D400003D1641C2406240EF5D0FD72BD72B57307B0F0BDF4070020740200205C0200203C08002070B505460E46084602F024FC0446304602F03AFC0121A9400A46224048
:403D800001400A4301D0012070BD002070BD10B50446084602F02AFC0121A140014201D0012010BD002010BD10B5FEF7DDFE032804D101F057FF0120FEF706FF10BDFEB52B
:403DC0001C4616460F46054601F0DCFDA878FFF701FE02460190334639460094284600F00DF8002808D1A8780199FFF71FFDFF2C02D138460BF008FFFEBD0000FFB585B0CF
:403E000005460E980C46FF2810D02B49C00009680A5840180179C0795278814201D9012601E09006860F6846038108E06078A1788006860FE078000201436846018128462A
:403E400001F082FB070007D021462846079A00F0B1FB384609B0F0BD304600F05FFC04AE0346039002AA29460096204600F0EBFA3C20405D002818D0284601F065FB0128D4
:403E800013D0684600890096C0B20190A878231DFF22079901F0CEFF68460089039BC2B2A878079902F01EFBD3E7684600890021C0B20091E9E7000070020020F8B5104FD9
:403EC000002500242846FFF735FD060012D00EE03046E040C007C00F07D02146284601F059FE21462846FFF7B9FD641CE4B2388AA042EDD86D1C2D062D0EE2D0F8BD00008F
:403F00001409002010B502F0AFF80020FFF7D0FE0BF010FF002010BDF8B5002400F07EF80123012800D10124104F00203E4620360425082203E0002801D0002100E0314691
:403F40000979002907D001290BD002290BD0114681402143CCB2401C0006000EEBD07C70F8BD1C43F7E72C43F5E700003C08002010B5FFF7D1FF10BD10B50B46817919433E
:403F8000817103D08078114602F07AFA10BD10B582798A43827102D1807802F085FA10BD30B50C4C0220A28A0B4B9978002901D0022906D11D785B78EB18282B01D9032088
:403FC00002E0032900D101205105490DC0020143A18230BDC0112E404102002000B500F023F8002807D0012805D0032801D0042801D0002000BD012000BD014600B50020D0
:40400000C90701D000F00AF800BD014600B50020C90701D000F002F800BD000001480088000A704720102E400448008B410501D5042070474007800F7047000000102E40C3
:4040400038B50446000610D5FFF7EEFF01280CD1684601F00DFE6846007800F0AFFA012001F0FCFC0220FFF783FF0348006801692046884738BD00005C02002010B5034A51
:404080000178117002F00EF9002010BD4102002070B50446FFF7C2FF002801D00C2070BDA27B01211F48002A827801D00A4301E05208520082706279012A14D0C17849086A
:4040C0004900C170184D2868016820468847207901280CD06188208802F02AFF2080207904280FD015E0C2780A43C270EAE72868C168E01D8847E01D02F064F90B48808C76
:40410000208006E02868C168E01D8847E01D02F059F9074920798870204602F0D1F8002070BD00003C0800205C020020F40700204102002008B50178FFF770FF814201D154
:404140000C2008BD002914D0072069460870FFF745FF012807D10121684600F08BF8012801D0092008BDFFF71BFF02F0DDF8012011E0FFF733FF012806D1684601F078FD68
:404180006846007800F04EFA02F0C4F8FFF746FF0028FBD10220FFF7EBFE002008BD000010B5034A0178517002F04AF9002010BD4102002038B568460BF0BCFC002801D0C6
:4041C0001F2038BD01210098C90201804180002505714571857107214173857302F070F8009C202200212046FDF7BEFB25702A460021601CFDF7B8FB204602F053F82046EB
:4042000002F01EF900980BF0FFFC042200210248FDF7AAFB002038BD410200200346084800B5834209D8184600F0FEFD002804D00089984201D1012000BD002000BD00001C
:40424000FF0E0000074A9179491C8906890E917138220A4092014907090E114308430249084070473C080020FF0E0000C006C00E70470000F8B507460E4600240D4803E05C
:40428000002C01D0002500E005462979002905D0641C2406240EF3D00020F8BD0021204601F008F92E712046FFF7CCFF28813C700120F8BD5C08002010B503F037F80222A4
:4042C000002100F003F801F07BFE10BD10B5094B40074907000F090F185A595A40185043C0086421FDF706FA002800D1012080B210BD0000B4260100F7B53D20405C88B082
:4043000016460C46002829D030786946087200252046FFF759FB012800D00125204603A938300191009023460327A17E34332A46206A03F01FF802A8089900900B46019172
:4043400020463A4603A9243002F09EFF02466846007A3070204601F099F810460BB0F0BDFFB587B00C4605461078694608723D20005D1746002826D000262046FFF724FB03
:40438000012800D00126204603A93830019100902346A17E34333246206A02F0EBFF02A80090291D019120462B1D03A924300A9A02F06AFF02006846007A388002D120469A
:4043C00001F064F810460BB0F0BDF0B505463C20405C89B016460C4600280CD0307869460873002806D000272046FFF7EDFA012803D003E01F2009B0F0BD0127032008903E
:40440000204604A93830019100902346E17E34333A46E06902F0AEFF6846007B03A928180290009120462B46019504A92430089A02F05CFF02466846007B3070204601F04B
:404440002FF81046D7E7FFB505463C20405C89B016460C46002810D0084601F075F801280BD0308869468883002809D000272046FFF7AAFA012805D005E000200DB0F0BD64
:404480000220FBE70127204603A93830019100902346E17E34333A46E06902F06BFF291D2B1D07A8129A6D4607C5204603A924300C9A02F01BFF02466846808B3080204649
:4044C00000F0EEFF1046D9E770B50D460446FFF77BFA01280AD0E87AA97A00020143A07801F06AFC012808D0002070BD00222421204602F067FC242070BD28214C20015573
:40450000204600F0A3FB282070BD0000002801D0002000E003484030C07F012800D00020704700005C0800200146002049070ED50021084B03E0002901D0002200E01A467E
:404540001279022A04D0491C0906090EF3D07047012070475C0800200146002049070ED50021084B03E0002901D0002200E01A461279022A04D0491C0906090EF3D0704772
:40458000012070475C08002010B5044680346068002803D00BF04CFB0020606010BD4030417070474030817070474030017070470171704792001018C166704770B53C255B
:4045C00001F060F9040004D020460021433001F0A7FBFF222946204600F0D0FB002C02D0A07801F0D1F870BD10B5002801D0002000E00348002802D0008903F0F5FB10BD22
:404600005C08002010B5002801D0002000E00448002804D00179072901D100F047F810BD5C08002010B501F02DF9002802D0807801F0AAF810BD00207047000070B505467F
:40464000008A00281ED01049F122897A1140C90618D5294640314A8A098A521C4A4392B2D10800D10121540801E0621A94B2A042FBD9FEF7F5FF012804D1298AA8782246F5
:4046800001F060FC70BD0000F407002010B50023054C0B60248A944204D992001018C26E0A60C36610BD00001409002038B5044600200090A079002814D14020015D0529E0
:4046C00001D00E290ED168460BF044FA002809D12046009902F05EFB03481021C28A2046FFF74AFC38BD0000F407002010B50B4604460146184601F0E7FF002802D02046EA
:404700000BF08CFA10BD13B5044601AA11460620FEF754F96846818861811CBD002800D10220704770470000F8B504462346401D543300909A1EA078911E01F0A3FA254668
:404740004035A88A298A8000FCF7D4FF401E81B2688A884203D96982A07801F0F5FE20460021433001F0DCFA27480088E88102F0DDFDE989891C8AB26179FFF7A7FD01F0E4
:404780001FFC02F0D3FD2A8A6179FFF79FFD074601F00AFC688A002806D01C49088A032212021043088202E0002001F0C1FE1748803801886E8A002E0CD030464843144909
:4047C000FDF788F80004000C01D0401C80B21149488002E00F4800214180288A704381B2A07801F03BFEFF2228374932B9B21346204602F0A1FBE98AA07801F09FFDA078DC
:4048000001F0F0F9F8BD000080102E40E0112E4071020000460200207FB504468034616805460E46183108226846FDF794F831462031082202A8FDF78EF8102168460BF086
:4048400023F96068102108300BF01EF960682B46083024331022694602F034FD7FBD10B504460821FFF793FB10212046FFF78FFB207905281FD006281DD008281AD1218969
:40488000002003F029FA072020712046FFF79CF8014620464030012913D00E21017000210176204600F082FF2046FFF76DFE2046FFF7C4FE10BD20890122002103F0F0F966
:4048C000E1E70521EAE70000FFB581B01F4604460821FFF75CFB10212046FFF758FB2079082803D0092804D0042203E00422012501E009220025204600F012FE26460020F6
:404900004036307022712046FFF73EFE0398002D02D0012808D00BE001280AD120890022029903F0BDF904E02189029803F0D4F9012700203076012F04D0204600F036FF38
:4049400005B0F0BD02983073204602F067FA054605480121C28A2046FFF70EFB002DEFD109202071ECE70000F407002070B50C460546FFF729F8012809D108212846FFF776
:4049800006FB0023012221462846FFF79DFF70BD10B5044600F0C4FD2046FFF7F5FD00214034217010BD70B505461A24FFF70CF8012809D108212846FFF7E9FA00230122BA
:4049C00021462846FFF780FF70BD0000F8B50446002000900E4668460BF0BCF8002801D00D20F8BD8420005908212030009D00F016FA20460421383000F011FA002E02D10B
:404A0000204600F0C9FD2946204602F052F90E480821C28A2046FFF7AFFA204600F037FF25464035002808D0204600F023F8002801D0092028700020F8BD082028702046E6
:404A400000F0A0FFF7E70000F4070020014610B540310A460978082906D0092907D00A2901D100F091F810BD0B20107010BD00F001F810BD70B504460079254640350528E2
:404A800005D0062803D008280FD00C2070BD03220621204602F096F90D480821C28A2046FFF76AFA1120287010E006202873204602F0B4F90646AA8A0A20424301212046C5
:404AC000FFF75AFA002E01D109202071002070BDF407002038B504460020009068460BF039F8002801D00D2038BD2046009D00F0ADF908202071204600F04EFD29462046A6
:404B000002F00AF900213D2001550F2040210855204600F037FF002038BD00B5024600F0FFFC10214032117000BD10B50446FEF74BFF012809D04020005D112805D1002316
:404B40001A4606212046FFF7BFFE10BD10B5FFF786FE10BD38B504460021684600910AF0F9FF00280CD12046009902F04CF905480821C28A2046FFF7FFF90D2040342070B1
:404B800038BD0000F407002038B504460021684600910AF0DFFF002801D00D2038BD2046009902F025F905480821C28A2046FFF7E3F90C2040342070002038BDF4070020F2
:404BC00000787047F8B50025002801D0002400E01A4C002C28D0204600F0ABFC002823D0207903281CD005281CD026464036B18AA07801F03DFCB078012815D1002120462F
:404C000001F07FFD274680373868002802D00BF00FF83D600020B0702079072805D007E0042000E006202071F8BD2046FFF706FD0221204600F0C0FEF8BD00005C080020A7
:404C400010B54C22115400F04CF810BD10B50446FF21FFF79CF909202071A07801F02EFC10BD000038B5FF216A461180002801D0002400E0084C002C0DD011460620FDF70E
:404C80009DFE684601882046FFF73DFD03480068C1692046884738BD5C0800207402002010B504468079002809D022214C200155FF212046FFF76BF9204600F012F810BD50
:404CC00010B5037902464032002B03D01173092B02D003E0002100E02221117300F001F810BDFEB504460089002700902781207926464036002817D0012815D002280AD14E
:404D000012E002AA01A9204601F0CCFC002807D101980AF083FF204601F0ECFC0028F0D02046FEF797FDB776254680352868002802D00AF07DFF2F606868002802D00AF041
:404D400077FF6F60317B002915D0009800F060F8A078002100F05AFF2046FFF7ADFAA07801F014F8A07800F00FFD0B20FFF700F900F04CFCFEBD1F213173E6E7F8B51746DE
:404D80000E46054602F0CEFA04003CD020460C3000F0B6FF2046062200211830FCF7E4FD2046062200211230FCF7DEFD1648224600683946436A28469847074626702846C1
:404DC000FEF702FE012148406070002D10D02889608028464030C1782171002E0FD169796171018AE180418A2181808A608106E00648008BC005C00F207100206080394694
:404E0000204602F0ECFEF8BD5C02002000102E400A4610B50146002002F0FEFF10BD10B50AF00EFC10BD000000B50146FFF71EFA002801D0002000E00348002802D00289DE
:404E40008A4200D0002000BD5C08002038B5044680346068002806D168460AF08BFE002801D100986060606838BD000010B5014600F06AFB0128887802D0FEF7AFFD10BD79
:404E80008C214843024940186030007F10BD00003C08002070B5054604464035A87F012811D1A1788C20084A484380186030067F3046FEF757FF002805D10220A877A0780F
:404EC000314601F00DF870BD3C08002010B50C4CA07A002813D0FEF7F1FF0A48027F417F408B00F09BFB012809D10020A07200F0C3FE05498989090B01D000F033FA10BD94
:404F0000F80800203C080020A0102E4070477047490510B5490F0B00FCF718FF060704080C0C0F073E21FFF78BFE10BD0821FFF7C7FE10BDFFF7D5FE10BDFFF7B1FE10BD36
:404F4000F8B507460025002D01D0002600E0204E00F072FE3046403044890021418100F075FE304600F0E5FA01282BD1A00702D52846FFF727FEE00602D52846FFF772FE45
:404F8000A00601D5FEF79AFF600601D500F0F8FA200602D5284600F01DF8600702D5284600F024FA380402D52846FFF72BFB780402D52846FFF718FBE00703D021463046A1
:404FC000FFF7A6FF6D1C2D062D0EBCD0F8BD00005C080020F8B5002801D0002400E0244C002C42D025464035A87801283DD1FF278820493700593E46002805D01D49897A3A
:40500000890601D5878AC68A2046FEF7DDFC01282BD002F08BF92A8A6179FFF757F9009000F0C2FF00983346283081B23A46204601F082FFE98AA07801F080F90E480188FF
:405040006E8A0E4F002E11D0304648430C49FCF741FC0004000C01D0401C80B27880288A704381B2A07801F0F9F9F8BD0020F5E75C080020F407002060112E4046020020B5
:405080007102000001490968096808477402002070B50D460026194A0146002801D0002401E014462034002C26D0204600F04CFA01280AD18C20484380186030007FFEF7E3
:4050C00051FE002801D101F033FE0D48006881692046884700280CD020464030817EA94202D3491B817600E086762089294602F034FE204600F046FC70BD00003C08002034
:405100007402002070B503460088FFF78DFE040013D000F00EFA00280FD02079092819D02546997840352973204601F077FE0646A878012803D0AA8A02E0022070BDEA8831
:405140000A20424301212046FEF716FF002E01D109202071002070BD0EB5002217216B460292198100905A810120029B00990AF0FFFD0EBDF8B518480024807A002822D122
:40518000164E0025B089000B22E0204600F0D8FD1249A039401807882A462146384600F03DFA012810D00E480122478305770A4944778A72002D01D0002000E02030002816
:4051C00001D000F0DFFBF8BDB089000B641CE4B20028DAD1F8BD0000F8080020A0102E403C08002010B50088FFF71EFE002809D0014640310C460978082905D00B2903D0E3
:405200000C2010BD022010BDFFF734FC002801D009202070002010BD70B503460088FFF703FE040008D0254640352878082805D00B2803D00C2070BD022070BD84200059C8
:4052400010220830991CFCF786FB2046FFF7E4FA2878082804D02046FFF796FC002801D00A202870204600F08DFB002070BD000010B50C46002121700088FFF7D5FD0300CD
:405280000BD000F056F9002807D00948F121807A0840C00603D4112010BD022010BD022020701A8A1889002102F0D2FD002010BDF4070020F8B50F46002100910088FFF793
:4052C000B3FD040012D000F034F900280ED0E079410641D4617E02264A07002A08DB8907402500291ADA2843E07135E00220F8BD02F018F80021017021894180A1898180F7
:40530000217E4170E189C1803E7005460178134802F078FA284602F03FFD1DE0204600F019F9012806D068460AF014FC002803D00720F8BD2A20F8BDE07900992843E07105
:40534000204601F095FD607E0421304360760448C28A2046FEF710FE0020F8BD1D040000F40700203EB500220F236C460292238100910190628169460EC900200AF0F8FC1C
:405380003EBD0000F8B50F46054600F07BFA040025D003202071254600264035EE76E6702046FFF7C1F900F0B5FF0920FEF7E0FDA07800F0D9FC0121204600F0FDFA2E7034
:4053C0006E70AE703A4600212046FFF7D7FC0649887B401C8873A078FFF754FEF8BD284601F06CF8F8BD00003C08002010B5002801D0002400E00A4C002C0FD0204640304E
:40540000417802290AD1002141702046FEF7DCFA002803D10221204600F0CEFA10BD00005C08002070B503460D460088FFF7FCFC04000BD000F07DF8002807D01248F12136
:40544000807A0840C00603D4112070BD022070BD20464030418A008A491C41430804C10C5888884201D2122070BD20822079072802D12046FFF7E2F80220287020890021E0
:4054800002F00EFD002070BDF4070020016A491C016204D1817E491C4906490E81767047C169491CC16104D1C17E491C4906490EC1767047F8B500260746002801D00024CC
:4054C00000E0134C002C07D012480068826820469047050002D018E00220F8BDA77066762746267140373E70204600F019F8204601F0FCF8084820820848BE77807AF1218A
:40550000084000D001202075E682E8B2F8BD00005C08002074020020B80B0000F4070020002101628176C161C17620300177417770470079002805D0012803D0022801D076
:4055400001207047002070474030807F002800D00120704740300078002807D0012805D0052803D00E2801D0012070470020704710B5807801F03AF8002800D0012010BDDC
:4055800010B500F079FB03498989090B01D0FFF7E9FE10BDA0102E4070B5054604464035A87F002825D1FF206075A0788C21154A484380186030417F8C23491CC9B2417771
:4055C000A0785843104B8018DB896030994201D300214177A0788C21484380186030467F0677A1783046FEF7BDFB002802D00120A87770BD0220A877A078314600F070FC00
:4056000070BD00003C080020140900200020401C0006000EFBD0002070470000F0B515468207920F85B0000A02926A469080002D01D0002400E0524C002C28D0084600F0AB
:405640007FFB07466846808800280BD00298012843D0022841D003280BD03D20005D012870D087E04748381801882046FFF74BF880E00020029002A80AF04CFA002807D007
:405680003D20005D012878D12046FFF7FFFE74E06846029E8388324600213846FDF7A0F83848381801882046FFF72DF8284600F0A5FA01AA21463046FEF71EFE002806D0A7
:4056C00030460AF097FA3D204C21085528E0F5773146204601F064F94FE0002000902089039068460AF006FA002802D0002005B0F0BD6846009E8388321D00213846FDF76B
:405700006FF82048381801882046FEF7FCFF284600F074FA25464035287E00280CD103E02046FFF793FA28E001AA21463046029BFEF716FE002806D030460AF051FA3D20FC
:405740002873EDE713E00298FEF7ECFF01460398307003980901000A0843707068468088B070000AF0703046FFF7F6FC05E02046FFF78CFE284600F041FA0120B7E7000030
:405780005C08002000102E4010B5074A917B002901D0491E91730021FFF78CFE002801D0002010BD012010BD3C080020F8B5074606464037B87F00282DD0B0788C21009009
:4057C0004843234945186035287F0099FEF7DFFA01281ED0287F401CC4B21E48C089A04200D800240020B877FF276F772F77A87702460146009800F0DFFC717DFF2903D09A
:40580000304600F034FF777501F092FA0025114F19E00320B877F8BD00200090224669463046FEF733FF0099002904D0FF231A463046FEF7C4FA641CF889E4B2A04200D8EB
:4058400000246D1CEDB2F889A842E5D8F8BD00003C0800201409002010B502460021084B03E0002901D0002000E018460479944204D0491C0906090EF3D0002010BD000040
:405880005C08002000B50120FFF7E6FF00BD10B5044601F047FD2189018080346168416061682831816002F031FA10BDF7B50646087982B00C46092807D0A078F0770846AA
:4058C000FFF742FE012806D010E030460AF0A6F9022005B0F0BDA1788C20294A484380186030007FFEF73EFA012810D0A078FEF70DFE01280BD037780121304601F0C4F93F
:4059000025462035062F38D00B2F0FD107E06846027C21463046FEF7E9FE0D20D9E72046FEF752F8012801D1002028772046FFF79DFA054604AA21463046FEF746FD012016
:405940005F2108556946097C002001910090A07833463A46294600F06DFA69460A7CA0780323294600F0BEFDA0782946FDF75EFF30460AF053F90020ABE70120D5E700004D
:405980003C08002010B502464032937F0021002B03D1927E002A00D00121064A927A002A00D000210279092A00D10121807800F0B1FD10BDF808002070B50C460546FEF754
:4059C00003F8002813D1012C0ED928464030817800290CD14078022809D02879092806D02846FFF7C5FD0446002C02D004E0012402E0A87DC007FAD1204600F0D3FC70BDEA
:405A0000012807D0082804D104480282034808300180704701488038FAE70000A0102E40014908817047000000102E4010B50446FF20F130012C01D1FF20D530002200F04A
:405A40009FFD044A108A044980B2A0430880108210BD000000102E404A020020034B198A034A89B2814311801982704700102E404A02002010B50446012802D0082C07D14F
:405A800002E0FF20D53001E0FF20F13000F070FD0348018A034A89B221431180018210BD00102E404A020020034B198A034A89B2014311801982704700102E404A0200204B
:405AC000F8B505460120A84086B214460F46012231467C2000F054FD3A463146782000F04FFD6078267800020643E078A2780002024360792379000203430C2045430D2064
:405B000080010549281844182680001D44182280001D40180380F8BD00102E40CB065B0E0343480901021943D00108430121C902084301490881704780142E4042780378C9
:405B400012021343084A1382C37880781B021843908248780B78000203431383C8788978000201439183704700142E40024A1080000C90801181704700142E40044A0021F0
:405B800080180288491C89B21029FAD37047000000102E40024A10820148803081817047A0102E4010B5054A1082084600F00CFD024A0021A03A8018018010BDA0102E4002
:405BC00010B50B46044600F005F819462046FFF7E1FF10BD024A10820148803001817047A0102E4010B504490882FF20002220211D3000F0C5FC10BDA0102E40000202496E
:405C00004D3008807047000000102E4010B5084B074C0202A03B0029208202D075321A8010BD04490020088088807632F7E70000A0102E40201A2E4000B503490888488093
:405C4000FFF70CFF00BD00004A02002000B502484088FFF729FF00BD4A02002010B5FCF76DFF10BD014952200880704700102E4000210170704700000148008AC0B270473D
:405C8000A0102E4070B5084C049D2082074804890548603006880E8001891180808818806007400F287070BDA0102E40E0112E400148008970470000C0102E4000280FD0B4
:405CC0000D4A108B0870000A4870908B8870000AC8700948203000880871000A48717047064A10880870000A487090888870000AC8701089F0E7000040102E40C0112E4026
:405D0000064B1A8999891B8A0270120A42708170090AC1700371190A4171704760102E40012904D00549098BC90B017070470349403109898907C90FF7E7000000102E4066
:405D4000014840897047000014090020044A10820448028980894843101880B270470000A0102E40140900208C21074B414300B5C918FF2260314A770A7700228A771146DF
:405D800000F01AFA00BD00003C0800208C225043074A10B58018FF21603041770177002181770448418EFF201D3000F0E1FB10BD3C080020F407002000B5044A1082034857
:405DC00080308088022200F003F800BDA0102E4010B50023884201D8081A03E00024E443201A4018044980B2884201D8824200D90123184610BD0000FF7F000070B5547817
:405E0000157824022543D47888232602947834435679127936023243002900D09823044908820348A038181805808480028170BDA0102E40FFB581B014460D4607460A9EE2
:405E40000B9BFFF783FF002E0AD0009333460021049AFCF755FD05484019C45505B0F0BD0021049AFCF732FDF5E700004E02002070B502460448054D808808242C800B4662
:405E80000021FCF723FD70BD14090020A0142E4010B5212402466401044953200880102300212046FCF712FD10BD000000102E40417802780902044B0A431A83C178807874
:405EC000090208439883704760142E40034A1082802001430148803001817047A0102E40054A1082044A6032908B0009000108439115084390837047A0102E4030B5002175
:405F00000F4B0A46012809D0032802D005280AD107E04021198102210A2204E004210C2201E004210D221882054C20342088C0B205460D42FAD022800021198230BD00000B
:405F400080142E4010B5044607480482074801808280032189030820FFF78CFD200202497530A039088010BDA0102E40201A2E40054A1082044A60321183000202494B30EF
:405F8000A039088070470000A0102E40054A491E1082044A60321183000202494C30A03908807047A0102E400349884200D908460249088070470000FF0F000060112E403C
:405FC0000349884200D908460249888070470000FF0F000060112E408823002900D09823084908820748A038191808881070000A507088889070000AD07008891071000A8B
:4060000050717047A0102E4010B51446024606480B46C0880021FCF73FFC012C02D103495420088010BD00001409002000102E40064A11880170090A417091888170090A22
:40604000C1700349542008807047000080142E4000102E400121814010B589B200227C2000F08EFA10BD0000FEB5FF210120FFF7DDFCFF210820FFF7D9FC3020FFF7EEFC84
:406080003F48802101803F483F4D00784007400F02286FD001286BD100202880002211460320FCF78BFC394E3949B08D8882384F002420373248A0300482308F3882204669
:4060C000FFF764FE641C2406240EF3D0B08F38832E48103000F052F9716930690191009069464879C021084369464871684600F07DF900F055F82548214C40304188A034ED
:4061000021838188A1831E49C088C0318880708E38802048002606823920FFF7C5FC184F532038801C490720088354203880E020FFF724FDE820FFF721FDF020FFF71EFDE1
:406140000020FEF7B9F813488682282101838015A0810F48403086815B203880094800784007400F022807D0012801D10B482880FEBDFFE7032090E70848C01CF7E70000D7
:4061800000102E4014090020001F2E40F4070020C0112E40001A2E4080142E40E0230000044800218183018302497420603908807047000060102E40074B1882064B603356
:4061C000988B00090001084399158843002A01D11021484098837047A0102E40F3B50D2284B0920100924A780B78120213430393CA788B78120213434A790979FF2012026D
:4062000011431A4A8C46918B9E460291118B01911649742260390A80154900220F7821E00121124B9140009C603BE3181D8889B21C881B88039E6E407546654064462E4380
:406240005C4026430CD1029B194209D00199D140CB070499DB0F8B4202D1104606B0F0BD521CD2B29742DBD8F8E7000060102E403408002030B50949FF208C8B084A002197
:406280000125137805E02A468A40224204D0491CC9B28B42F7D830BD084630BD60102E403408002010B50446E020FFF767FC20782246401CC3B20021E020FCF7ADFA10BD37
:4062C00042790021012A02D901214171090342790A430179042914D049001143827B032A01D8D2001143427B52010A43817909021143012252031143054A11830088908383
:40630000704711460122920211430222E5E7000000102E4000B50120FFF7A0FB01494120088000BD00102E4000B50120FFF7BCFB01494020088000BD00102E40024A108233
:406340000148603081817047A0102E4010B5044C208204488180028183815143018210BDA0102E40A0132E40034B1882024820388180028070470000A0102E4041780278AA
:4063800009020A4306490A80C2788378120213438B804279007912021043088170470000C0112E40064B1A8A0128114605D051084900914200D01982704701200143F8E7C3
:4063C000001A2E404178027809020A4306490A81C2788378120213438B81427900791202104308827047000060102E40417802780902084B0A431A83C178827809020A4345
:406400009A8341790079090208430249203108807047000040102E404178027809020A4306498A80C2788378120213430B814279007912021043888170470000001F2E4026
:4064400010B50446E820FFF799FB20782246401CC3B20021E820FCF7DFF910BD024A10820248818370470000A0102E40001A2E40024A10820148603081807047A0102E40D3
:4064800010B5044688000521FBF734F904490C8204498880200202497230A039088010BDA0102E40001A2E4003490882000202497330A03908807047A0102E40034908821B
:4064C000000202497030A03908807047A0102E4003490882000202497130A03908807047A0102E40F8B505461C4617460E46084600F06AF8054AB90021431582034AA03AAA
:4065000080180180024880194455F8BDA0102E4053020020054A1082044A6032908B4023984389010143918370470000A0102E40044A118A0223002801D0194300E099438E
:4065400011827047001A2E40074A1082064860300181064A108A0223002901D0184300E09843108270470000A0102E40001A2E40024A801802880A430280704700102E4086
:4065800070B5084BC5182C880023080003D104E040085B1C9BB2C607FAD08C439A4022432A8070BD00102E40024A1018405C8007800F7047530200200249088201488030C9
:4065C00080897047A0102E408000FF3041307047044B02461B8AFF208B4202D902484018805C7047140900204E020020024908820148803000897047A0102E40174902462D
:406600000B680020002B08D10A605207520F012A04D0022A10D0086012207047112292018A80CA80032252020A810122D2024A8140228A8105220DE0092252028A80CA800F
:40664000012252030A810322D2024A81012252028A810422CA810A8270470000140900200A4600B501461046FFF7B2FF00BD38B50C46054600216846009109F06BFA00286A
:4066800004D1009928464C7000F0E4FB38BD10B5044680780021FFF751FE01212046FFF78BF910BD436E002B0CD00B60014660318B781370826E4266CA788A7000218166E5
:4066C00008467047FF20704710B50346446E6033002C04D0846E002C04D0FF2010BD41669A7001E08166DA70002010BD0021416681667047406E002801D000207047FF20DB
:40670000704770B50446C0790D46810610D5DF210840E07100F006FE0570218941804034218A8180618AC180A18A018101F02AFA70BD000010B50446FEF706FF01280AD186
:40674000A1788C20054A484380186030007FFDF709FB012801D000F0EBFA10BD3C080020F8B50E460546FDF72FF9012829D02879042801D0072823D1F079B77900020743AB
:40678000A8783946FFF718FB2C46403401281ED03A46711C284600F078FA02212846FDF7FEFE01212846FFF707F9608A002807D0E07E002804D1032109020820FFF75AF96C
:4067C000F8BD01222421284600F0FCFAF8BD282020732846FEF73AFAF8BD70B50D460646FDF772FE002847D120213046FDF7CFFB3446687840346073E87820220002E081C9
:40680000A9780843E0816879010228790843218A814203D0F1791143F1712082E8790102A8790843618A814203D0F1791143F1716082687A0102287A0843A18AE180814244
:4068400003D0F1791143F171A082A08A218A8000FAF750FF401E618A80B2814200D9608201213046FDF79EFEE87AA97A000201430022304600F016FB70BD0000F8B50C46BD
:4068800005460027FDF7A0F8012847D0284EB07AC00709D02846403000900078002806D0102803D01F212CE01A212AE001272846FEF7CCFA002823D02E4680360822611C9D
:4068C0007068FBF748F87068617A20300172A17A417270682146183008220B31FBF73BF821462846042213313430FBF734F839462846FEF76BF8002810D1002F0FD012E029
:4069000007210322284600F05DFAF28A08212846FDF732FB11212846FDF747FEF8BD06212846FDF745FE009801210176F8BD0000F407002010B5FEF789F810BD38B5044687
:406940000020009020790D46042801D007281BD12046FDF739F8012817D0684609F0FAF8002811D10C486A78807A00991040F12210402075607E082210436076204600F08D
:40698000B3F92046FDF757FE38BD08222421204600F018FA38BD0000F407002070470000F3B581B004460298FEF70AF906462046FEF7BFFD002828D0162E04D32046029995
:4069C00000F0F7F821E025464035287800220300FBF7BCF90E1414140808141414080808080808140298154B017800201F5C8F4204D0401C0728F9D3002A0AD00F49B0007B
:406A000008310A58204602999047029809F0F2F8FEBDA078FFF752FD002301223D212046FDF752FF3D2028732046FFF730FE029809F0E0F82046FEF754F9FEBDC4260100C4
:406A400070B50D460021002801D0002400E00C4C002C14D020464030C177807F032802D12046FEF7A3FE2046FFF764FE162D04D20449A800095820468847FEF7C7FD70BDC9
:406A80005C0800202427010010B5014640310C4609780E2903D1FEF71DF80120207610BD10B54021095C0F2901D1FEF736F810BD4021095C0F2902D10021203041777047E7
:406AC00038B5044600220E4800920D46807AF1210840C0060ED52046FEF73CFD012809D0684609F037F8002803D12046009900F05DF938BD2946204600F05BF838BD000056
:406B0000F407002010B51021FDF741FA10BD10B54978FDF72BFF10BD10B5FEF706F810BD012120304177704710B54021095C0C2901D1FEF70FF810BD10B54021095C0D2955
:406B400001D1FEF703F810BD70B5044600790D46052803D0062801D0082802D12046FDF717FF68784C21085509212046FDF720FD2046FFF78CFD2046FCF726FF0128A078EA
:406B800005D0FFF79BFC2046FEF7FCFE70BDFFF79FFCF8E710B50446FF21FDF7F8F916214C200155A078FFF789FC2046FEF7EAFE10BD70B50C460546FEF7C6FC002802D05E
:406BC0002078687570BD21782846FFF750FD70BD70B5054648780C46032802D12846FDF7E2FE6078122803D110212846FDF7CFF903482146006842682846904770BD000043
:406C000074020020704738B5044600200D46009004212046FDF7BBF968782076E8780002A081A9780843A08168790002E08129790843E081607E04210843607680070CD4F7
:406C4000684608F087FF00281CD12046009900F00FF9607E022108436076E079410611D5BF210840E07100F05DFB00210090017021894180A1898180217E4170E189C180C0
:406C800001F08AF838BD7047704770B50446C07815460A4600280AD00020E070C1B2A078FFF7ACF8A0782946FFF762F970BD0120F3E770B50546042008700C468420415979
:406CC00008222031601CFAF746FE29462046042238310930FAF73FFE0D2229462046FEF7E5FD002070BD000070B5054609200C46087008220021601CFAF736FE287D6070B1
:406D000004480922C07AA07029462046FEF7CEFD002070BDF40700200B4610B501460B20187001221846FEF7C1FD002010BD0000FEB50024164F03E0002C01D0002500E043
:406D40003D462846FFF7D6FC00281BD15F20405D002817D16A4601A92846FFF7A3FC002810D1019869460A7806782946FEF79EFD022E07D1A8780121FFF7CCFB09212846CE
:406D8000FDF716FC641C2406240ED5D0FEBD00005C08002010B50B46122119708178D977014601221846FEF781FD10BD10B50B46132119708178D977014601221846FEF711
:406DC00075FD10BD38B50546002000900C46684608F0C0FE002801D0072038BD00980D210170447002222946FEF760FD002038BD0B4610B501460520187001221846FEF73C
:406E000055FD002010BD0B4610B501460620187001221846FEF74AFD002010BD38B5054600200090684608F095FE002801D01F2038BD009C022020704C20405D6070A878C9
:406E4000E0772846FFF723FC022229462046FEF72DFD38BD10B50B46072119708178D977014602221846FEF721FD002010BD000010B50B460A49044608880C221A704A7994
:406E80005A709870000AD870C8881871000A5871062221461846FEF709FD002010BD0000F4070020F8B50446403417460E460546E289617B8078FFF757FA002F0DD100F028
:406EC00035FAE2896979FDF701FAFFF779F8608A002800D00120FFF72BFBE388A08A984200D90346628A218AA878FFF72FFAA08A218AC000FAF7FEFB0C498882E089E1888A
:406F0000C0080A30081881B21920C001814200D90146A878FFF7ACFAA8783146FFF736F801212846FEF748FDF8BD0000A0132E4000B500F017F800BD10B504468818C01810
:406F4000FF302D300649FAF7D5FB4034401C228A81B28A4200D211465000401AE08210BD7102000040184008704770B505461446100702D5A8B2FDF7E3FFE00702D0280C59
:406F8000FDF75EF870BD70B5044660C8FCF784FCFBF730FB2089C01F0300FAF7D7FE0C07140C181B1E0C0C210C110D0C294630466289FFF7DAFF70BD284600F089FB70BD14
:406FC000FDF784FF70BD2846FCF7D4FD70BDFCF775FF70BDFDF79AFF70BDFDF798FF70BDE8B2FEF7C7F870BDF3B5002187B005910E46039100910191029178490C89204023
:407000000490600712D575484030058A0498400707D50595A80803D1FBF752FB012800D10126294600220420FEF7EAFC200759D56A48A03001896A48CA0704D04289072338
:407040001B029A43428142890D460A43428100220820FEF7D5FC0498000739D5039568062DD55F4B0021403B1A464032508A002825D0D07E002822D15A4F388A5278022A83
:4070800008D00221084301210123574A012953700ED013E0EA04920F062AF5D0012AF3D09A7D0121D20700D1884302221043EBE74E4A118A03231B029943118238821021AC
:4070C0002846884303D1FBF7FBFA012800D10126E80607D50220FBF787FD45480078002800D00126E00732D03C48203007880498C0070CD003993804084303900220394613
:40710000814303D1FBF7DCFA012800D10126B80718D50220FBF768FD314D4035A87CC00710D0687D00280DD0287DE97C884209D2287D30498001096840181130FFF76CF94E
:4071400000206875394600220120FEF759FCE00605D50120FBF738FD1020FEF761FCA0061DD5FEF7A5FD244908800120FBF72CFD2248002202701D49E0390889898B89066B
:40718000C90F002808D0002906D117484270154A108A0221084310822020FEF741FC600602D54020FEF73CFC072069460881059800900398019004984881002E07D06946E0
:4071C0000EC90898002804D0002008F0ADFD09B0F0BD002008F0CCFDF9E7000000102E409C080020001A2E4046020020E0112E406D020020600200205802002040020020B5
:40720000F0B587B0054605A81E461746019100900C9C04AB06AA02A903A800F0C6F82846FEF736FE21463046FEF722FE6846017A0398FEF79BFC05A904A8FEF77FFC68463B
