:400000000040002011000000B90D0000B90D000080B500AF00F0FEFE80B500AF224B12221A6002F06BF8214B181C01F0CDFE012002F074F8302001F0D7FE1D4B1D4A1A6065
:400040001D4B8022D2051A601C4B1C4A126802210A431A601A4B1B4A1A601B4B1A4A126808218A431A60FA23DB00181C01F008FF164B181C01F058FF154BC82252011A60E4
:40008000144B154A1A60154B802212061A60144B8022D2021A60134B40221A60064B8022D2051A60BD4680BD30001040001BB70004010B40060000800C020B4078002E4000
:4000C0007C002E406A2D00006CF02E40DC050000000301400000014040FF008008010B4000010B400401014080B582B000AF72B6424B00221A60FB1D00221A7023E0FB1D64
:400100001A78131C5B009B185B003D4A9B183B603B681A78597809020A43997809040A43DB781B061343191C3B681A795B791B0213439BB2081C191C00F0F0FEFB1D1A784D
:40014000FB1D01321A70FB1D1B78012BD7D92D4BEE2212061A602C4B992212041A602B4B992212041A602A4B992212041A60294B992212041A60284B992212041A60274AD8
:40018000264B1B78DBB202210B43DBB21370244A234B1B78DBB23C218B43DBB214210B43DBB213701D4A1D4B1B78DBB216210B43DBB213701B4BD82212041A601A4B2022CB
:4001C0001A601A4BC42292021A60194B20221A60184B80221A60184BB022D2031A60174B802212021A60164BC02252031A60FFF713FF00F0A3FEBD4602B080BD6CF02E4010
:4002000030480100000002400001024000500F4010500F4020500F4030500F4000700F4001700F400800044000010440080104401801044000020440080204400C02044044
:400240000803044010B5064C2378002B07D1054B002B02D0044800E000BF0123237010BD70050020000000008C41010008B5084B002B03D00748084900E000BF0748036854
:40028000002B00D108BD064B002BFBD09847F9E7000000008C41010074050020C80000200000000080B582B000AF786039607A683B68101C191C00F0FFFB7B68272B0AD0C2
:4002C000282B02D0012B00D009E0064B00221A7000F0FAFA03E0012001F06AFCC046BD4602B080BD9205002080B500AF02F078F8021C8023DB00134019D00E4B1B78032BD1
:400300000BD10D4B1B7801225340DAB20A4B1A70094B1B78181C01F04BFC084B1B685A1C064B1A608023DB00181C02F067F8BD4680BDC0464C1F0020CC0000208C050020FA
:4003400080B500AF01F034FF0E4B181C01F0E4FC0120012101F06AFF0120012101F092FF094B0120191C01F0F3FF012002F07EF880235B00181C01F0BBFF01F0EFFEBD46E1
:4003800080BDC046E9020000FF7F0000B0B584B002AF62B601F048FB2E4B181C02F078FC012001F02BFC012001F002FC2A4B181C00F004FF031C1A1C284B1A80274B1B888C
:4003C000002B07D0254B1B881A1C254B181C111C02F0E2FB3B1D181C03F0A6FB031C1A1C1E4B1A801D4B1B88002B08D01B4B1B881A1C1C4B181C111C02F0CEFB12E03B1D80
:400400001B78191C3B1D5B781D1C3B1D9B781C1C3B1DDB781A1C144B0092181C2A1C231C02F0BAFB00F06EF8FFF78AFF0F4B1B78022B0CD10E4B1B68002B08D00C4B002297
:400440001A600C4B1B78012B01D100F0CBF903F077FBEBE700420100A50200003C1400202842010048420100784201004C1F00208C0500209205002080B582B000AF786043
:4004800039607B689E22FF32934208D0CF22520093420CD0CE225200934210D01CE0134B01221A70124B181C02F0F2FB1BE00F4B00221A700F4B181C02F0EAFB13E00E4B0E
:4004C00000221A800C4B1B88181C00F047F80B4B181C02F0DDFB06E0094A7B68101C191C02F05AFBC046BD4602B080BD9205002098420100CC420100900500200043010039
:400500001843010080B582B000AF124B181C00F02DFD114B00221A700F4B00225A800E4B00229A80BB1D00221A800BE0BB1D1B88094A5B00D3180022DA80BB1D1A88BB1D4A
:4005400001321A80BB1D1B88082BEFD9BD4602B080BDC046790400004414002080B582B000AF021CBB1D1A80064BBA1D12889A80044B1B7808221343DAB2024B1A70BD4601
:4005800002B080BD4414002080B582B000AF021CBB1D1A80144B1B7810221343DAB2124B1A70124B1B78082B03D1104B00221A7005E00E4B1B780133DAB20C4B1A700C4B7A
:4005C0001B78092B05D80A4B1B780133DAB2084B1A70064B1B7804495B00BA1DCB181288DA80BD4602B080BD441400204014002041140020B0B586B000AF734B1B78012287
:400600009343DAB23B1C1A706F4B5B88FF2B13D93B1C1B7801221343DAB23B1C1A706A4B5A883B1C0133181C111C00F00DFF1723FB1803221A7008E0634B5B88DAB23B1C1D
:400640005A701723FB1802221A705F4B1B781A1C0823134018D05C4B1B7808229343DAB2594B1A701723FB181B783A1CD218564B9B88101C191C00F0E7FE1723FB18172248
:40068000BA18127802321A704F4B1B781A1C1023134067D01723FB181B781422D31ADBB201229343D9B21523FB181722BA1812788A181A701623FB18444A12781A7046E0CC
:4006C0001623FB181A781623FB1801321A701623FB181B78082B03D91623FB1800221A701623FB181B78384A5B00D318DB88002B1ED01723FB181B783A1CD1181623FB189F
:400700001B78314A5B00D318DB88081C191C00F09BFE1623FB181B782B4A5B00D3180022DA801723FB181722BA18127802321A70264B1B781622BA1812789A4207D1224BB1
:400740001B7810229343DAB21F4B1A7007E01723FA181523FB1812781B789A42B0D31C4B00221A701B4B1722BA1815783C1C1A785B781B021A4300231204120C1B0C1B047F
:400780001343181C00212A1C231C00F0FBFB031C1A1C114B1A80104B1B88002B08D00E4B1B881A1C0D4B181C111C02F0F5F907E0054B5B881A1C0A4B181C111C02F0ECF92F
:4007C000BD4606B0B0BDC046441400204014002041140020541F00203C14002090430100B843010090B583B000AF304B1B880C339AB22E4B1A802D4B1A8896235B009A42AC
:4008000002D92A4B3C221A80284B1A88284B5A80264B1B88BC1D2748191C01F0EFFF031C2380BB1D1A88FA239800111C02F076F8031C1A1C7B1D1A7012E01F4B1B78082B87
:4008400004D8BB1D1B88181CFFF79EFEBB1D1A88BB1D01321A807B1D1A787B1D013A1A707B1D1B78002BE8D1144B1B685A1E134B1A60124B1B68002B12D1104B0A221A6085
:400880000F4B1B88181CFFF769FE0D4B1B880D4A934205D80A4B1B8814339AB2084B1A80FFF7A8FEBD4603B090BDC046D00000204414002060EA000041140020D40000206E
:4008C00090050020EAFF000080B584B000AF002000F00CFD031C1A1C1D4B1A801C4B1B88002B08D01A4B1B881A1C1A4B181C111C02F052F928E0184B181C02F04DF93B1D55
:40090000181C03F00DF90E23FB1806221A8012E00E23FB181B88013B3A1DD35C1A1C0F4B181C111C02F038F90E23FB181A880E23FB18013A1A800E23FB181B88002BE7D10C
:40094000074B181C02F0A4F9BD4604B080BDC0463C140020FC43010020440100404401004844010080B584B000AF786039607B68432B00D165E002D8262B05D06BE04C2B8F
:4009800032D0542B62D066E0344B1B781A1C344B181C111C02F000F9304B1B78042B22D1304B181C02F074F9012001F001F9002001F024F9C04601F069F8011C2A4B1A6847
:4009C00080231B02134001D0012300E00023CB18002BF0D101F0D4F801F094F901F034F901F00CFB37E036E03B689B891A1C1F4B181C111C02F0D0F80E23FB1800221A801D
:400A000013E03B685A680E23FB181B88D3181B781A1C174B181C111C02F0BEF80E23FB181A880E23FB1801321A803B681B890E22BA1812889A42E4D30E4B181C02F028F94B
:400A400009E00D4B181C02F023F904E00B4B181C02F01EF9C046BD4604B080BD4C1F00204C440100844401000802244090440100AC44010048440100B4440100D0440100CE
:400A800080B586B000AFF860B9607A6000237B6109E0BB685A1CBA601B78181C00F0E0FF7B6901337B617A697B689A42F1DB7B68181CBD4606B080BDB0B584B002AF78600F
:400AC00039607B68252B00D16BE019D8052B3DD00AD8022B3FD002D8012B32D020E1032B42D0042B45D01BE1222B4CD002D8212B44D015E1232B4BD0242B00D197E00FE1B0
:400B0000402B00D1B0E00ED8282B00D186E003D8272B00D174E003E1292B00D19BE02A2B00D176E0FCE0422B00D1EFE000D2E2E0702B00D1EFE0E0221202934200D1F7E0DC
:400B4000EEE07D4B181C02F0A3F8F2E07B4B181C02F09EF8EDE03B681B781A1C784B181C111C02F019F8E4E0764B181C02F090F8DFE0754B181C02F08BF8DAE0734B181C63
:400B800002F086F8D5E0724B181C02F081F8D0E03B685B681A1C6F4B181C111C01F0FCFFC7E06D4B181C01F0F7FF3B681B78062B0DD002DC042B05D018E0082B0CD0152B7A
:400BC0000FD013E0654B181C02F062F817E0644B181C02F05DF812E0624B181C02F058F80DE0614B181C02F053F808E03B681B781A1C5E4B181C111C01F0CEFFC04698E019
:400C00005B4B1B781A1C5B4B181C111C01F0C4FF8FE0594B181C02F03BF88AE03B681B781A1C564B181C111C01F0B6FF81E03B681B78191C3B685B781D1C3B689B781C1C37
:400C40003B68DB781A1C4E4B0092181C2A1C231C01F0A2FF6DE03B681B781A1C494B181C111C01F099FF64E0474B181C01F094FF3B689B78082B08D0102B0BD0042B0ED128
:400C8000424B181C01F088FF12E0414B181C01F083FF0DE03F4B181C01F07EFF08E03B689B781A1C3C4B181C111C01F075FFC0463B689B881A1C394B181C111C01F06CFF59
:400CC000374B181C01F068FF3B689B790A2B04D1344B181C01F060FF08E03B689B791A1C2D4B181C111C01F057FFC0462E4B181C01F0CEFF1DE03B685B78191C3B681B78DE
:400D00001A1C2A4B181C01F047FF12E0284B181C01F0BEFF0DE0274B181C01F0B9FF08E07A683B68101C191CFFF71CFEC04600E0C046BD4602B0B0BDF044010000450100B3
:400D4000184501002C45010044450100584501006C4501008C450100B4450100D4450100F0450100144601002846010040460100541F00204C4601006C46010094460100A8
:400D8000C04601000C4701002C4701004C4701005C4701007047010084470100884701009C470100A8470100BC470100C0470100F04701000C48010080B500AFFEE7C0469C
:400DC00080B584B000AF7860104B1A687B68D3181A1C0F4BD21A8023DB009A4209DC0B4B1B68FB60094B1A687B68D218074B1A6007E001F085FE031C0C221A6001235B4217
:400E0000FB60FB68181CBD4604B080BDD8000020601F002080B586B000AF224B7B61224B3B61204B7B6135E03B691B68FB603B695B68BB603B699B683B6000237B600CE03D
:400E4000FB681A68BB681A60BB680433BB60FB680433FB607B6804337B607A683B689A42EED13B69DB683B6000237B6008E0BB6800221A60BB680433BB607B6804337B60E0
:400E80007A683B689A42F2D13B6910333B617B69013B7B617B69002BC6D101F037FEFFF775FAFEE7010000003850010080B582B000AF154B144A126801218A431A60002315
:400EC0007B600FE07B68032B04D8104B7A689200D35800E00E4B0F4A796889008B507B6801337B607B682F2BECD9FFF7FDF80A4B00221A60044B044A126801210A431A609A
:400F0000BD4602B080BDC0460000104000000000B90D000000000020C000002080B582B000AF786039607A683B68101C00211A1C01F02AFEBD4602B080BDC04680B500AF1F
:400F4000054B03221A60054B03221A60044B00221A60BD4680BDC0463000304030003140000E3F4080B500AFBD4680BD80B582B000AF7860024B7A681A60BD4602B080BDE7
:400F80009405002090B589B000AF0C243C192080081C111C7B600B23FB18021C1A700A23FB180A1C1A702D4B1B78022B05D01E23FB180422FF321A8048E00B23FB181B78D3
:400FC000022B04D91E23FB1801221A803EE00F23002B14D00F235A1E2149131C9B009B189B00CB1808339B685B68181C00F018FA031C1A1C012313409BB2002B05D11E23D6
:40100000FB18802252001A8020E00B23FB181B78144A5B00D3185A881023FB181A811023FB187A681A600A23FB181B789AB21023FB189A801E23FC180C23FB181022BA1818
:401040001868111C0DF05CFD031C23801E23FB181B88181CBD4609B090BDC0464C1F0020884A01003C48010090B587B000AF786000237B611323FB1800221A700823FB1859
:401080007A6812881A800823FB1800225A607B689B890F2293421FD10823FB1800229A707B685B68181C00F0BBF9031C1A1C012313409BB2002B03D09E23FF337B6102E053
:4010C000CF235B007B612B4B1B78DBB201229343DAB2284B1A701DE07B689B891322934218D10823FB1802229A707B685B681B78012B03D1CE235B007B6103E01323FB18BF
:4011000080221A701B4B1B78DBB201229343DAB2184B1A707B69002B24D07B681A1D7B6813217C18101C00211A1C40230EF078FA031C23701323FB181B78002B12D10E4B78
:401140001B68002B08D00C4B1B6879690822BA18081C111C984705E0084B1B687A684C20111C98471323FB181B78181CBD4607B090BDC046571F00209405002060140020EC
:4011800080B500AF064B00221A70064B00221A70054B00221A7000F009F8BD4680BDC046571F0020501F0020561F002080B500AF00F01EFCFFF7D6FEBD4680BDB0B594B0C3
:4011C00004AF78603E23FB1800221A802823FA183E4B111C1A1C1423081C111C1A1C01F0CAFC3B4B1B78002B04D1FFF7C9FF384B01221A707B68002B5DD0364B7A681A6057
:401200003E23FB181B88002B29D11023FB181C22BA185A601023FB182022BA181A601023FB1800221A812023FB181B221A802023FB181B225A802023FB1804221A711C23AB
:40124000FB1800221A703E23FC181023FA180E23FB18101C191C02F047FD031C23803E23FB181B88002B2AD13E23FC181A481B49AE231A012823FD1805230093184B0193E2
:401280006E23FF3302932B1C02F08CFC031C23803E23FB181B88002B11D1124B01221A703E23FC18104B181C262111220EF0A0F9031C238003E03E23FB1801221A803E23D9
:4012C000FB181B88181CBD4610B0B0BDF049010098050020601400207516000068140020805801004C1F0020884A010090B585B000AF021CFB1D1A70FB1D1B78022B04D94D
:401300000E23FB1801221A804BE0294B1B78042B42D1284B1B78DBB21A1C042313403BD1FB1D1B78002B0BD1234B1E221A82224B5B6820221A80204B5B6830225A8010E097
:40134000FB1D1B78012B0CD11B4B96221A821A4B5B68C822D2001A80174B5B68FA2212015A80164BFA1D12781A700E23FC18124B181C0CF085FA031C23800E23FB181B88CD
:40138000002B08D10B4B1B78DBB204221343DAB2084B1A7005E004E00E23FB180422FF321A800E23FB181B88181CBD4605B090BD4C1F0020571F00202C010020561F0020AD
:4013C00080B584B000AF78600A1CFB1C1A700023BB60BB68002B20D07B689A79BB681A700F23FB1800221A7012E00F23FB181B780133BA68D3180F22BA18127879688A5CC7
:401400001A700F23FB181A780F23FB1801321A700F23FB181B78052BE7D9BD4604B080BD80B582B000AF78607B681B789AB27B6801331B789BB21B029BB213439BB2181CA5
:40144000BD4602B080BDC04680B582B000AF78600A1CBB1C1A80BB1C1B88DAB27B681A707B680133BA1C1288120A92B2D2B21A70BD4602B080BDC04690B585B000AF78608E
:401480000F23FB1800221A707B689B890B22934237D17B681A1D7B680F217C18101C00211A1C40230EF0BCF8031C23700F23FB181B78002B1DD17B685B68181CFFF7B0FFAF
:4014C000031C1A1C022313409BB2002B08D0104B1B68822251007A68081C111C984708E00B4B1B680622FF32111C7A68081C111C9847084B1B78DBB201229343DAB2054B49
:401500001A700F23FB181B78181CBD4605B090BD60140020571F002090B585B000AF78600F23FC187B68181CFFF7A6FF031C23701E4B1B78DBB21A1C012313400CD00F23F7
:40154000FB181B78002B07D10F23FC187B68181CFFF78AFD031C2370144B1B78DBB21A1C012313401FD10F23FB181B78002B16D00823FB1812229A707B689A890823FB1871
:401580001A800823FB180F22BA181278DA707B680822BA181868111C0DF072FA03E07B6818680DF005FBBD4605B090BD571F002080B582B000AF7860BD4602B080BDC046C3
:4015C00080B500AF034B00225A70024B00221A70BD4680BD541F002080B582B000AF7860BD4602B080BDC04680B500AFBD4680BD80B584B000AF78600E23FB1800221A7017
:401600007B689B79002B1CD10F23FB1800221A7012E00F23FB181B787A68D35C002B04D00E23FB1801221A700BE00F23FB181A780F23FB1801321A700F23FB181B78052B13
:40164000E7D90E23FB181B78181CBD4604B080BD80B582B000AF021CBB1D1A80BD4602B080BDC04680B582B000AF7860BD4602B080BDC04680B588B000AF021C3960FB1D3C
:401680001A70C94B1B78DBB201221343DAB2C64B1A70FB1D1B78712B00D96AE19A00C34BD3181B689F461023FB1807221A701023FB1800225A701023FB18181C04F04EF986
:4016C0001023FB1807221A701023FB1801225A701023FB18181C04F041F9B54B1B68181CFFF786FF031E11D0B14B1B68181C02F02BFAAF4B1B68181C0021FFF761FEAC4BFA
:401700001B68181C0121FFF75BFE36E0A94B1B781A1C3F231A40A84B1B78191C3F230B409B011A43A54B1B78191C1F230B401B031A43A34B1B78191C7F230B405B04134379
:40174000BB61BB69DAB29F4B1A70BB691B0ADAB29C4B5A70BB691B0CDAB29A4B9A70994B181C02F0F1F9974B181C0021FFF728FE944B181C0121FFF723FE03200BF038FFF5
:401780000C23FB183F221A700C23FB1800225A700C23FB18181C0BF049FF8B4B04221A70E8E03B68181CFFF717FFE3E03B681A78864B1A70DEE03B687B617B691B78002BB2
:4017C00018D17B695B78002B0BD1814B0022DA807F4B00229A807E4B7E4A1A607B697C4A5A60714B1B78DBB201229343DAB26E4B1A70BFE0BEE06C4B1B78DBB21A1C202354
:4018000013400ED1744B1B78102B02D1724B0522DA70724B1A78704B101C191C0BF0F8FFA8E0A7E03B68181CFFF71CFFA2E03B68181CFFF717FF644B02221A709AE0624BAB
:4018400004221A7096E0604B1B78022B40D0564B1B78DBB21A1C0123134039D0524B1B78DBB21A1C042313400BD0574B03221A704D4B1B78DBB204229343DAB24A4B1A7058
:4018800026E0494B1B78DBB21A1C082313400BD04D4B04221A70444B1B78DBB208229343DAB2414B1A7013E0474B1B78032B0FD1454B04221A704A4B1B78002B08D1012093
:4018C000FFF714FD031E03D13F4B03221A7051E050E03B681B88181CFFF7BAFE4AE03F4A3B68111C1A1C0223081C111C1A1C01F042F9364B00221A70384B1B785A339A002F
:40190000384BD3180533384A111C1A1C0423081C111C1A1C01F02FF9FFF766FE2AE0FFF74FFE27E03B685B88162B05D81E23FB183A6852881A8003E01E23FB1817221A808F
:401940003B681E22BA1811881A8800231204120C1B0C1B041343181C0DF09EF80AE03B68181CFFF7D9FD05E03B68181CFFF720FE00E0C0460C4B1B78DBB21A1C1123134046
:401980000FD0094B1B78DBB201229343DAB2064B1A70164B1B68FA1D11783A68081C111C9847BD4608B080BD571F0020804D0100480100207CF1FF0F7DF1FF0F7BF1FF0FE8
:4019C00078F1FF0F400100204C1F0020501F00209C050020481F002014020020541F0020561F002080580100481F00206014002080B500AFBD4680BD80B500AF00F056F815
:401A0000BD4680BD80B500AF064B064A1268802109060A431A6000F019F800F01BF8BD4680BDC0460000244080B500AF064B1B78002B04D1FFF7E0FF034B01221A70FFF7B4
:401A4000E1FFBD4680BDC046A405002080B500AFBD4680BD80B500AF00F080F8BD4680BD80B582B000AF7860C046064B1B681F221340082BF9D0044B7A681A60BD4602B00F
:401A800080BDC046080224404002244080B582B000AF054B1B681F2213407B607B68181CBD4602B080BDC0460802244080B500AF184B194A1A60194B00221A60184B012250
:401AC0001A60184B184A1A60184B07221A60184B00221A60174B01221A60174B124A1A60164B00221A60164B04221A60154B00221A60154B00221A60144B00221A60144BA1
:401B000000221A60134B00221A60134B00221A60BD4680BD000024400F000002400024404800244000032440070000800403244010032440440024400002244004022440C8
:401B400050002440880E2440C80E2440480F2440080F2440C80F2440880F244080B500AF054B054A126805490A40902109040A431A60BD4680BDC04600010240FFFF0FFF62
:401B800080B582B000AF094B1B68DAB2FB1D7F218A431A70054BFA1D12781A60FB1D1B78DB09DBB2181CBD4602B080BD1002044080B584B000AF021CFB1D1A700E4B1B68E6
:401BC000DAB20F23FB1840218A431A70FB1D1B789B01DBB240221340D9B20F23FB180F22BA1812780A431A70034B0F22BA1812781A60BD4604B080BD0003044080B584B0A6
:401C000000AF021CFB1D1A700E4B1B68DAB20F23FB1840218A431A70FB1D1B789B01DBB240221340D9B20F23FB180F22BA1812780A431A70034B0F22BA1812781A60BD46BB
:401C400004B080BD0002044080B500AF00F050F8054B181C00F00EF8032000F017F800F03DF8BD4680BDC0466D1C000080B500AFBD4680BD80B582B000AF7860024B7A6840
:401C80009A64BD4602B080BD0000002090B585B000AF021CFB1D1A701623FB600B23FC1800F09BF8031C23700A4B0A4A12680A491140FA1D1078FA689040021C0A431A60A3
:401CC0000B23FB181B78181C00F08BF8BD4605B090BDC04600E400E0FFFF3FFF80B500AF024B04221A60BD4680BDC04600E100E080B500AF024B04221A60BD4680BDC0466F
:401D000080E100E080B500AF024B04221A60BD4680BDC04680E200E080B582B000AF786000F048F87B68181C00F008F8032000F011F800F035F8BD4602B080BD80B582B052
:401D400000AF7860024B7A681A66BD4602B080BD0000002090B585B000AF021CFB1D1A700623FB600B23FC1800F037F8031C23700A4B0A4A1268C0218A43111CFA1D1078FE
:401D8000FA689040021C0A431A600B23FB181B78181C00F026F8BD4605B090BD08E400E080B500AF024B802252001A60BD4680BD00E100E080B500AF024B802252001A60E6
:401DC000BD4680BD80E100E00230800803D00138FDD1C046C046C0467047EFF3108072B6704780F31088704790B58BB000AF78602723FC18FFF7F1FF031C2370184B1A6810
:401E00000C23FB181A60174B1A680C23FB185A607B68033B144AD35C1A1C0C23FB189A60124B1A680C23FB18DA601C23FB18104A1A600C23FA181C23FB185A600D4B1C2282
:401E4000BA181A600C4B0D4A1A600A4B1B682723FB181B78181CFFF7C4FFBD460BB090BD08010B4000010B40484F010030001040B6EA000008001040040010401700008093
:401E800080B584B000AF78600023FB60154B154A126801210A431A60134B144A1A60144B134A1268802109020A431A607B68002B12D01023FB600CE0012000F035F800F01B
:401EC00019F8031E02D00023FB6005E07B68013B7B607B68002BEFD1FB68181CBD4604B080BDC04660F02E4078002E400220000010002E4080B582B000AF054B1B680122D2
:401F000013407B607B68181CBD4602B080BDC0460C002E4080B582B000AF021CFB1D1A7001BEBD4602B080BD80B582B000AF021CBB1D1A80BB1D1B88044A12785343181CA0
:401F4000FFF742FFBD4602B080BDC0462402002080B500AF154B154A1268920092081A60134B134A1268920092081A60114B114A1268920092081A600F4B0F4A12689200B8
:401F800092081A600D4B0D4A1268920092081A600B4B0B4A1268920092081A60094B094A1268920092081A60BD4680BD0800044008010440080204400803044008040440E6
:401FC000080504400806044090B583B000AFFC1DFFF703FF031C2370074B074A126804218A431A6030BFFB1D1B78181CFFF7F9FEBD4603B090BDC04610ED00E090B583B0B2
:4020000000AFFC1DFFF7E9FE031C2370FFF7A0FF114B114A1268802109060A431A600F4B0F4A128892B21A600E4B0E4A126804210A431A600C4B0C4A1268FF218A43F121C4
:402040000A431A6030BFFB1D1B78181CFFF7C9FEBD4603B090BDC04600000B400C000B4050F1FF0F10ED00E02C000B4080B500AF0E4B0E4A126801218A431A600B4B0B4A9D
:40208000126802218A431A60094B094A126830218A4310210A431A60054B054A126807218A4301210A431A60BD4680BD00F02E4000FF2E4080B500AF0E4B0E4A12680221D1
:4020C0008A431A600C4B0C4A126807218A4302210A431A60084B084A126830218A4320210A431A60034B034A126801210A431A60BD4680BD00F02E4000FF2E4080B500AF61
:40210000FFF7B4FF044B044A1268802109060A431A60BD4680BDC04600F02E4080B584B000AF78600C4B1B6801221340FB607B68002B02D0012B03D005E0FFF797FF06E0F3
:40214000FFF7B8FF03E00020FFF7E4FEC046FB68181CBD4604B080BD00F02E4090B583B000AFFC1DFFF739FE031C2370074B074A1268C02109020A431A60FB1D1B78181C1A
:40218000FFF72FFEBD4603B090BDC04600010B4080B500AF054B1A68C0231B02134001D0012300E00023181CBD4680BD00010B4090B583B000AFFC1DFFF70FFE031C2370F1
:4021C0000C4B0C4A12680C490A408021C9010A431A60084B074A126807490A40802109020A431A60FB1D1B78181CFFF7FAFDBD4603B090BD00010B40FF3FFFFF80B582B0FE
:4022000000AF78607B68022B02D90020FFF782FE054B1B687A68D2000132D34001221340181CBD4602B080BD10020B4080B584B000AF786039607B68022B02D90020FFF746
:4022400069FE7B68181CFFF7D9FF031E15D10C4B1B687A68D200111C03228A40D2431340FB603B68032213407A68D2009340FA681343FB60024BFA681A60BD4604B080BDCC
:402280000C020B4080B584B000AF786039607B68002B02D07B68012B01D1012300E00023002B02D10020FFF735FE7B68181CFFF7A5FF031E16D10D4B1B687A68D200023291
:4022C000111C01228A40D2431340FB607B68DB0002331A1C3B689340FA681343FB60034BFA681A60BD4604B080BDC0460C020B4080B582B000AF7860144B144A11687A68CC
:402300000A431A607B680122134005D0C0460020FFF774FF031EFAD07A6880235B00134005D0C0460120FFF769FF031EFAD07A6880235B02134005D0C0460220FFF75EFF31
:40234000031EFAD0BD4602B080BDC04610020B4080B584B000AF786039607B68002B02D07B68012B01D1012300E00023002B02D10020FFF7CFFD174B1B689B0F9B0701D1C9
:40238000C92300E05D23181CFFF7CEFD124B1B68FB607B681B011A1C104B9340DA43FB681340FB600C4B7A681201111C3A688A40111CFA680A431A60064B1B689B0F9B07B5
:4023C00001D1432300E01F23181CFFF7ADFDBD4604B080BD0C020B4008020B40FFFF000080B500AF034B1B68034A1340181CBD4680BDC04610020B400404040090B585B05D
:4024000000AF78600B23FC18FFF7E7FC031C2370FFF7BEFE031E04D00123FB60FFF7C8FE01E00023FB607B680D4A13407B600D4B0C4A12680C4911407A680A431A60094BD4
:402440001B68FB68012B01D1FFF788FE0B23FB181B78181CFFF7C5FCBD4605B090BDC0460404040010020B40FBFBFBFF80B582B000AF7860084B084A11687A68074802405A
:402480000A431A60C046044B1B68044A1340FAD1BD4602B080BDC04610020B400808080080B582B000AF78600A1CBB1C1A80BB1C1A887B681A60BD4602B080BD80B582B0F0
:4024C00000AF78600A1CBB1C1A80BB1C1A887B681A60BD4602B080BD80B582B000AF304B1B78DBB21B022F4A1278D2B213437B602D4B1B78DBB21B022C4A1278D2B21343E1
:402500003B603B682A4A934207D17B68072B04D1284B3B6004237B6009E03A68D4231B019A4204D17B68042B01D1224B3B60224B3A681A60214B7A681A60214B1B78DBB22A
:402540001B02204A1278D2B213437B607A6880239B019A4202D07B68002B01D11A4B7B601A4B7A681A601A4B1B78DBB21B02194A1278D2B213437B607B68174A934206D0B2
:402580007B68164A934202D07B68052B01D1144B7B60144B7A681A60BD4602B080BDC046D9F0FF0FD8F0FF0FDFF0FF0FDEF0FF0F580B0000580D00006C002E4074002E4075
:4025C000DBF0FF0FDAF0FF0F0220000078002E40DDF0FF0FDCF0FF0F0F0F000005050000050F000080002E4080B582B000AF021CBB1D1A80BB1D1B88181CFFF795FCBD4664
:4026000002B080BD80B500AF00F0DEF8BD4680BD80B500AF00F0E2F8BD4680BD80B500AF00F0DCF8044B181C00F09CF8032000F0A5F8BD4680BDC046F127000080B500AF32
:40264000024B181C00F07CF8BD4680BDF127000080B500AF0223FF33181CBD4680BDC04680B582B000AF78602B23181CBD4602B080BDC04680B582B000AF78602B23181C90
:40268000BD4602B080BDC04680B582B000AF78602B23181CBD4602B080BDC04680B582B000AF78602B23181CBD4602B080BDC04680B582B000AF78602B23181CBD4602B02D
:4026C00080BDC04680B582B000AF78602B23181CBD4602B080BDC04680B582B000AF78602B23181CBD4602B080BDC04680B582B000AF78602B23181CBD4602B080BDC0465F
:4027000080B500AF2B23181CBD4680BD80B582B000AF021CFB1D1A702B23181CBD4602B080BDC04680B582B000AF786039602B23181CBD4602B080BD80B500AFBD4680BD84
:4027400080B582B000AF786000F048F87B68181C00F008F8032000F011F800F035F8BD4602B080BD80B582B000AF7860024B7A681A67BD4602B080BD0000002090B585B0DF
:4027800000AF021CFB1D1A700623FB600B23FC18FFF723FB031C23700A4B0A4A1268C0218A43111CFA1D1078FA689040021C0A431A600B23FB181B78181CFFF712FBBD465C
:4027C00005B090BD0CE400E080B500AF024B802252011A60BD4680BD00E100E080B500AF024B802252011A60BD4680BD80E100E080B500AF11F0B6FCBD4680BD0022430801
:402800008B4274D303098B425FD3030A8B4244D3030B8B4228D3030C8B420DD3FF22090212BA030C8B4202D31212090265D0030B8B4219D300E0090AC30B8B4201D3CB03F2
:40284000C01A5241830B8B4201D38B03C01A5241430B8B4201D34B03C01A5241030B8B4201D30B03C01A5241C30A8B4201D3CB02C01A5241830A8B4201D38B02C01A52411D
:40288000430A8B4201D34B02C01A5241030A8B4201D30B02C01A5241CDD2C3098B4201D3CB01C01A524183098B4201D38B01C01A524143098B4201D34B01C01A524103092B
:4028C0008B4201D30B01C01A5241C3088B4201D3CB00C01A524183088B4201D38B00C01A524143088B4201D34B00C01A5241411A00D20146524110467047FFE701B5002082
:4029000000F0FCF802BDC0460029F7D003B5FFF775FF0EBC4243891A1847C04603460B437FD4002243088B4274D303098B425FD3030A8B4244D3030B8B4228D3030C8B426C
:402940000DD3FF22090212BA030C8B4202D31212090265D0030B8B4219D300E0090AC30B8B4201D3CB03C01A5241830B8B4201D38B03C01A5241430B8B4201D34B03C01AC5
:402980005241030B8B4201D30B03C01A5241C30A8B4201D3CB02C01A5241830A8B4201D38B02C01A5241430A8B4201D34B02C01A5241030A8B4201D30B02C01A5241CDD21B
:4029C000C3098B4201D3CB01C01A524183098B4201D38B01C01A524143098B4201D34B01C01A524103098B4201D30B01C01A5241C3088B4201D3CB00C01A524183088B4243
:402A000001D38B00C01A524143088B4201D34B00C01A5241411A00D201465241104670475DE0CA0F00D04942031000D34042534000229C4603098B422DD3030A8B4212D30A
:402A4000FC22890112BA030A8B420CD3890192118B4208D3890192118B4204D389013AD0921100E08909C3098B4201D3CB01C01A524183098B4201D38B01C01A52414309C2
:402A80008B4201D34B01C01A524103098B4201D30B01C01A5241C3088B4201D3CB00C01A524183088B4201D38B00C01A5241D9D243088B4201D34B00C01A5241411A00D252
:402AC0000146634652415B10104601D34042002B00D54942704763465B1000D3404201B5002000F00BF802BD0029F8D003B5FFF715FF0EBC4243891A1847C0467047C04642
:402B0000014B18687047C0466C0500200E4B70B500251E1C0D4CE41AA410A54204D0AB00F35898470135F8E712F074FA084B00251E1C084CE41AA410A54204D0AB00F35815
:402B400098470135F8E770BD2050010020500100205001002850010030B50024944208D0035D651C0C5DA34201D0181B02E02C1CF4E7002030BD002310B5934203D0CC5CB4
:402B8000C4540133F9E710BD031C8218934202D019700133FAE770470FB40B4B13B51C68002C05D0A369002B02D1201C00F03EFA05AB201CA168049A019300F0E7FB16BCC8
:402BC00008BC04B01847C0466C05002070B5051C0E1C002804D08369002B01D100F026FAAC68A3891B0702D52369002B19D1281C211C00F0AFF8002813D00120404245E03D
:402C00003178002B1BDAA269934211DA221C281C00F048F8013042424241D0B20028ECD10136A3683278013BA360002AE8D10CE023681970236819780A2903D1E6E7236826
:402C40001970236801332360EAE7002B17DAA269934208DB0A2322681370236819780A2911D1281C01E0281C0A21221C00F01AF8013042424241D0B2002806D0BDE70A2311
:402C8000226813702368013323600A2070BD000008B5034B011C1868FFF798FF08BDC0466C05002070B5051C0E1C141C002804D08369002B01D100F0B9F9234B9C4201D198
:402CC0006C6808E0214B9C4201D1AC6803E0204B9C4200D1EC68A369A360A3891B070AD52369002B07D023682269F6B2981A636998420FDB08E0281C211C00F02BF8002829
:402D0000F1D0012040421DE0281C211C00F020F90028F6D1A3680130013BA36023685A1C22601E706369984205D0A389301CDB0708D50A2E06D1281C211C00F009F90028D1
:402D4000DFD1301C70BDC046804F0100A04F0100C04F0100354B70B51D68061C0C1C002D05D0AB69002B02D1281C00F05FF9304B9C4201D16C6808E02E4B9C4201D1AC681C
:402D800003E02D4B9C4200D1EC68A3899AB2110723D4D10607D409220120326037321343A381404240E0530713D5616B002908D0231C4433994202D0301C00F021FA00232D
:402DC00063632422A3899343A38100236360236923600822A3891343A3812369002B0BD1A023A2899B00134080229200934203D0301C211C00F0ACF90123A289134005D0FC
:402E00000023A36063695B42A36103E0910700D46369A36000202369834205D1130603D540231A43A281013870BDC0466C050020804F0100A04F0100C04F0100F7B58A893A
:402E4000051C0C1C13075ED44B68002B02DC0B6C002B1ADDE76A002F17D000232E682B6080235B011A4001D0626D15E0281C216A0123B847021C431C0ED12B68002B0BD0E8
:402E80001D2B01D0162B02D12E6000205EE04021A3890B43A38159E0A3895B0706D56368D21A636B002B01D0236CD21A0023281C216AE76AB847A389421C06D12A68002AFD
:402EC00003D01D2A01D0162A19D10022626022692260DB0405D5431C02D12B68002B00D16065616B2E600029CFD0231C4433994202D0281C00F084F90020606326E040220C
:402F00001343A38122E00F69002FBED00B680F60DB1B01930023920700D14B69A360019B002BB2DD281C216A3A1C019BA66AB047002806DC40220120A38940421343A3815D
:402F400004E0019B3F181B1A0193E8E7FEBD000038B50B69051C0C1C002B01D100201CE0002804D08369002B01D100F05FF80B4B9C4201D16C6808E0094B9C4201D1AC685E
:402F800003E0084B9C4200D1EC680C22A35E002BE4D0281C211CFFF751FF38BD804F0100A04F0100C04F010008B5024900F0AEF808BDC046512F0000002310B5041C0360EA
:402FC0004360836081814366C281036143618361191C08225C30FFF7D7FD054B24626362044BA362044BE362044B236310BDC046DD380000053900003D3900006939000026
:4030000070B568254B1E5D430E1C291C743100F03DF9041E08D000212A1C016046600C30A0606832FFF7B0FD201C70BD836913B5002B28D18364C3640365134B134A1B68C5
:4030400082620193984201D101238361041C00F01FF86060201C00F01BF8A060201C00F017F80421E06000226068FFF7A5FFA06809210122FFF7A0FFE06812210222FFF75B
:403080009BFF0123A36113BD7C4F0100A92F0000F8B51D4B061C1D68AB69002B02D1281CFFF7C4FF4835AC686B68013B05D40C22A75E002F10D06834F7E72B68002B06D145
:4030C000301C0421FFF79CFF2860002801D02D68E9E70C23336016E00123201C5B42E3810233A38167662760A760676027616761A7615C30391C0822FFF746FD201C6763B2
:40310000A763A764E764F8BD7C4F0100F7B5041C071C002601914834002C16D06368A5680093009B013B00930DD4AB89012B08D90E22AB5E013304D0381C291C019B98472D
:4031400006436835EDE72468E6E7301CFEBD0000F0B58B8991B09B0706D50B1C47330B600B6101234B6145E00C1C0E23C95E061C002904DA8023A5891D4010D10CE001AA02
:4031800000F01EFC0028F5DBF023029D1B021D40194BED186B425D418027FF0001E000254027301C391C00F071F800280CD1A3899A051FD402221343A381231C4733236083
:4031C00023610123636115E080220C4BB362A38920601343A38120616761002D0AD00E23E15E301C00F0FEFB002803D00122A3891343A38111B0F0BD00E0FFFFA92F00005D
:4032000030B500293ED004390B68002B00DAC9181D4A1368141C002B02D14B60116031E099420DD208680A189A4203D11368C3180B6053684B60216024E08A4203D8131C21
:403240005A68002AF9D11D685C198C420BD10968691858181960904214D110685268091819605A600EE08C4202D90C23036009E008680C18944203D11468526800190860D5
:403280004A60596030BDC04638140020032370B5CC1C9C430834051C0C2C01D20C2405E0002C03DA0C2300202B6042E08C42F9D3204A1368101C191C002913D00A68121B2D
:4032C0000DD40B2A02D90A608B181FE08B4202D15A6802601BE04A685A600B1C17E00B1C4968E9E7144E3368002B03D1281C00F0E3FA3060281C211C00F0DEFA031C421C7D
:40330000D0D00322C61C964386420AD11C60181C07210B301A1D8843821A0AD05142995007E0311A281C00F0C7FA431CBAD0331CECE770BD3814002034140020936810B570
:40334000013B9360002B05DA9469A34208DBCBB20A2B05D01368581C10601970C8B201E0FFF7A0FC10BDF8B5061C0F1C141CD518AC4208D02178301C3A1CFFF7DFFF013405
:40338000431CF5D100E00020F8BD0000F0B59FB0061C0F1C02920593002804D08369002B01D1FFF743FE794B9F4201D1776808E0774B9F4201D1B76803E0764B9F4200D182
:4033C000F768BB891B070AD53B69002B07D0002306AD6B6120336B761033AB763DE0301C391CFFF7B7FC0028F1D001204042CAE0059A111D12680591002A7EDB099201347C
:4034000023782E2B00D189E021786348032200F00FFB002808D0604B0134C01A40238340181C2B68184328602178631C5B4806220293297600F0FCFA002800D191E0584B67
:40344000002B00D084E00722059B07339343083305936B69039A9B186B61029C2378002B04D1029BE31A049311D003E0252BF8D00134F3E7049B301C391C029AFFF773FFB8
:40348000431C7BD06A69049B944663446B612378002B73D00122002352426A6002A95432521801342B60EB60AB601370AB6521783C48052200F0BCFA002809D0394B01340E
:4034C000C01A01238340181C2B6818432860EEE72B68DA0604D55322202102A8121811701A0704D553222B2102A81218117022782A2A00D17CE7099B05E05242EA60022278
:4035000013432B607BE72278303A092A04D80A214B4301349B18F6E7099371E763782A2B09D1059B02341A1D1B680592002B0DDA01235B420AE0002301342278303A092A46
:4035400004D80A214B4301349B18F6E707935BE705AB0093301C291C3A1C134B00E000BF07E005AB0093301C291C3A1C0E4B00F08BF80390039B013300D06AE7BB895B06E6
:4035800000D532E70B981FB0F0BDC046804F0100A04F0100C04F0100E64F0100EA4F010000000000E04F010067330000F7B5171C01930A698B6800900C1C934200DA131C7F
:4035C000221C3B6043321278002A01D001333B6023689B0602D53B6802333B60062523681D401ED0231C43331B785A1E9341226892061CD53020E1184031C870211C5A1C66
:4036000045310978A21840320233D1700FE0221C0123009801991932089EB047431C0ED00135E3683A689B1A9D42F0DBDAE7221C009801994332089DA847431C02D101203A
:40364000404220E006232068E1683A6803400025042B03D18D1AEB43DB171D40A3682269934201DD9B1AED180027AF420ADA221C0123009801991A32089EB047431CDED014
:403680000137F2E70020FEBDF0B58BB006920A1C43320793059004920A7E0C1C109B6E2A00D1A8E011D8632A22D009D8002A00D1B2E0582A00D0C2E045310A707C4A4FE04B
:4036C000642A1DD0692A1BD0B9E0732A00D1A7E009D86F2A29D0702A00D0B0E0202209680A43226037E0752A1FD0782A33D0A6E00E1C1A684236111D196013683370A1E01A
:4037000021681A68080606D4490604D5111D19600023D55E02E0111D19601568002D3BDA2D23049A6D42137036E021681A68080606D4490604D51568111D1960ADB202E073
:40374000111D196015685A4B227E03930A276F2A1DD108271BE0221C782145321170554A19680392081D226818600D68100602D4500600D5ADB2D30702D520231A432260FF
:403780001027002D03D1202322689A432260231C002243331A7002E00A27454B03936368A360002B03DB0422216891432160002D02D1049E002B0ED0049E281C391CFFF754
:4037C000A3F8039B013E5B5C281C3370391CFFF715F8051EF1D1082F09D12368DB0706D563682269934202DC3023013E3370049B9B1B23612BE009681A68080607D44906D0
:4038000005D5111D19601368A28A1A8004E0111D1960136862691A600023049E236116E01A68111D196016680021301C626800F0FFF8002801D0801B6060636803E0261C33
:4038400042363270012323610023049A1370079B05980093211C069B09AAFFF7A7FE431C02D10120404221E0236905980699321C079DA847431CF4D023689B0705D4099BF8
:40388000E068984212DA181C10E00025E368099A9B1A9D42F3DA221C0123059806991932079EB047431CDCD00135EFE70BB0F0BDF14F01000250010038B50023064C051C47
:4038C000081C2360FDF77CFA431C03D12368002B00D02B6038BDC046581F002038B50C1C0E25495F00F0B0F8002803DB636D1B18636503E0A289024B1340A38138BDC046BB
:40390000FFEFFFFFF8B51E1C8B89051C0C1C171CDB0505D50E23C95E0022022300F074F8A289054B281C1340A3813A1C0E23E15E331C00F01FF8F8BDFFEFFFFF38B50C1C67
:403940000E25495F00F060F8A389421C03D1054A1340A38104E0802252011343A381606538BDC046FFEFFFFF08B50E23C95E00F015F808BD38B5051C0020074C2060081C05
:40398000111C1A1CFDF77CF8431C03D12368002B00D02B6038BDC046581F002038B50023064C051C081C236000F062F8431C03D12368002B00D02B6038BDC046581F00201C
:4039C00038B50023064C051C081C111C236000F057F8431C03D12368002B00D02B6038BD581F002038B50023064C051C081C236000F04EF8431C03D12368002B00D02B60BD
:403A000038BDC046581F002038B5051C0020074C2060081C111C1A1C00F042F8431C03D12368002B00D02B6038BDC046581F0020C9B28218904204D003788B4202D0013066
:403A4000F8E700207047000038B5051C0020074C2060081C111C1A1C00F02AF8431C03D12368002B00D02B6038BDC046581F002058220120014B40421A607047581F0020EF
:403A800058220120014B40421A607047581F00205822024B00201A607047C046581F002058220120014B40421A607047581F002058220120014B40421A607047581F0020BE
:403AC000134A1088810703D08107890F401A001D11791030484381B25088820703D08207920F801A001D800040180A494030098980B2CA0701D0503080B2890706D50449D7
:403B00005422091F09785143081880B27047000032020020A805002010B501F07BFE10BD10B501F07FFE10BD0121002806D09921C170032101700021417081700846704744
:403B400010B500F04BFA10BD10B50749044609780220002907D1204601F0A5FE002802D1204609F03BFE10BD9803002070B504460120002C12D02368002B0FD06168002941
:403B80000CD0074D06222889208118462968FEF7F2FF6968606809780170002070BD0000A8050020FFB585B0002768460E9D07734B481C460078002802D0082009B0F0BD09
:403BC00010990F9801900095029105A807C800F0F9F80028F2D16946264603AB84460873002C19D0002115E08A00B75A082F09D990198078002805D0083FB7521878401CAD
:403C0000187005E0002912D00027B75290198770491CC9B2A942E7D360460028CED110990F9801F0ABF9002804D00120C6E701208446F1E701F0EEFD294900200861284891
:403C400005990C30016021888180022D03D3A1798171A17AC17100211EE0481C19E082008B00A75AE65ABE46BE4211D26F463E80B4461E190296B678BE7001967646E6522D
:403C80001719029EBB78B3706646A652019EBE70401CA842E3D3491CA942DED3114800906846037B22460799069800F011F9002884D168460A4C007B60700A4801F0DAFDD5
:403CC0000028B3D1204607490C3006F007FE0028ACD106F021FE0028A8D1012121706DE72C020020A8050020F8B5054633480E460078002802D002242046F8BD002E5BD0DB
:403D000000242F49002D16D02A89D0070DD02868002808D003881B3BE12B04D24088FB2801D81B2801D2012409E0900707D56868002804D1F7E70020088108604860002C2F
:403D4000DAD11F482F8907811C481B21801D018041800421017119490020891C0870F80705D016480622801D2968FEF704FF1449B80703D56A681148127882700F480D4677
:403D8000801D0860001F486001F0B2FD0B48801D01F0A0FD28890CF0EFFC28890CF054FE03461033FFF78CFE1F21C018890140180249308088809FE701249DE72C020020FC
:403DC000A8050020FFB58446384F1C460020BB883F78054602460646002F12D100290FD0029999420CD36146002909D0002C07D00A99002904D0FF230B996E33994202D2C5
:403E0000012004B0F0BD002144E0AB001F19BF78002F3BD0E35A002B38D07B43591889B22B0000F047F8050410161C253100A7782388BC46FF27233BEB37BB4222D2634686
:403E4000032B1FD322E0A388002B1FD0302B19D31CE02389002B19D0282B13D316E0A289002A13D01346124F233BBB420AD20DE0268A002A0AD033460D4F233BBB4201D2DC
:403E8000964203D901200EE0002001E000280AD16D1CEDB2099B9D42B7D31C2463435B1802998B42ACD89642AAD8AAE72C020020BAFF000030B47446641E2578641CAB42A5
:403EC00000D21D46635D5B00E31830BC18470000FFB583B0002469460C801F4606468C80002806D00598002803D004983043800701D0012467E0022FFBD934490498098811
:403F00008842F6D3FEF79AFBFEF782FB00F010FC002856D100F04CFD002852D12C49084601F060F805042D0C4BD12A480499066081800021C18007810C98007AC00704D0A0
:403F4000684601F080FC040007D10C98007A800703D501A801F080FC0446BF1DFEB2002C21D13146059800F05DF804001BD10CF079FD0406240E16D16A4610889288083645
:403F80008518144AF1B29088D288AEB29319984207D3401B801A80B201F014FB050007D000E0FF25012400F05BFA002D04D008E0F8B200F01BF9F6E700F07EFA0649012074
:403FC000087000F0C7FB204607B0F0BD3002002011410000B40500204002002010B503480078012801D101F08FF910BD4002002070B5084B0446DA889E8800205518B542F5
:4040000006D81D68AA182260DA885118D98070BD032070BDB40500200148008970470000B4050020F0B587B007460D4600208900009006916846FFF7DBFF844600285DD113
:40404000304800990160002117E02E4B88001A680629115406D22C4C0419667882185670628805E0C419203CA67A8218567022891B68C018491C4280C9B2A942E5D30024FD
:404080002DE0601CC2B2059025E01E4FA30039689600581840887118039604904E88B04217D938466F46FE80B6464F786E4677710297049F4F800168039F5E187678791861
:4040C0004E700168764659184E800068029F18184770521CD2B2AA42D7D30598C4B2AC42CFD36046002809D168460699FFF780FF8446002802D1054900980860604607B0A9
:40410000F0BD00004402002048500100480200207047000010B5002809D005494A68002A05D0011F08788000105801F0F9F910BD4402002010B50446FFF76EFFC0B2801DCE
:40414000A0420CD307484068002808D0A100405801F058F9002801D00470001D10BD002010BD000044020020F8B516460D460446FFF752FFC0B2801DA04203D20020C0438C
:404180000090F8BDB2B2E9B2684601F061F90099481C03D0024AA000526811500098F8BD44020020F8B50746FFF736FF801DC6B20A49002005460C680DE06178002907D006
:4041C0006188B94202D32078FFF7B4FF002804D1241D6D1CEDB2B542EFD3F8BD4402002010B5002801D0FFF795FF10BD70B506460948002504680BE06178002905D0628877
:404200002078121D0023FFF7AFFF241D6D1CEDB2B542F1D370BD000044020020FFB581B00A9C16002BD000F0F1F80546042826D0214F002C0BD02046FFF7B4FF2901C919C5
:40424000486000281BD022460499FEF794FC1A4928010E5046187481019805707D20029CC000444300F0C0F8009004280AD000F055FAA0420ED800F051FA201A06E0FF206D
:4042800005B0F0BD204600F0ADFA0020B08135720020F5E700F042FA074600F0B9FA381B87B23846012100F0EFF800980101024808188781E6E70000C0050020F8B506011A
:4042C00017483418217A042903D0A089002802D018E00020F8BD00F021FA054600F098FA00F0A2F804280DD001010D480F18B88941198DB2002100F0C7F80020B88128462E
:4043000000F070FA6068064D002801D0FFF768FF042020720020A8516081A081D9E70000C0050020FEB500266A46304601232549050169180D7A042D02D0898900291BD074
:4043400000211154401CC0B20428F0D300246846005D002830D01B482101081841894768056802910021016041600422418102728181002E02D015E01354E3E700F054F8A2
:4043800004280ED001010F480818019086890021304600F079F8019800218181304600F021FA0126002D07D038460299A847002F02D03846FFF714FF641CE4B2042CC6D30B
:4043C000FEBD0000C00500200EB5002005216A460090118150810348694600680DF0B3F90EBD00004C020020074A0020010189180B7A042B02D08989002903D0401CC0B2B7
:404400000428F3D370470000C00500200549002002015218127A042A03D0401CC0B20428F6D37047C005002030B50A4B04200A4C00210A011219157A042D06D09289002A41
:4044400003D09A4201D808461346491CC9B20429EFD330BDFFFF0000C00500207047000030B50020074C05460423020111190B72A5504D60401C4D81C0B28D810428F4D304
:4044800030BD0000C005002030B5094C00231A011219157A042D04D09589002906D02D1895815B1CDBB2042BF1D330BD2D1AF7E7C0050020002070471CB5002469460C7096
:4044C000142001902346054A05480DF041F904480068401C00D1FF2420461CBD354500004C0200203EB5124A0146FF2000230124126800290DD0012914D0042908D10420DB
:404500006946009308814B8110460DF01CF980B23EBD6846009304814381694610460DF00DF9F4E768460093048143816946EBE74C02002070B545890468416800890300D5
:40454000FFF7B8FC08280509091E22282628002005F0F2F81EE0022908D0C8B22A4621460BF0BCFA2046FFF73BFE13E002202A4621460BF0B3FA2946204600F00DF809E0B6
:4045800000200CF0CFFD05E02046FFF7CBFE01E0FEF7D2F8002070BD014B0022DB6818475002002070B5448905680089022803D0032809D0FF2070BD2246094C0023A46879
:4045C00029460120A04708E0FFF7A6FA241DA2B200232946022006F04EF8002070BD000050020020704700000248002141600180418070475002002070B50C46002186B086
:4046000016460391012802D0022859D116E003A9012006F090F801281BD1039D324621462846FEF7A8FA0095287801900220694608814E816846FFF7B5FF41E0214D002B60
:40464000686809D0049004A9022006F074F801281DD0022006B070BD002812D0298840182146FEF788FA28880024801980B228806988091D884206D12C801348FFF792FF33
:4046800003E00320E6E788421AD96C6018E004986860E278A378110219430B4A698000231060E3565360032313815181A1788170E178C17061784170217801700420288021
:4046C0000020C7E750020020000600203EB515460C46022803D004280CD000203EBD0091019002206946088107484A8100680DF02AF807E00BF0F2F9044B0022DB68294687
:404700002046984701203EBD4C02002050020020014AD1609060704750020020034801688068081A0A214843000970470C06002010B5FDF773FF482204490548FEF71BFA04
:4047400003490120C870002010BD000064500100EC08002010B5FDF755FF10BD70B5134C2368002B08D0207B1149C20705D04008400020738868A08070BD88680B4AA18899
:4047800080B29268814203D90A4D691A091802E0814202D2411A5118A160A080A0689842EAD30CF0EDFF00F013F870BD0C060020C0102E40FFFF000010B508461946FFF750
:4047C000A7FF10BD704710B5FFF780FF10BD000003480021016041608160C160704700000C060020024610B5FF20002A0CD0FFF7EFFF064C0321207B0843207310010A21EE
:40480000FEF782F82060002010BD00000C06002000B504480A21806848430209FFF7D8FF104600BD0C0600200248007B8007C00F704700000C06002010B5374908680028CD
:4048400002DA364B01221A70022290430860344800693149C00B4031096A08425AD0012000F066FA2E482F497C30FDF727FE2A480E216C30FDF722FE294820218430FDF77E
:404880001DFE274814219C30FDF718FE2448FF21C131A430FDF712FE2148FF212F31B030FDF70CFE1E482049BC30FDF707FE1C481E49AC30FDF702FE1C491948491CB430E8
:4048C000FDF7FCFD16481A49B830FDF7F7FD14481849CC30FDF7F2FD114817490830FDF7EDFD0F481549A830FDF7E8FD0C4814498830FDF7E3FD0A4812498C30FDF7DEFDF4
:4049000007481921C9029030FDF7D8FDFDF7E4FD002010BDFF2010BD00F02E406002002000002E4055650000320300002F3F00003102000010520000EC160000FA1200009E
:4049400031D000003AE3000070B50646581C80B245086D00002408E0304600F0C1F81055000A1119A41C4870A4B2AC42F4D3D80705D0D0182038D15CC47FD454C17770BD10
:4049800030B50A4C002100195B1E07E0541864782502545C2C430480891C89B29942F5DB994201D1515C018030BD000000102E4010B5FF2000F0BCF90F49FF2048700E4831
:4049C0001021801D41800121417001700A490020C91C4870FFF730FF04000AD100F008F907210648FDF75CFD044807211830FDF757FD204610BD000060020020CC112E4018
:404A000070B5002405465B1E0AE0284600F068F8010A161971702D1D1055A41CADB2A4B29C42F2DB9C4203D1284600F059F8105570BD000070B500210A4D5B1E0AE0541878
:404A400064782602545C344346193480001D891C80B289B29942F2DB994202D1515C4019018070BD00102E40F0B50599091FCFB200217E1E0BE0541864782502545C2C431F
:404A8000164D45192C80001D891C80B289B2B142F1DBFC0712D01C78515C24020F4A0C4381180C809C785D78001D210280B2294384182180001D80B2D9780CE059781A788F
:404AC00009021143054A84182180001DD9789B78090280B2194380180180F0BD00102E40014940180088704700102E4010B50B490020487000F07CF8002000F03FF9002051
:404B000000F02CF907210648FDF7CAFC044807211830FDF7C5FC002010BD000063020020CC112E4010B50B46062812D006DC01280CD0032801D1FFF7D9FF10BD0A28FCD05F
:404B40000B28FAD105480078107010BDFFF730FF10BD1146184600F02DF910BD66020020F8B5204DAC6A0127A0071F4E002816DA307806280ED1286A384328621B48006977
:404B8000F903084381B219481030FDF797FC042000F0CEF8134802212830FDF781FCE00711D0062000F0C4F80F49FF20C91E48707078002802D1686B384368630948012113
:404BC0002830FDF76DFCE0050BD53078042802D1052000F0ADF80348FF2101312830FDF75FFCF8BD40F02E406302002000002E4010B503212348FDF761FC0120FDF7F4FCA6
:404C000020483038406A204C80076178800F890001431C480C38FDF751FC6078002808D0401E022181401820FDF75EFFC000083800E0B82081B21548FDF740FC134803214F
:404C400009021438FDF73AFC10481149B830FDF735FC612189010F48FDF730FC0D480321001FFDF72BFC0C490C48FDF727FC0B480B496038FDF722FC084801218838FDF787
:404C80001DFC10BD70F02E4066020020D8102E4090890000041E2E40FF0F000058122E40209000000849087806280BD148780749002803D1486B400840004863C86A012201
:404CC0001043C862704700006302002040F02E4001480078704700006302002000B50300FFF7E8F8080D050D0B070507090D012000BD032000BD042000BD022000BDFF20DA
:404D000000BD0000074A9168D26889B2064B92B2994204D105498A4201D1012100E000210170704780002E4033D000003FE3000010B50446FDF76CFC072C01D9FF2C01D1F3
:404D400002480470FDF75EFC10BD00006302002001494870704700006002002010B5064A012805D01921C9021046FDF7A7FB10BD1D21C902F8E7000090002E4010B50A4ACA
:404D8000141D012808D009491046FDF797FB08492046FDF793FB10BD04491046891CFDF78DFB0349491DF3E788002E4031D000003AE300000078074AFF2803D04C2804D915
:404DC000553803E01078087070474F38087010707047000062020020F0B50122002830D000292ED00224420600D003246D2342065B06D21800D0641C034600221EE00C2549
:404E000016466E43104D00277519AF720E4F002ABB51696007D0661EB24209D106466D367606760E05E05E06760E8027BE1B00E080269B198919521C2E81D2B2A242DED35F
:404E400000221046F0BD00008C070020074900200C2242435218927A012A05D0401CC0B20428F5D300207047012070478C070020F8B5044616460F000BD0184D6868A04249
:404E800003D9FF306E30A04203D3FF206E30864201D90120F8BD2046FDF75EFE00281BD0324639462046FDF766FEF0B200210C224A43521913895668F718A74208D901279A
:404EC000A41B1B1B9772834206DAC01A1469C0B2491CC9B20429EAD30020F8BD8C07002010B500F05BF80648FF22C1686E320C460448FDF740FE03492046FFF76DFF10BD03
:404F00006C0200201C060020002070470020054A002902D0012902D002E0506000E09060002070476C02002070B5084C154608460549A26889182A46FDF71DFEA0684019A2
:404F4000A06028B270BD00001C0600206C0200203EB50A226946FFF7E7FF044606480A2200686946FDF7F8FD002802D00020C0433EBD20463EBD00006C020020002803D0EA
:404F8000FF226E32914201D2FF20704702490A61C8600020704700006C0200200248002141608160704700006C02002070B5074C15460548626880182A46FFF759FF606837
:404FC0004019606028B270BD1C0600206C02002010B503490A220968FFF7E8FF10BD00006C02002010B50F4A002313600E4A13600E4B18600E4801600E49012008600E499D
:405000000860000290600E490C4808600D4914300860FF381538506000F0BCF800F0CAF9002010BD9802002080020020AC020020B00200209C0200208C020020BC0800203D
:4050400090020020A4020020014610B50020002910D0094B1A689C685118A14209D25868196080188A0704D08A07920F891A091D196010BD002010BD80020020F8B50024AB
:40508000164E671E321F3D463168136806E01422624310328A58521C1BD0641C9C42F6D36A1C14D02C461422544322460C3288500C214843FFF7C8FF3168002808510AD02A
:4050C00031680020103408517068401C70602846F8BD2546E4E73846F8BD000090020020F3B50026F64381B000281BDB1E490968884217D80299002914D01B4F142204469F
:405100003F1D54432546396810354859401C09D0FDF77EFA38682F1F4159C359994203DBFDF770FA3046FEBD214608310091465801590C20704308180C220299FDF71BFD00
:405140000948761C001D0068C159B14200D100260549009A091D865008684159491C4151FDF750FA0020FEBD8C020020002803DB07490968884202D90020C0437047044984
:405180001422091D0968504310300858704700008C020020F0B500200D4A451E0346171F50600FE014260146714314680E1DA3510C461668083433511668083435511468D1
:4051C000401C635039688842ECD30020F0BD000090020020F3B50026F64381B0002841DB2349096888423DD8029900293AD0204F142204463F1D544325463968103548591D
:40520000401C2FD0FDF704FA3868415900292BD0211D009146580C21005971430F46C1190C220298FDF7A7FC11480021001D0068761C00590C34C0190160416081600C4854
:40524000001D00680159B14200D100260849009A091D865008684159491E4151FDF7D2F90020FEBD3046FEBDFDF7CCF9FAE700008C020020FEB504460D4600201E49089EEB
:405280000860471E009001900290002C11D0486885420ED2002A0CD0002E0AD0642E08D808460C3001681C2068430C18207A002801D03846FEBD0120226020721846FFF737
:4052C000DDFE6060401C13D06681A6810A4827610C3067610179A94200D205710021684601810A462846029B00F040F82846FEBD00202072DDE700009802002038B50124FC
:40530000009400F039F838BDFEB50027164EFF433D4600240EE01C20316860430818017A002906D04068FFF721FF002801D0254603E0641C3079A042EDDA681C12D01C2122
:4053400030684D434419FDF763F969466068FFF741FF0546FDF756F9002DD9D1216868468847D5E7FEBD0000A402002038B50024009400F001F838BD1FB500220C49541EC3
:405380000A60002811DB496888420ED808491C220C31096850430818406801A9FFF7A0FE401C02D0002004B010BD2046FBE7000098020020F0B50021114A4D1E17461171FC
:4053C0000C3F0B46BD6016E008461C2460431668041D355114680646235014680836A3551468361DA353044616680A34335318301468491C255078688142E5D30020F0BDA4
:40540000A402002038B500210091002811DB0F49097888420DDA0D4D04010C3529680859002807D0201D0818694600F06FF9002801D0002038BDFDF7EBF828680F34015D5E
:40544000491E0155FDF7DEF8009838BDB4020020F7B582B0002502986E1E06602E48D21C024017462D4A2C4610460C380178106805E02301C358002B0FD0641CE4B28C422A
:40548000F7D3711C28D03401211D40180191039900F02AF900281FD101E02646F1E71F48016820460C300F521C480399026820460E30115419480399026820460F3011549D
:4054C0000398784300F0A0F8144900280968085102D00024009011E001251AE00F48016801980818009900F02CF9002801D0012502E00098C0190090641CE4B20398844248
:40550000ECD3002D05D10298066004480179491C0171284605B0F0BDFCFF0000C0020020F8B50D4600216A468C461180002839DB23490978884235DA214B04010C331968F8
:405540000A59002A2ED020460C300B5A801C0E5C184670438018954224D3854222D2002006E007465F43BF18AF4206D0401CC0B2B042F6D36046002814D0114E271DC8190F
:405580000C366A46294600F006F900280AD168460088012808D030682946C01900F0D1F8002803D00120F8BD0020F8BDFDF730F830680F34015D491C0155FDF723F8F3E729
:4055C000B4020020F8B50F46002400F031F8002817D10C4900220B460C334A600EE021011D680E466A501D680C36AA53B61C1D680F31AA551D68641C6A54E4B2BC42EED3C0
:405600001A71F8BDB402002000280BD0C01C074A81085068890053884118994203D89368516018187047002070470000B4020020F8B5064600200F4D009029700C0121461E
:405640006846FEF7D5FC00280CD129460C3100980860301B001F84B221466846FEF7C8FC002801D0FF20F8BD6C800098A8600020F8BD0000B4020020F8B5002827DB19495A
:405680000978884223DA174C05010C342168485900281CD028460C30085A009028460E300E5C401C0E5420682F1DC01900F064F800280CD12068002445590EE00948294655
:4056C0000C300068C01900F03CF8002801D00120F8BD00982D18641CE4B2B442EED30020F8BD0000B402002030B50D4604000BD0A800FFF789FF6060002805D00020257036
:40570000C0436080002030BD012030BD70B50D46040005D0002D03D00220205E002801DA012070BDFCF774FF0221615E60688900405828606088401E6080FCF763FF0020D5
:4057400070BD70B50D46040007D0002D05D002212078615E401E814201DB012070BDFCF757FF6088401C00B26080616880000D50FCF748FF002070BD10B5040009D022785A
:4057800000216068FDF700FA0020C0436080002010BD012010BDF0B500231D46002802D00224045F0AE00120F0BD46689F00F6598E4201D1012503E05B1CDBB29C42F4DAD7
:4057C00015700020F0BD00000148007870470000C80200207CB505460024FEF79DF9A8796946087000A8062229460130FDF7C3F90021684604F066FA0C2804D0072804D034
:405800001F2804D004E0022402E0042400E0272420467CBD10B500F005F9FFF759FAFFF75DFA10BD70B504460025FEF775F9002C06D0A079012803D8214602F005FB00E00A
:405840000125284670BD01460120002902D05020088000207047000001460120002905D003485422007850430880002070470000C902002010B503240CF088FA002810D146
:405880000CF02CFA00280CD104F0B2FF002808D100F0C4FA002804D104F098FC002800D10024204610BD70B50025044600280ED0A07901280BD8FEF72FF9A0790028204615
:4058C00002D002F059FE03E002F01EFE00E00125284670BD014610B50120002904D006220248FDF748F9002010BD0000CA02002001460120002903D008780249087000208A
:4059000070470000C902002038B504460120002C20D0617801291DD800290BD0FF25E535FEF7FAF80C4828180088C0B22070072803D00EE0FF25CD35F2E7002069460870DC
:405940006846FFF7DFF969460878012801D108202070002038BD000000102E4070B504460120002C1FD06178012902D92278092A19D8002905D0FF25E5352078092803D017
:4059800004E0FF25CD35F8E708202070FEF7C4F82078084E082807D00020FFF7EFF92078A9190880002070BD0120FFF7E7F90720F6E7000000102E4070B50D46040001D0AD
:4059C000002000E00548002802D0012102F0BAF82946204602F040FB70BD000054090020F8B50546002004460D4E009013E022466946284600F010FF0098002801D00CF09D
:405A0000A7F9A878214602F0A1F9A878214602F08FF9641CE4B2308AA042E8D8F8BD00000C0A002038B5FFF753F9042819D0052817D006281AD0032837D007280AD1002089
:405A40006946087002460120FFF76CF8FFF740F90128FBD138BDFCF7B7FAFFF739F90128F8D0FFF735F90128F5D138BD02F0BCF905E0FCF7A9FAFFF72BF9012803D0FFF730
:405A800027F90128F5D10C49088A01220B4B8407A40F1A70022CE8D15B88002BE5D010430882088A9043088238BD02F0A1F90120FFF73EF938BD0000001A2E40D6020020F5
:405AC000F8B50646002402F03DFE0546304602F053FE03460A480021068A0DE001228A401046174628401F40002803D0002F01D1224394B2491CC9B28E42EFD82046F8BD7F
:405B00000C0A00201CB50020694648706846FFF7FBFE01AA69460A20FFF704F86946042008561CBD10B50C4601F044FA002809D00179002906D0C1788078224602F012FB62
:405B4000002010BD022010BD01480078704700002C0900204030C07E002800D00120704700B500F001F800BD8C2148430749084A40186030417F491CC9B24177D28991425B
:405B800001D300214177C8B270470000340900200C0A002013B501F00DFA04000BD001F08EFD002807D0214601AA0A310620FEF7B9FF00201CBD02201CBD000010B50C462F
:405BC00001F0F8F900280AD001F079FD002806D0224604490A20FEF7A5FF002010BD022010BD000015090020F3B581B0074601460026029802F09EFD0446002F01D00025A1
:405C000000E0154D002D21D0284601F009FA032C04D13946029802F0E9FD06463846029902F086F8032C06D0002C10D00121384601F0F4FA03E03146384602F0C7FF28464A
:405C400001F066FF0221284601F07CFFFEBD3846029902F06DF8FEBD5409002010B5044603F0CAFB002801D00C2010BD2078611C02F07AFBFF2801D01F2010BD02F0C0FB88
:405C8000FF280AD02178621C01F0E0FF044821780068026B601C904710BD072010BD0000EC02002010B503F0A7FB002801D00C2010BD02F03BFB03480068C06A80470020E8
:405CC00010BD0000EC02002070B50D46044610210BF07EFF1021601806460BF079FF334610221946204603F0B3FB102130460BF06FFF02202870204604F0C0F970BD0000DB
:405D0000F8B504464078217802028006870FE0781143A67809050002090D0643084601F049F900210546F2B2002812D0002C10D0022F0ED0032F0CD0002A0AD00279092A4C
:405D400007D0002A05D0134A5A23527E1B5C9A4207D82889002104F0C6F820460BF0F8FFFF21002914D10C48224600682946436930469847C0B2FF280AD128464030817E82
:405D8000F2B2491C8176FF232146284600F0DDF8F8BD0000EC080020040300200020704710B5044603F028FB002801D00C2010BD2078611C02F0D8FAFF2808D002F010FA75
:405DC000044821780068426B601C904710BD1F2010BD0000EC02002010B504F0F7F900F057F9002010BD10B5044600786178E2780843A178114308432179084361790843D2
:405E000005D003F0EBFA002803D00C2010BD122010BD204602F0B0FB002010BD10B5FCF717FC02F0B1FC044803F050FB02F0E2F9012000F003F810BDFC080020F1B586B038
:405E400003A8009005A8019025489F22817A114081726846FDF78AFE00283FD169460989C90705D01F4806990068C2686846904769460989890706D500282FD11A48006839
:405E8000816A06988847002828D1184E0025757075737571F575357675767575B570F570B5713746F5730120BC3738731F20F880FF2130467972A0300175457500F040FA8B
:405EC00000242046069901F0BBFB002803D1641C2406240EF5D0FD72BD72B57307B0F0BDEC08002004030020EC0200203409002070B505460E46084602F024FC0446304681
:405F000002F03AFC0121A9400A46224001400A4301D0012070BD002070BD10B50446084602F02AFC0121A140014201D0012010BD002010BD10B5FEF7CBFE032804D101F0A7
:405F400057FF0120FEF7F4FE10BDFEB51C4616460F46054601F0DCFDA878FFF701FE02460190334639460094284600F00DF8002808D1A8780199FFF71FFDFF2C02D13846F5
:405F80000BF0E6FEFEBD0000FFB585B005460E980C46FF2810D02B49C00009680A5840180179C0795278814201D9012601E09006860F6846038108E06078A1788006860F42
:405FC000E0780002014368460181284601F082FB070007D021462846079A00F0B1FB384609B0F0BD304600F05FFC04AE0346039002AA29460096204600F0EBFA3C20405DEF
:40600000002818D0284601F065FB012813D0684600890096C0B20190A878231DFF22079901F0CEFF68460089039BC2B2A878079902F01EFBD3E7684600890021C0B20091AD
:40604000E9E7000000030020F8B5104F002500242846FFF735FD060012D00EE03046E040C007C00F07D02146284601F059FE21462846FFF7B9FD641CE4B2388AA042EDD84C
:406080006D1C2D062D0EE2D0F8BD00000C0A002010B502F0AFF80020FFF7D0FE0BF0EEFE002010BDF8B5002400F07EF80123012800D10124104F00203E4620360425082210
:4060C00003E0002801D0002100E031460979002907D001290BD002290BD0114681402143CCB2401C0006000EEBD07C70F8BD1C43F7E72C43F5E700003409002010B5FFF759
:40610000D1FF10BD10B50B4681791943817103D08078114602F07AFA10BD10B582798A43827102D1807802F085FA10BD30B50C4C0220A28A0B4B9978002901D0022906D198
:406140001D785B78EB18282B01D9032002E0032900D101205105490DC0020143A18230BDC0112E40D102002000B500F023F8002807D0012805D0032801D0042801D000209A
:4061800000BD012000BD014600B50020C90701D000F00AF800BD014600B50020C90701D000F002F800BD000001480088000A704720102E400448008B410501D50420704776
:4061C0004007800F7047000000102E4038B50446000610D5FFF7EEFF01280CD1684601F00DFE6846007800F0AFFA012001F0FCFC0220FFF783FF034800680169204688472A
:4062000038BD0000EC02002010B5034A0178117002F00EF9002010BDD102002070B50446FFF7C2FF002801D00C2070BDA27B01211F48002A827801D00A4301E05208520089
:4062400082706279012A14D0C17849084900C170184D2868016820468847207901280CD06188208802F02AFF2080207904280FD015E0C2780A43C270EAE72868C168E01DE8
:406280008847E01D02F064F90B48808C208006E02868C168E01D8847E01D02F059F9074920798870204602F0D1F8002070BD000034090020EC020020EC080020D102002057
:4062C00008B50178FFF770FF814201D10C2008BD002914D0072069460870FFF745FF012807D10121684600F08BF8012801D0092008BDFFF71BFF02F0DDF8012011E0FFF7DD
:4063000033FF012806D1684601F078FD6846007800F04EFA02F0C4F8FFF746FF0028FBD10220FFF7EBFE002008BD000010B5034A0178517002F04AF9002010BDD102002095
:4063400038B568460BF09AFC002801D01F2038BD01210098C90201804180002505714571857107214173857302F070F8009C202200212046FCF708FC25702A460021601C8A
:40638000FCF702FC204602F053F8204602F01EF900980BF0DDFC042200210248FCF7F4FB002038BDD10200200346084800B5834209D8184600F0FEFD002804D00089984257
:4063C00001D1012000BD002000BD0000FF0E0000074A9179491C8906890E917138220A4092014907090E1143084302490840704734090020FF0E0000C006C00E70470000DF
:40640000F8B507460E4600240D4803E0002C01D0002500E005462979002905D0641C2406240EF3D00020F8BD0021204601F008F92E712046FFF7CCFF28813C700120F8BDE7
:406440005409002010B503F037F80222002100F003F801F07BFE10BD10B5094B40074907000F090F185A595A40185043C0086421FCF74AFA002800D1012080B210BD0000CD
:40648000AC500100F7B53D20405C88B016460C46002829D030786946087200252046FFF759FB012800D00125204603A938300191009023460327A17E34332A46206A03F0CC
:4064C0001FF802A8089900900B46019120463A4603A9243002F09EFF02466846007A3070204601F099F810460BB0F0BDFFB587B00C4605461078694608723D20005D17464C
:40650000002826D000262046FFF724FB012800D00126204603A93830019100902346A17E34333246206A02F0EBFF02A80090291D019120462B1D03A924300A9A02F06AFF54
:4065400002006846007A388002D1204601F064F810460BB0F0BDF0B505463C20405C89B016460C4600280CD0307869460873002806D000272046FFF7EDFA012803D003E009
:406580001F2009B0F0BD012703200890204604A93830019100902346E17E34333A46E06902F0AEFF6846007B03A928180290009120462B46019504A92430089A02F05CFF8A
:4065C00002466846007B3070204601F02FF81046D7E7FFB505463C20405C89B016460C46002810D0084601F075F801280BD0308869468883002809D000272046FFF7AAFAC8
:40660000012805D005E000200DB0F0BD0220FBE70127204603A93830019100902346E17E34333A46E06902F06BFF291D2B1D07A8129A6D4607C5204603A924300C9A02F06B
:406640001BFF02466846808B3080204600F0EEFF1046D9E770B50D460446FFF77BFA01280AD0E87AA97A00020143A07801F06AFC012808D0002070BD00222421204602F07F
:4066800067FC242070BD28214C200155204600F0A3FB282070BD0000002801D0002000E003484030C07F012800D0002070470000540900200146002049070ED50021084B44
:4066C00003E0002901D0002200E01A461279022A04D0491C0906090EF3D0704701207047540900200146002049070ED50021084B03E0002901D0002200E01A461279022A72
:4067000004D0491C0906090EF3D07047012070475409002010B5044680346068002803D00BF02AFB0020606010BD4030417070474030817070474030017070470171704727
:4067400092001018C166704770B53C2501F060F9040004D020460021433001F0A7FBFF222946204600F0D0FB002C02D0A07801F0D1F870BD10B5002801D0002000E0034895
:40678000002802D0008903F0F5FB10BD5409002010B5002801D0002000E00448002804D00179072901D100F047F810BD5409002010B501F02DF9002802D0807801F0AAF8CD
:4067C00010BD00207047000070B50546008A00281ED01049F122897A1140C90618D5294640314A8A098A521C4A4392B2D10800D10121540801E0621A94B2A042FBD9FEF76D
:40680000E3FF012804D1298AA878224601F060FC70BD0000EC08002010B50023054C0B60248A944204D992001018C26E0A60C36610BD00000C0A002038B504460020009043
:40684000A079002814D14020015D052901D00E290ED168460BF022FA002809D12046009902F05EFB03481021C28A2046FFF74AFC38BD0000EC08002010B50B4604460146F4
:40688000184601F0E7FF002802D020460BF06AFA10BD13B5044601AA11460620FEF742F96846818861811CBD002800D10220704770470000F8B504462346401D54330090DE
:4068C0009A1EA078911E01F0A3FA25464035A88A298A8000FCF718F8401E81B2688A884203D96982A07801F0F5FE20460021433001F0DCFA27480088E88102F0DDFDE989D4
:40690000891C8AB26179FFF7A7FD01F01FFC02F0D3FD2A8A6179FFF79FFD074601F00AFC688A002806D01C49088A032212021043088202E0002001F0C1FE17488038018881
:406940006E8A002E0CD0304648431449FCF7CCF80004000C01D0401C80B21149488002E00F4800214180288A704381B2A07801F03BFEFF2228374932B9B21346204602F063
:40698000A1FBE98AA07801F09FFDA07801F0F0F9F8BD000080102E40E0112E4071020000D60200207FB504468034616805460E46183108226846FCF7DEF83146203108223E
:4069C00002A8FCF7D8F8102168460BF001F96068102108300BF0FCF860682B46083024331022694602F034FD7FBD10B504460821FFF793FB10212046FFF78FFB2079052895
:406A00001FD006281DD008281AD12189002003F029FA072020712046FFF79CF8014620464030012913D00E21017000210176204600F082FF2046FFF76DFE2046FFF7C4FE8B
:406A400010BD20890122002103F0F0F9E1E70521EAE70000FFB581B01F4604460821FFF75CFB10212046FFF758FB2079082803D0092804D0042203E00422012501E00922D5
:406A80000025204600F012FE264600204036307022712046FFF73EFE0398002D02D0012808D00BE001280AD120890022029903F0BDF904E02189029803F0D4F901270020B5
:406AC0003076012F04D0204600F036FF05B0F0BD02983073204602F067FA054605480121C28A2046FFF70EFB002DEFD109202071ECE70000EC08002070B50C460546FFF758
:406B000029F8012809D108212846FFF706FB0023012221462846FFF79DFF70BD10B5044600F0C4FD2046FFF7F5FD00214034217010BD70B505461A24FFF70CF8012809D11D
:406B400008212846FFF7E9FA0023012221462846FFF780FF70BD0000F8B50446002000900E4668460BF09AF8002801D00D20F8BD8420005908212030009D00F016FA20465E
:406B80000421383000F011FA002E02D1204600F0C9FD2946204602F052F90E480821C28A2046FFF7AFFA204600F037FF25464035002808D0204600F023F8002801D009204F
:406BC00028700020F8BD08202870204600F0A0FFF7E70000EC080020014610B540310A460978082906D0092907D00A2901D100F091F810BD0B20107010BD00F001F810BDAA
:406C000070B50446007925464035052805D0062803D008280FD00C2070BD03220621204602F096F90D480821C28A2046FFF76AFA1120287010E006202873204602F0B4F9E5
:406C40000646AA8A0A20424301212046FFF75AFA002E01D109202071002070BDEC08002038B504460020009068460BF017F8002801D00D2038BD2046009D00F0ADF908207D
:406C80002071204600F04EFD2946204602F00AF900213D2001550F2040210855204600F037FF002038BD00B5024600F0FFFC10214032117000BD10B50446FEF74BFF012836
:406CC00009D04020005D112805D100231A4606212046FFF7BFFE10BD10B5FFF786FE10BD38B504460021684600910AF0D7FF00280CD12046009902F04CF905480821C28AEF
:406D00002046FFF7FFF90D204034207038BD0000EC08002038B504460021684600910AF0BDFF002801D00D2038BD2046009902F025F905480821C28A2046FFF7E3F90C2028
:406D400040342070002038BDEC08002000787047F8B50025002801D0002400E01A4C002C28D0204600F0ABFC002823D0207903281CD005281CD026464036B18AA07801F057
:406D80003DFCB078012815D10021204601F07FFD274680373868002802D00AF0EDFF3D600020B0702079072805D007E0042000E006202071F8BD2046FFF706FD0221204612
:406DC00000F0C0FEF8BD00005409002010B54C22115400F04CF810BD10B50446FF21FFF79CF909202071A07801F02EFC10BD000038B5FF216A461180002801D0002400E05B
:406E0000084C002C0DD011460620FDF78BFE684601882046FFF73DFD03480068C1692046884738BD540900200403002010B504468079002809D022214C200155FF212046EF
:406E4000FFF76BF9204600F012F810BD10B5037902464032002B03D01173092B02D003E0002100E02221117300F001F810BDFEB50446008900270090278120792646403647
:406E8000002817D0012815D002280AD112E002AA01A9204601F0CCFC002807D101980AF061FF204601F0ECFC0028F0D02046FEF797FDB776254680352868002802D00AF06F
:406EC0005BFF2F606868002802D00AF055FF6F60317B002915D0009800F060F8A078002100F05AFF2046FFF7ADFAA07801F014F8A07800F00FFD0B20FFF700F900F04CFC28
:406F0000FEBD1F213173E6E7F8B517460E46054602F0CEFA04003CD020460C3000F0B6FF2046062200211830FBF72EFE2046062200211230FBF728FE164822460068394660
:406F4000436A28469847074626702846FEF702FE012148406070002D10D02889608028464030C1782171002E0FD169796171018AE180418A2181808A608106E00648008B4B
:406F8000C005C00F2071002060803946204602F0ECFEF8BDEC02002000102E400A4610B50146002002F0FEFF10BD10B50AF0ECFB10BD000000B50146FFF71EFA002801D0FC
:406FC000002000E00348002802D002898A4200D0002000BD5409002038B5044680346068002806D168460AF069FE002801D100986060606838BD000010B5014600F06AFB9A
:407000000128887802D0FEF7AFFD10BD8C214843024940186030007F10BD00003409002070B5054604464035A87F012811D1A1788C20084A484380186030067F3046FEF7B8
:4070400057FF002805D10220A877A078314601F00DF870BD3409002010B50C4CA07A002813D0FEF7F1FF0A48027F417F408B00F09BFB012809D10020A07200F0C3FE05492D
:407080008989090B01D000F033FA10BDF009002034090020A0102E4070477047490510B5490F0B00FCF706FF060704080C0C0F073E21FFF78BFE10BD0821FFF7C7FE10BDDC
:4070C000FFF7D5FE10BDFFF7B1FE10BDF8B507460025002D01D0002600E0204E00F072FE3046403044890021418100F075FE304600F0E5FA01282BD1A00702D52846FFF752
:4071000027FEE00602D52846FFF772FEA00601D5FEF79AFF600601D500F0F8FA200602D5284600F01DF8600702D5284600F024FA380402D52846FFF72BFB780402D52846E9
:40714000FFF718FBE00703D021463046FFF7A6FF6D1C2D062D0EBCD0F8BD000054090020F8B5002801D0002400E0244C002C42D025464035A87801283DD1FF278820493742
:4071800000593E46002805D01D49897A890601D5878AC68A2046FEF7DDFC01282BD002F08BF92A8A6179FFF757F9009000F0C2FF00983346283081B23A46204601F082FFEF
:4071C000E98AA07801F080F90E4801886E8A0E4F002E11D0304648430C49FBF785FC0004000C01D0401C80B27880288A704381B2A07801F0F9F9F8BD0020F5E75409002066
:40720000EC08002060112E40D60200207102000001490968096808470403002070B50D460026194A0146002801D0002401E014462034002C26D0204600F04CFA01280AD198
